:020000040800F2
:10000000B814002055020008C5240008C5230008C4
:10001000C12400084D0400082D2C00080000000039
:100020000000000000000000000000002D25000876
:10003000B104000800000000C924000831250008B0
:100040006F0200086F0200086F0200086F020008CC
:100050006F0200086F0200086F0200086F020008BC
:100060006F0200086F0200086F0200086F020008AC
:100070006F0200086F0200086F0200086F0200089C
:100080006F0200086F0200086F0200086F0200088C
:100090006F0200086F0200086F0200086F0200087C
:1000A000F525000825270008192700086F02000819
:1000B0006F0200086F0200086F0200086F0200085C
:1000C0006F0200086F0200086F0200086F0200084C
:1000D0006F020008E52B00086F0200086F0200089D
:1000E0006F0200086F0200086F0200088D270008E9
:1000F000A92800089D2800086F0200086F02000868
:100100006F0200086F0200086F0200086F0200080B
:100110006F0200086F020008312700086F02000814
:100120006F0200086F020008510400086F02000807
:100130006F0200086F0200086F0200086F020008DB
:100140006F0200086F0200086F0200086F020008CB
:100150006F0200086F0200085D0400086F020008CB
:100160006F0200086F0200086F0200086F020008AB
:100170006F0200086F0200086F0200080000000014
:100180006F0200086F02000800F002F800F052F859
:1001900014A696E8000CB244B344DA4501D100F04D
:1001A00049F8BAE80F000FA696E83000A5EB040561
:1001B00004EB0607AAEB0704A7F101074FEA1515A0
:1001C0004FEA3414A4F10104AC4201D300F032F838
:1001D00013F0010F18BFFB1A43F0010300F001F800
:1001E000DBE71847282B0000482B0000103A24BFFB
:1001F00078C878C1FAD8520724BF30C830C144BF8C
:1002000004680C6070470000704700000023002461
:1002100000250026103A28BF78C1FBD8520728BF16
:1002200030C148BF0B6070471FB502F052FD1FBDC3
:1002300010B510BD00F0D0F81146FFF7F5FF02F041
:10024000F7FC00F0EEF803B4FFF7F2FF03BC00F098
:10025000F5F800000948804709480047FEE7FEE737
:10026000FEE7FEE7FEE7FEE7FEE7FEE7FEE7FEE766
:1002700004480549054A064B70470000E12500087F
:1002800089010008B80E0020B8140020B810002022
:10029000B810002053EA020C00F069802DE9F04B01
:1002A0004FF00006002B1FBFB3FA83F503FA05F4E5
:1002B00024FA05F65E4012BF1643B2FA82F502FA3E
:1002C00005F4C5F120051EBF22FA05FC44EA0C0422
:1002D000203556EA044C4FEA144418BF641C4FF012
:1002E00000084FF00009904271EB030C39D300294C
:1002F00019BFB1FA81F701FA07F6B0FA80F700FAF0
:1003000007F6C7F120071EBF20FA07FC46EA0C06D5
:100310002037B6FBF4FCA7EB0507103F07F01F0BD7
:10032000CBF120062CFA06F60CFA0BFB44BFB346C1
:100330000026202FA4BF5E464FF0000B5BEA060CA0
:1003400008BF4FF0010B19EB0B0948EB0608ABFB9C
:10035000027C06FB02CC0BFB03CCC01B71EB0C0137
:10036000C1E70B46024641464846BDE8F08B13B54F
:10037000084318BF4FF0FF300146AFF30080BDE8DF
:100380001C4070474FF0000200B513469446964655
:10039000203922BFA0E80C50A0E80C50B1F1200198
:1003A000BFF4F7AF090728BFA0E80C5048BF0CC046
:1003B0005DF804EB890028BF40F8042B08BF7047A4
:1003C00048BF20F8022B11F0804F18BF00F8012B16
:1003D0007047704770477047754600F02BF8AE467F
:1003E00005006946534620F00700854618B020B541
:1003F000FFF73EFFBDE820404FF000064FF000073A
:100400004FF000084FF0000BAC46ACE8C009ACE878
:10041000C009ACE8C009ACE8C00921F007018D466D
:10042000704710B50446AFF300802046BDE8104089
:10043000FFF709BF00487047180000200149182045
:10044000ABBEFEE72600020070470000FEE700009A
:1004500040F6D440C2F2000000F006B940F6345035
:10046000C2F2000000F000B980B582B00020019017
:1004700043F63000C4F202000168002241F480011A
:1004800001600068002100F48000019001983A208A
:1004900000F0EAFB3A2000F0D5FB462000210022C4
:1004A00000F0E2FB462002B0BDE8804000F0CABB8D
:1004B0007047000072B600BFFEE700002DE9F04370
:1004C00087B0002743F630000697CDE90477CDE9E1
:1004D00002770197C4F20200016840F2004941F03E
:1004E000020101600168C4F2020901F002010191F8
:1004F00001990197016809F5805541F48071016007
:100500000168002201F4807101910199019701684D
:10051000032641F020010160016801F020010191F2
:1005200001990197016841F001010160016801F042
:100530000101019101990197016841F08001016079
:10054000016801F08001019101990197016841F072
:1005500004010160016801F0040101910199019712
:10056000016841F0100101600068032100F01000F3
:1005700001900198284600F0EFFA48464FF4704188
:1005800000224FF4704800F0E7FA029602AE012410
:1005900028463146CDE90347059700F00DFA484655
:1005A0003146CDE90284CDE9047700F005FA07B0C1
:1005B000BDE8F08370B5866D044600F0D3FA94F878
:1005C0003510022928D105462068216C026822F0E6
:1005D00016020260426922F08002426109B9A16CF0
:1005E00019B1016821F008010160016821F00101E1
:1005F000016000BF20680068C00715D000F0B2FAA3
:10060000401B0628F6D320206065032084F83500BF
:10061000002184F8341070BD802060650120002125
:1006200084F8341070BD00BFE06D3F2101FA00F086
:10063000B060012084F835000020002184F83410D7
:1006400070BD000090F83510022909D1052180F80D
:1006500035100068016821F0010101600020704739
:100660008021416501207047F0B581B000210091E3
:1006700040F20C01C2F200010B68D0E9166148F2A9
:10068000B51537680822C1F64E358A403A42A3FBB9
:1006900005350CD003681C68640708D51C6824F075
:1006A00004041C60B260426D42F001024265012206
:1006B0008A403A4208D003685B691B0604D5B260E1
:1006C000426D42F00202426504228A403A4208D05A
:1006D00003681B689B0704D5B260426D42F00402B8
:1006E000426510228A403A4219D001680B681B0704
:1006F00015D5B2600B680A685B0309D4D20509D42A
:100700000A6822F008020A60016C29B907E000BFFC
:10071000110341D4016C11B1044688472046C26DD3
:10072000202101FA02F33B4243D001680F68FF0623
:100730003FD5B36090F835700B68052F1CD123F0BE
:1007400016030B604B6923F080034B61036C0BB9FC
:10075000836C1BB10B6823F008030B603F219140B1
:10076000B160012180F83510016D0022002980F868
:10077000342054D158E000BF0A685B0310D4D2057E
:1007800012D40A6822F010020A60012180F83510A4
:10079000002180F8341007E0816C0029BCD1BEE74D
:1007A000110301D4416C00E0C16B11B104468847CC
:1007B0002046416DC1B3416DC9072ED0052180F897
:1007C00035100168AA0A0B6823F001030B60009B37
:1007D0000133934200931AD80B68DB0717D0009BB4
:1007E00001339342009312D80B68DB070FD0009BB4
:1007F0000133934200930AD80B68DB0707D0009BB4
:1008000001339342009302D80B68DB07DFD101214B
:1008100080F83510002180F83410C16C21B101B08E
:10082000BDE8F040084700BF01B0F0BD2DE9F04140
:10083000044600F097F9ECB10546022084F8350033
:100840000020216884F83400086820F00100086066
:1008500021680868C00711D000F084F9401B052802
:10086000F6D9032520230320636584F83550BDE8BD
:10087000F08100BF0120BDE8F08100BF086848F2A8
:100880003F02CFF21002D4E9013500EA020C04F174
:100890000C0898E8C10143EA0C032B431843D4E940
:1008A000072E304338431043626A40EA0E00042AA0
:1008B00040EA08031CD1206BD4E90A2E40EA0E005E
:1008C000184308604869BEF1000F20F0030040EAB9
:1008D000020040F0040C11D0B8F5005F36D0B8F13A
:1008E000000F45D1022A46D0012A3BD032B942E05E
:1008F0000B60486920F0070040EA020C01F0F800A4
:100900004AF6AB221038CAF6AA22A0FB02231A0923
:1009100042F60453C1F814C0C0F600039A5C40F2DA
:10092000FF335F284FF03F0021EA030100FA02F095
:1009300088BF0431C4E91612886000230125002015
:10094000636584F83550BDE8F08100BF032AD5D82F
:10095000012540230120DFE802F0030E030500BF5C
:1009600082E700BFAEF1C070B0FA80F0400904E049
:10097000032A04D3C2D1CEF300600028BED00125E3
:1009800040230120636584F83550BDE8F081000004
:10099000B0B5044600F0E6F8054640F20000C2F2A9
:1009A00000000078611C18BF044400BF00F0DAF8B2
:1009B000401BA042FAD3B0BD2DE9F04F83B000F147
:1009C000200200F13E4741F60045009207F1FF7713
:1009D000C4F2020508224FEAB726A84208BF072240
:1009E00000254FF000084FF00009072E38BF4FEAEE
:1009F000B72201920AE000BF09F1010908F10208DB
:100A0000B9F1100F05F1040500F0A2800F68012272
:100A100002FA09FE17EA0E0AEED0D1F804C003224A
:100A20000CF003077E1E02FA08F4012E6FEA040B95
:100A300012D88468CE6804EA0B0406FA08F6344338
:100A40008460446824EA0E06CCF3001404FA09F426
:100A50002643466004E000BF032F01D103271EE0B8
:100A6000C6688C6806EA0B0604FA08F42643022FCF
:100A7000C66014D16FF00302009E02EA590756F8CF
:100A800007C005F01C040F220B69A2402CEA0202E9
:100A9000A3401A43F251D1F804C00CF003070268D6
:100AA00007FA08F302EA0B021A431CF4403F026003
:100AB000A2D0002243F644030292C4F202031A6851
:100AC00043F6004442F480421A601A68C4F20104FA
:100AD00002F480420292029A29F003024FF6084C77
:100AE0002244CFF6FF7C52F80C3005F00C070F269D
:100AF000BE40B343019E06FA07F73B4342F80C3071
:100B0000A2684B6842EA0A0743F60C4CDE0258BF63
:100B100022EA0A07A760C4F2010CDCF800209E025A
:100B200042EA0A0758BF22EA0A07CCF80070626856
:100B30009E0342EA0A0758BF22EA0A076760226852
:100B4000DB0342EA0A0758BF22EA0A07276053E795
:100B500003B0BDE8F08F0000002A08BF09048161DE
:100B60007047000040F6B460C2F2000000687047B1
:100B700040F2000040F6B461C2F20000C2F200018F
:100B800000780A68104408607047000080B543F69A
:100B90000040C4F20200016841F400710160016884
:100BA00041F480610160016841F4807101600320BB
:100BB00000F086F80F2000F005F800F027F800207C
:100BC00080BD000070B540F20006C2F2000640F29F
:100BD0000C013278C2F200014FF47A730968B3FB5A
:100BE000F2F20446B1FBF2F1084600F05FFB0F2C75
:100BF0004FF0010508D838B94FF0FF3021460022E8
:100C0000002500F031F87460284670BD82B00020E5
:100C100043F640010190C4F202014A6842F4804266
:100C20004A604A6802F480420192019A0090086882
:100C300040F080500860086800F0805000900098F4
:100C400002B07047002848BF704700F01F01012222
:100C500002FA01F11C2202EAD0004EF20012CEF29A
:100C6000000281507047000010B54EF60C5CCEF2C9
:100C7000000CDCF80030C3F3022E8EF00704042CC5
:100C800028BF0424BEF103034FF0FF3E0EFA04F424
:100C900038BF0023A14399400EFA03F39A4311434E
:100CA00000F00F0200F160430901043A03F56443C8
:100CB0006244002848BF02F10C03197010BD000007
:100CC0004EF60C51CEF200010A684FF6FF031A40AF
:100CD00060F30A2242F0806040F0FD7008607047C7
:100CE000002804BF012070472DE9F04143F60808B1
:100CF000C4F202080446D8F8F8030D4600F00700D5
:100D0000884207D288F8F853D8F8F80300F00700B3
:100D1000A84277D12068810717D5410705D5D8F8B3
:100D2000001041F4E051C8F80010010705D5D8F8CB
:100D3000001041F46041C8F80010D8F80010A26813
:100D400021F0F0011143C8F80010C00740D1D8F8D5
:100D5000F80300F00700A84207D988F8F853D8F83C
:100D6000F80300F00700A8424CD12068410707D5DE
:100D7000D8F80010E26821F4E0511143C8F80010DF
:100D8000000708D5D8F80000216920F4604040EA47
:100D9000C100C8F8000000F07DF8D8F8001042F655
:100DA000EC42C1F30311C0F60002515C40F20C02A8
:100DB00020FA01F140F20400C2F200000068C2F221
:100DC00000021160FFF7FEFE0020BDE8F08100BFC9
:100DD0006068811E022907D258F8081C89015CBF8F
:100DE0000120BDE8F08111E0012807D158F8081C66
:100DF00089035CBF0120BDE8F08107E058F8081CBA
:100E0000890703D40120BDE8F08100BFD8F80010A5
:100E100021F003010843C8F80000FFF7A3FE0646CF
:100E200041F28837D8F80000616800F00C00B0EBA0
:100E3000810F8CD0FFF796FE801BB842F2D90320B9
:100E4000BDE8F08140F20C0043F60801C2F2000058
:100E5000C4F202010068096842F6FC42C1F3822133
:100E6000C0F60002515CC8407047000040F20C0020
:100E700043F60801C2F20000C4F2020100680968EA
:100E800042F6FC42C1F34231C0F60002515CC84058
:100E90007047000010B543F60404C4F20204606811
:100EA00000F00C0008280BD0042819BF42F20040C3
:100EB000C0F2F40041F60030C0F2B70010BD00BF30
:100EC000206821682368490241F60031C0F2B70169
:100ED00000F03F02C3F388105CBF42F20041C0F251
:100EE000F401A1FB00010023FFF7D4F921680222DD
:100EF000C1F3014102EB4101B0FBF1F010BD000074
:100F0000002804BF012070472DE9F04182B004465B
:100F1000007843F60006C007C4F202060CD0B068A1
:100F200000F00C00042840F081803068800303D575
:100F30006068002800F06881207880071BD5B068C1
:100F400010F00C0F09D0B06800F00C00082840F039
:100F500087807068400200F183803068800703D585
:100F6000E068012840F050813068216920F0F800E5
:100F700040EAC10030602078000713D42078400791
:100F80002AD4A569002D00F03A81B06800F00C0069
:100F9000082840F0A580012D40F00E81012002B00C
:100FA000BDE8F0816069002800F082800020C4F272
:100FB00047200121C0F8801EFFF7D4FD054600BF81
:100FC000706F8007DAD4FFF7CDFD401B0228F7D9F8
:100FD000032002B0BDE8F081306C5FEAC0080AD49B
:100FE00000200190306C40F080503064306C00F094
:100FF00080500190019847F20007C4F2000738685A
:10100000C00547D4386840F480703860FFF7AAFD07
:10101000054600BF3868C0053CD4FFF7A3FD401B60
:101020000228F7D9032002B0BDE8F081B06800F0D3
:101030000C00082803D1706840023FF576AF616864
:101040003068B1F5803F07D0B1F5A02F40F09A800D
:1010500040F480203060306840F4803030609AE0A6
:10106000E068002840F20000C4F247205CD0012173
:101070000160FFF777FD0546306880073FF574AFE4
:10108000FFF770FD401B0228F6D9032002B0BDE82F
:10109000F08100BFA168306F012905D0052955D125
:1010A00040F004003067306F40F00100306756E0D8
:1010B0000020C4F247200021C0F8801EFFF752FD37
:1010C000054600BF706F80077FF558AFFFF74AFDF8
:1010D000401B0228F6D9032002B0BDE8F08100BF12
:1010E0000027C4F2472700203866FFF73BFD022D9A
:1010F00005460DD13068800140F18A80FFF732FD4E
:10110000401B02284FF00300F4D902B0BDE8F08183
:101110003068800173D5FFF725FD401B02284FF092
:101120000300F5D9F1E700BF00210160FFF71AFDC8
:10113000054600BF306880077FF51DAFFFF712FD41
:10114000401B02284FF00300F4D9DEE720F0010035
:101150003067306F002920F0040030677AD0FFF745
:1011600001FD054641F28837306F800700F1848029
:10117000FFF7F8FC401BB842F6D9032002B0BDE8E7
:10118000F08100BF20F4803030603068002920F406
:10119000802030607AD0FFF7E5FC05463068800398
:1011A0003FF5CAAEFFF7DEFC401B6428F6D90320EA
:1011B00002B0BDE8F08100BF7068E16900F4800210
:1011C0008A4221D1216A00F03F028A421CD147F6AF
:1011D000C071626A0140B1EB821F15D1A16A4FF65E
:1011E000FF73C903994300F44032A1F580318A426C
:1011F0000AD1E16A00F07060B0EB016F04D1002009
:1012000002B0BDE8F08100BF012002B0BDE8F0816E
:1012100004F11C052FCD084340EA8210D9034FF694
:10122000FF729143A1F5803140EA05600843706088
:1012300001203866FFF796FC044600BF3068800145
:10124000DDD4FFF78FFC001B02284FF00300F5D917
:101250005BE700BFFFF786FC054641F2883700BF19
:10126000306F800708D5FFF77DFC401BB8424FF078
:101270000300F5D949E700BFB8F1000F3FF581AE93
:10128000306C20F0805030647BE600BFFFF76AFCD2
:10129000054600BF306880037FF54EAEFFF762FC65
:1012A000401B64284FF00300F4D92EE7411E0020B4
:1012B000B0EB116F1CBF012070474EF21002CEF24E
:1012C000000251604EF62351CEF20001F0230B7064
:1012D0000721906011607047704700007047000060
:1012E00090F83C20012A04BF02207047B0B501F1FC
:1012F00008053CCDD1E900CE23F47C5322F4705292
:101300001A432EF4F0431A432CF4E0431A4324F416
:10131000C0431A432A43C96922F480420368114337
:101320005964002180F83C100020B0BD90F83C20AA
:10133000012A4FF0020254D010B580F83D20026817
:10134000D2F804E0D2F808C00C682EF070032343F2
:1013500041F2FF74C4F20004A24253600EDC40F27A
:10136000FF73C4F200039A4216DCB2F1804F2BD017
:1013700040F20043C4F2000324E000BF40F2FF3318
:10138000C4F201039A4213DC41F60003C4F20003E5
:101390009A4219D0002313E040F60003C4F2000380
:1013A0009A4211D040F60043C4F200030AE000BFA5
:1013B00044F20003C4F201039A4205D040F2004314
:1013C000C4F201039A4204D149682CF08003194306
:1013D00091600121002280F83D1080F83C20BDE89A
:1013E0001040104670470000002804BF01207047DD
:1013F00010B5044690F83D0028B9002084F83C0060
:10140000204600F01FF8022084F83D002068211DCE
:1014100001F050FA012084F8460084F83E0084F878
:101420003F0084F8400084F8410084F8420084F8CA
:10143000430084F8440084F8450084F83D0000200F
:1014400010BD0000006841F20001C4F200018842B2
:1014500018BF704780B582B00020019043F640006D
:10146000C4F202000168002241F01001016000682E
:10147000002100F01000019001983620FFF7F4FBE6
:10148000362002B0BDE88040FFF7DCBB70470000AB
:1014900070B504460068C5680669B10716D515F031
:1014A000020113D06FF002010161012121778069EF
:1014B000800703D02046FFF7E9FF05E0204600F053
:1014C000F9F8204600F088FA00202077700719D537
:1014D00015F0040016D020686FF0040101610221AC
:1014E0002177806910F4407F04D02046FFF7CEFFBB
:1014F00006E000BF204600F0DDF8204600F06CFA60
:1015000000202077300717D515F0080014D0206888
:101510006FF00801016104212177C069800703D0C1
:101520002046FFF7B3FF05E0204600F0C3F8204651
:1015300000F052FA00202077F00619D515F01000BF
:1015400016D020686FF01001016108212177C06971
:1015500010F4407F04D02046FFF798FF06E000BF5C
:10156000204600F0A7F8204600F036FA0020207749
:10157000F00718BF15F0010002D1300609D412E0BF
:1015800020686FF001010161204600F0AFFA3006DB
:1015900009D515F0800006D020686FF08001016148
:1015A0002046FFF799FE700609D515F0400006D0D9
:1015B00020686FF040010161204600F099FAB00602
:1015C00058BF70BD15F0200008D021686FF02002D0
:1015D00020460A61BDE87040FFF780BE70BD000084
:1015E000F0B587B0006840F20041C4F20101002567
:1015F0008842CDE90555CDE90355029524D0002157
:10160000C4F20101884252D1002043F6300101901A
:10161000C4F202010A6842F010020A60096801F08F
:101620001001019101994FF4D44102910221CDE9B9
:10163000031005900120069040F60000C4F202005D
:1016400000F500642FE000BF43F630000195C4F2BE
:101650000200016840F6000441F4807101600168F5
:10166000C4F2020401F480710191019901950168AD
:10167000022641F0040101600068032700F0040025
:1016800001900198C020029004F5C05002A9CDE954
:10169000036505950697FFF78FF94020CDE902060F
:1016A000CDE90455069702A92046FFF785F907B052
:1016B000F0BD00007047000090F83C30012B04BFE3
:1016C000022070474FEAB202032A00F2FF802DE9A0
:1016D000F043DFE802F003B13F7F00BF036840F250
:1016E00000461C6A1A6A24F0020422F001021A62FF
:1016F0001A46D3F804C052F818EF8F6843F4806597
:10170000C4F20106B54244EA070405D1CF6824F0CB
:101710000C0427F004073C430F68B54206D1D1E919
:1017200005582CF440762E4346EA080C2EF073063A
:101730003743C3F804C09F614F6809695F631C6247
:101740009F6947F008079F619F6927F004079F6121
:10175000B1E000BF036840F200481C6A1A6A24F432
:10176000007422F480721A621A46D3F804C052F848
:101770001CEF8F6843F48065C4F20108454544EAD4
:10178000072408D1CF6840F2FF463F0224F44064AA
:1017900027EA06063443D1F80090454506D1D1E941
:1017A00005562CF440572E4347EA061C2EF07307CB
:1017B00047EA0907C3F804C0DF614F680969DF63BE
:1017C0001C62DF6947F00807DF61DF6927F0040763
:1017D000DF6170E0036840F20045D3F820C01A6A68
:1017E00043F4806722F480521A621A465C6852F809
:1017F0001C8FD1F800E08E68C4F20105AF4204D11D
:101800004D6924F4804444EA85142CF4005747EAD7
:10181000063728F4E64646EA0E265C60DE614E682E
:1018200009691E641F62DF6947F40067DF61DF69D1
:1018300027F48067DF613DE0036840F200481C6ADE
:101840001A6A24F0200422F010021A621A46D3F811
:1018500004C052F818EF8F6843F48065C4F20108A1
:10186000454544EA071407D1CF686FF0400624F0DD
:10187000C00406EA07163443D1F80090454506D166
:10188000D1E905562CF440672E4347EA860C2EF426
:10189000E64747EA0927C3F804C09F614F68096912
:1018A0009F631C629F6947F400679F619F6927F4EB
:1018B00080679F6109021368194311600021BDE828
:1018C000F043002280F83C200846704701210022A6
:1018D00080F83C2008467047002804BF012070476C
:1018E00010B5044690F83D0028B9002084F83C006B
:1018F000204600F01FF8022084F83D002068211DDA
:1019000000F0D8FF012084F8460084F83E0084F8F7
:101910003F0084F8400084F8410084F8420084F8D5
:10192000430084F8440084F8450084F83D0000201A
:1019300010BD000070B582B0006840F20041C4F2F2
:101940000101884218D00021C4F20101884241D12E
:101950000020019043F64400C4F2020001681A24FA
:1019600041F0010101600068192500F001000190BB
:101970000198182612E000BF0020009043F64400B2
:10198000C4F2020001682D2441F0020101600068E8
:101990002C2500F00200009000982B2630460021F4
:1019A0000022FFF761F93046FFF74CF92846002185
:1019B0000022FFF759F92846FFF744F92046002195
:1019C0000022FFF751F9204602B0BDE87040FFF752
:1019D00039B900BF02B070BD70470000C1B1042921
:1019E00008D0082914BF41224022825C012A05D078
:1019F00016E000BF3F22825C012A11D10222082991
:101A000010D0042914BF80F8412080F83F200BE05B
:101A100090F83E20012A03D1022280F83E2003E004
:101A20000120704780F84020006801F01F0101226A
:101A3000036A02FA01F123EA01020262026A114317
:101A400041F2FF72C4F20002904201620CDC40F2EB
:101A5000FF71C4F20001884214DCB0F1804F37D02E
:101A600040F2004116E000BF40F2FF31C4F2010134
:101A7000884215DC41F60001C4F20001884227D0FB
:101A8000002115E040F60001C4F2000188421FD099
:101A900040F60041C4F20001884219D01FE000BFA7
:101AA00044F20001C4F20101884211D040F2004129
:101AB000C4F20101884212D1416C40F2004340F46B
:101AC0008062C4F2010341F400419A42416406D1AC
:101AD000816801F00701062904BF002070470168F2
:101AE00041F00101016000207047000070470000D4
:101AF000704700007047000070470000B0B582B02A
:101B000001680A68CC684B6902F02F05202D04F0AB
:101B1000200505D125B102B0BDE8B04000F06EBF90
:101B20005FEA027C1EBF03F0010E04F4907313EB16
:101B30000E0341D1036BD50618D5012B16D114F035
:101B4000100313D0002201920A6801924A680192A0
:101B5000019A496949064BD4818DC28DC38D002BF2
:101B600018BF914240F0068202B0B0BD13062DD5D9
:101B700014F080032AD090F84120212AF4D1826801
:101B8000B2F5805F03D10269002A00F07982026A0F
:101B9000531C036212784A60C28C013A1304C28457
:101BA000E2D1C86820F08000C860C86840F04000FA
:101BB000C86002B0B0BD00BFD30718BF14F4807373
:101BC00040F0E280530700F1E580EAE05206CBD511
:101BD00014F04002C8D0CA6822F04002CA60202136
:101BE00080F8411002B0BDE8B04000F0E9BB00BF92
:101BF000C26B11684B68858D99B2002900F0B480E2
:101C0000A94280F0B180C385D169B1F5807F00F031
:101C1000A080016851E8031F026821F4807142E846
:101C20000313DBB1016851E8031F026821F48071DE
:101C300042E8031393B1016851E8031F026821F4DD
:101C4000807142E803134BB1016851E8031F026839
:101C500021F4807142E80313002BDAD1016851E8C6
:101C6000051F026821F0010142E80513BBB30168BA
:101C700051E8051F026821F0010142E8051373B322
:101C8000016851E8051F026821F0010142E80513CF
:101C90002BB3016851E8051F026821F0010142E8F9
:101CA0000513002BDAD11AE0016851E8051F02681C
:101CB00021F0400142E80513DBB1016851E8051F3E
:101CC000026821F0400142E8051393B1016851E830
:101CD000051F026821F0400142E805134BB101687D
:101CE00051E8051F026821F0400142E80513002B6E
:101CF000DAD1202180F8421000210163016851E807
:101D0000031F026821F0100142E80313DBB10168F0
:101D100051E8031F026821F0100142E8031393B158
:101D2000016851E8031F026821F0100142E8031323
:101D30004BB1016851E8031F026821F0100142E82D
:101D40000313002BDAD1C16B04460846FEF732FCC0
:101D5000204602214163818DC28D891A89B202B069
:101D6000BDE8B040FFF7C6BE8D427FF4FDAED2693C
:101D7000B2F5807F7FF4F8AE0222426302B0BDE884
:101D8000B040FFF7B7BE00BF436C43F001034364AC
:101D9000530706D5BEF1000F03D0436C43F0020396
:101DA0004364930706D5BEF1000F03D0436C43F0A4
:101DB00004034364BCF1000F06D55EEA050303D0BB
:101DC000436C43F008034364436C002B3FF4CCAEF8
:101DD000920605D525B1044600F010FE2168204684
:101DE0004969426C01F0400102F00802891800F0D4
:101DF000B98000BF016851E8031F026821F49071A7
:101E000042E80313BBB3016851E8031F026821F4E1
:101E1000907142E8031373B3016851E8031F02682D
:101E200021F4907142E803132BB3016851E8031FBA
:101E3000026821F4907142E80313002BDAD11AE012
:101E4000016851E8051F026821F0010142E805130D
:101E5000DBB1016851E8051F026821F0010142E889
:101E6000051393B1016851E8051F026821F00101D3
:101E700042E805134BB1016851E8051F026821F0E3
:101E8000010142E80513002BDAD1016B012924D1AD
:101E9000016851E8031F026821F0100142E80313B2
:101EA000DBB1016851E8031F026821F0100142E82C
:101EB000031393B1016851E8031F026821F0100178
:101EC00042E803134BB1016851E8031F026821F097
:101ED000100142E80313002BDAD1202180F84210D0
:101EE0000021016301684969490640F1C380016826
:101EF00051E8051F026821F0400142E80513DBB1FB
:101F0000016851E8051F026821F0400142E805130D
:101F100093B1016851E8051F026821F0400142E8D1
:101F200005134BB1016851E8051F026821F040011B
:101F300042E80513002BDAD1C16B002900F09A802A
:101F400042F6F112C0F60002044608460A65FEF7A2
:101F500079FB00283FF408AEE06B016D02B0BDE8EC
:101F6000B04008470446FFF7C7FD0020606402B098
:101F7000B0BD00BF891A00BF026852E8032F036892
:101F800022F4907243E80325BDB3026852E8032FA0
:101F9000036822F4907243E8032575B3026852E89F
:101FA000032F036822F4907243E803252DB30268DF
:101FB00052E8032F036822F4907243E80325002DB2
:101FC000DAD11AE0026852E8052F036822F0010214
:101FD00043E80525DDB1026852E8052F036822F0C9
:101FE000010243E8052595B1026852E8052F036810
:101FF00022F0010243E805254DB1026852E8052FA1
:10200000036822F0010243E80525002DDAD12022E1
:1020100080F8422000220263026852E8032F03681E
:1020200022F0100243E80325DDB1026852E8032FD5
:10203000036822F0100243E8032595B1026852E8D4
:10204000032F036822F0100243E803254DB1026814
:1020500052E8032F036822F0100243E80325002D05
:10206000DAD1022289B2426302B0BDE8B040FFF784
:1020700041BD00BF02B0BDE8B040FFF73DBD00BFAD
:10208000026A32F8023B6FF35F234B60026283E522
:10209000002804BF0120704710B5044690F84100A5
:1020A00028B9002084F84000204600F021F82420C0
:1020B00084F841002068C16821F40051C1602046C5
:1020C00000F01CFD2068016921F490410161416923
:1020D00021F02A014161C16841F40051C160002032
:1020E0002021606484F8411084F84210606310BDC0
:1020F0002DE9F04F87B0044641F200070068C4F2B2
:1021000001070026B8420696CDE9046603960296BA
:1021100002D007B0BDE8F08F43F630000196C4F25C
:102120000200416902AD41F010014161416946F28E
:10213000404801F0100101910199019601684FF0AA
:10214000020941F00201016001684FF0030A01F049
:10215000020101910199019601684FF0070B41F0CE
:10216000010101600068294600F00100019001981A
:102170008020029007F57440C4F20208CDE903966E
:10218000CDF814A0CDF818B0FEF716FC4FF400708F
:10219000CDE9020904A880E8400C07F57040294603
:1021A000FEF70AFC40F6D445C2F200054FF0006786
:1021B0004FF480692846C5E90087C5E90266C5E98C
:1021C0000496C5E90666C5E90866FEF72FFB0028F8
:1021D00018BFFEF76FF9E563AC6340F6345508F1BC
:1021E0007800C2F200054021C5E9000705F10800AA
:1021F000002280E806022846C5E90522C5E9072233
:102200006A62FEF713FB002818BFFEF753F925207A
:1022100000210022A563AC63FEF726FD2520FEF712
:1022200011FD07B0BDE8F08F704700002DE9F043C5
:1022300081B0044690F84100202809D100294FF0D0
:10224000010018BF002A07D101B0BDE8F08300BF2C
:10225000022001B0BDE8F0830020606421201D460B
:102260000E4684F841001746FEF77CFCA784E784FD
:10227000A1688146B1F5805F02D1206900285DD058
:1022800037460020E28C2168002A5DD06A1C24D0E9
:10229000002D4AD0804600BF0868000608D4FEF72B
:1022A00061FCA0EB0900A8427AD82168C868F3E76E
:1022B00017B117F8010B04E038F8020B00276FF391
:1022C0005F204860E08C0138E084E08C0028E3D196
:1022D0003AE000BF0A68120609D40A68120606D45A
:1022E0000A6812065CBF0A685FEA0262F2D51FB193
:1022F00017F8012B05E000BF30F8022B00276FF321
:102300005F224A60E28C013AE284E28C002AE4D146
:102310001AE000BF30F8022B00276FF35F224A60FB
:10232000E28C013AE284E28C72B10A68120635D579
:10233000002FEFD017F8012BF1E700BF0027304640
:10234000E28C2168002AA1D1086840061ED42DB372
:10235000681C14D1086840062AD40868400627D4AF
:102360000868400624D4086840064FF00000F1D504
:102370000DE000BF2068C1680068400618D4FEF771
:10238000F1FBA0EB0900A842F4D909E000202021CC
:1023900084F8411001B0BDE8F08300BFFEF7E2FB16
:1023A0000320202184F8411001B0BDE8F08300BF74
:1023B0000020202184F8411001B0BDE8F083000026
:1023C00070470000FEE7000080B5FEF7DFFB00F07D
:1023D000B1F8FEF773F8FEF747F800F009FC00F0DB
:1023E0000FF900F0D9F900F0A9F900F06FF8BDE895
:1023F000804000F001B8000040F2780C40F29401F7
:1024000040F294604FF60023C2F2000CC2F20001C9
:10241000C2F200000322CFF6FF73CCE9011002756F
:10242000C81813F5C07380F8082680F8142680F8C1
:10243000202680F82C2680F8382680F8442680F85C
:10244000502680F85C2680F8682680F8742680F88C
:10245000802680F88C2680F8982680F8A42680F8BC
:10246000B02680F8BC2680F8C82680F8D42680F8EC
:10247000E02680F8EC2680F8F82680F8042780F81B
:10248000102780F81C2780F8282780F8342780F848
:10249000402780F84C2780F8582780F8642780F878
:1024A000702780F87C27BBD140F69450C2F2000020
:1024B00000210422CCE90301CCE9050270470000A9
:1024C000FEE70000FEE700007047000040F6944081
:1024D000C2F2000040F2004C4FF400530221C4F25B
:1024E000020C4FF4805283824FF4004381854FF4F5
:1024F00080418280002283840CF5805381860121F3
:10250000C0F800C08271C0F810C08275C0F820C049
:1025100080F82620836280F82E20C0F830C080F832
:1025200036208363818780F83E2070477047000023
:10253000FEF71EBB70B592B006AC20463021FDF709
:1025400021FF002543F640000595CDE90355CDE96F
:1025500001550095C4F202000168022641F0805145
:102560000160006800F080500090009847F2000081
:102570000095C4F20000016841F4804101600068E8
:1025800000F4804000900098012006904FF48030C5
:1025900007904FF480000D9006200E90A020CDE90A
:1025A0000F060420119020460C96FEF7A9FC002887
:1025B00018BFFDF77FFF0F20CDE901064FF4A050B3
:1025C00004904FF48050059001A805210395FEF773
:1025D00087FB002818BFFDF76DFF12B070BD00002B
:1025E0004EF68850CEF20000016841F4700101609F
:1025F0007047000040F69450C2F20000FEF748BF5A
:1026000080B592B040F6945000220021C2F2000042
:10261000C4F201020F2340F2E73C1191CDE90F1102
:10262000CDE90D11CDE90B11CDE90911CDE9071166
:10263000CDE90511CDE90311CDE90111C0E9002370
:10264000C0E9021CC0E904118161FFF745F90028C7
:1026500018BFFDF72FFF40F69450C2F2000010A9FA
:10266000FEF764FE002818BFFDF724FF60200990E4
:102670000020CDE90A00CDE90C00CDE90E0040F6BE
:102680009450C2F2000009A90022FFF715F80028B3
:1026900018BFFDF70FFF40F69450C2F2000009A9E1
:1026A0000422FFF709F8002818BFFDF703FF40F6E2
:1026B0009450C2F2000009A90822FEF7FDFF00288D
:1026C00018BFFDF7F7FE40F69450C2F2000009A9CA
:1026D0000C22FEF7F1FF002818BFFDF7EBFE0020EB
:1026E0000590CDE90300CDE901004FF400510890B9
:1026F00040F694500691C2F2000001A9FEF7F0FDE9
:10270000002818BFFDF7D6FE40F69450C2F2000034
:10271000FEF766FF12B080BD40F69450C2F2000092
:10272000FEF7B6BE40F69450C2F20000FEF7B0BE0F
:1027300040F6DC50C2F20000FEF7AABE80B582B0BF
:1027400040F6DC5041F200020021C2F20000C4F267
:1027500000024F2340F2E73CCDE90011C0E900231D
:10276000C0E9021C8161FEF73FFE002818BFFDF79B
:10277000A1FE40F6DC50C2F200006946FEF7D6FD2D
:10278000002818BFFDF796FE02B080BD40F6246019
:10279000C2F20000FEF77CBE80B592B040F6246025
:1027A00040F200420021C2F20000C4F201020F23F5
:1027B00040F2E73C1191CDE90F11CDE90D11CDE9C2
:1027C0000B11CDE90911CDE90711CDE90511CDE9CD
:1027D0000311CDE90111C0E90023C0E9021CC0E9E1
:1027E00004118161FFF778F8002818BFFDF762FE39
:1027F00040F62460C2F2000010A9FEF797FD002801
:1028000018BFFDF757FE602009900020CDE90A00AF
:10281000CDE90C00CDE90E0040F62460C2F20000C4
:1028200009A90022FEF748FF002818BFFDF742FE65
:1028300040F62460C2F2000009A90422FEF73CFF22
:10284000002818BFFDF736FE40F62460C2F20000F3
:1028500009A90822FEF730FF002818BFFDF72AFE5D
:1028600000200590CDE90300CDE901004FF40051AF
:10287000089040F624600691C2F2000001A9FEF71C
:102880002FFD002818BFFDF715FE40F62460C2F2A8
:102890000000FEF7A5FE12B080BD000040F62460E7
:1028A000C2F20000FEF7F4BD40F62460C2F2000060
:1028B000FEF7EEBDB0B540F6FF3E0568C4F2000E6F
:1028C00040F2004C7045C4F2010C25DCB0F1804FA1
:1028D0002FD040F20043C4F20003984229D040F6C2
:1028E0000003C4F20003984223D041F6FF73C4F200
:1028F0000003984228DC70453ADCB0F1804F5BD091
:1029000040F20043C4F20003984255D040F6000361
:10291000C4F200034EE000BF40F60043C4F20003DF
:10292000984206D0604504D00023C4F201039842C7
:10293000DBD14B6825F0700243EA020541F6FF73D4
:10294000C4F200039842D6DD43F6FF73C4F20103DC
:1029500098421FDC42F20003C4F2000398422BD0DD
:102960000023C4F20103984226D0604524D028E019
:1029700040F60043C4F2000398421DD041F6000324
:10298000C4F20003984217D041F60043C4F200039A
:1029900010E000BF44F20003C4F2010398420BD0E0
:1029A00044F60003C4F20103984205D044F2004308
:1029B000C4F20103984204D1CB6825F4407243EA83
:1029C00002050A688C684B69C46240F480648262C4
:1029D000644504BF09690163026825F0800142F083
:1029E000040219430260012242610160B0BD00008F
:1029F000806B0021C185FFF77FB8000081B090F89F
:102A00004210222921D183680246B3F5805F09D1A3
:102A100052F8281F52F8183C002B63D003685B68FB
:102A20000AE000BF52F8281F13B90369002BF5D044
:102A300003685B6803F07F030B701168013111605C
:102A4000C18D01390A04C18502D001B0704700BFB1
:102A50000168CA6822F02002CA60CA6822F4807243
:102A6000CA604A6922F001024A61202180F84210BE
:102A700000214163026B012A3CD10163016851E8E6
:102A8000031F026821F0100142E80313DBB1016863
:102A900051E8031F026821F0100142E8031393B1CB
:102AA000016851E8031F026821F0100142E8031396
:102AB0004BB1016851E8031F026821F0100142E8A0
:102AC0000313002BDAD101680A68D20606D500226A
:102AD00000920A680092496800910099818D01B0C6
:102AE000FFF708B8026852686FF35F2221F8022BE3
:102AF0008162A5E701B0FFF797BB0000B0B50446BF
:102B0000006804F108030ECB0569194325F440550C
:102B10002A4302616269E3691143C268194349F2B9
:102B20000C639A431143C1604169A26921F4407169
:102B300041F20043114340F48062C4F201039A421F
:102B4000416103D1FEF792F902E000BFFEF77AF986
:102B5000E1694FF69C7563681922C0F6FF75B1F5FF
:102B6000004FA0FB02011FD15A00DB0FFDF792FBC3
:102B700048F21F51C5F2EB11A0FB01235A0905F1E0
:102B8000805302FB0300322303EBC000A0FB0101D2
:102B90004FF4F87000EA111000EB0210C1F342117B
:102BA000084421688860B0BD9A009B0FFDF772FB56
:102BB00048F21F51C5F2EB11A0FB01235A0902FB99
:102BC0000500322303EB0010A0FB0101F02000EA16
:102BD000511000EB0210C1F34311084421688860D2
:102BE000B0BD000040F66C60C2F20000FEF786BF88
:102BF00080B540F66C6041F20001C2F20000C4F200
:102C0000010100234FF00C0C4FF4E13280E80E007C
:102C1000C0E90333C0E905C3C361FFF739FA0028EF
:102C200008BF80BDBDE88040FDF744BCFEE7000062
:102C3000FFF7CAFB40F62464C2F2000420460821D4
:102C4000FEF7CCFE9FED0D0A204608214FF44862A6
:102C500000F016F840F66C6440F21005C2F2000471
:102C6000C2F200052046294604224FF47A73FFF78A
:102C7000DDFA4FF4FA70FDF78BFEF3E7CDCC4C3E56
:102C800040F20803C2F200031B8803FB02F246F67F
:102C90000003C0F68913B3FBF2F302689BB2D36260
:102CA000C36049B1082905D0042914BF4020382049
:102CB00003E000BF3C2000E0342001EE103AB8EE03
:102CC000C11A21EE000ABCEEC00A10EE101A115013
:102CD0007047F1EE100A4FF6FF71C0F2C03120EAE2
:102CE000010040F04070E1EE100A70470000000063
:102CF00000000000010203040607080900000000AC
:102D0000010203040006101600061016302D0008FC
:102D10000000002018000000EC010008482D000809
:102D200018000020A01400000C02000800000000A1
:102D30000100000010000000100000000024F4005A
:082D4000010203040000000081
:040000050800018965
:00000001FF
