:020000040800F2
:100000008018002041030008556F000809630008AC
:10001000E56C0008ED16000845910008000000009E
:100020000000000000000000000000002D78000823
:10003000451B00080000000049770008117C0008FB
:100040005B0300085B0300085B0300085B03000818
:100050005B0300085B0300085B0300085B03000808
:100060005B0300085B0300085B0300085B030008F8
:100070005B0300085B0300085B0300085B030008E8
:100080005B0300085B0300085B0300085B030008D8
:100090005B0300085B0300085B0300085B030008C8
:1000A0005B0300085B0300085B0300085B030008B8
:1000B0005B0300085B0300085B0300085B030008A8
:1000C0005B0300085B0300085B0300085B03000898
:1000D0005B030008A59000085B0300085B030008B1
:1000E0005B0300085B0300085B030008357E000823
:1000F0006D7F00085D7F00085B0300085B0300085C
:100100005B0300085B0300085B0300085B03000857
:100110005B0300085B030008C97D00085B0300085F
:100120005B030008F9180008091900085B030008C0
:100130005B0300085B0300085B030008A9170008C5
:100140007917000889170008991700085B03000851
:100150005B0300081919000829190008F590000828
:100160005B0300085B0300085B0300085B030008F7
:100170005B0300085B0300085B030008000000004D
:100180005B0300085B03000800F002F800F0C8F809
:1001900014A696E8000CB244B344DA4501D100F04D
:1001A000BFF8BAE80F000FA696E83000A5EB0405EB
:1001B00004EB0607AAEB0704A7F101074FEA1515A0
:1001C0004FEA3414A4F10104AC4201D300F0A8F8C2
:1001D00013F0010F18BFFB1A43F0010300F001F800
:1001E000DBE7184764AF000084AF00000A444FF01B
:1001F000000C10F8013B13F0070408BF10F8014B86
:100200001D1108BF10F8015B641E05D010F8016BCA
:10021000641E01F8016BF9D113F0080F1EBF10F82E
:10022000014BAD1C0C1B09D16D1E58BF01F801CB51
:10023000FAD505E014F8016B01F8016B6D1EF9D5D4
:100240009142D6D37047000070470000002300247D
:1002500000250026103A28BF78C1FBD8520728BFD6
:1002600030C148BF0B6070476E2900F0478270298B
:1002700000F0898366290AF0948665290AF0918640
:1002800067290AF08E8661290AF08D8603681B0AA9
:1002900028BF41F08001692900F0F481642900F051
:1002A000F181752900F0EE816F2900F0178378291C
:1002B00000F05583E92900F0B182E42900F0AE8214
:1002C000F52900F0AB82EF2900F01483F82900F043
:1002D00054830368DB0928BF41F08001632901F0E2
:1002E0008780732901F08C80E32901F09780F3293E
:1002F00001F09C80002070471FB50AF040FE01F01D
:10030000EBF80400002000210AF060F8401C606057
:10031000002000210AF044F8E0601FBD10B510BDB8
:1003200001F0ACF81146FFF7E7FF09F003F901F01F
:1003300089F903B4FFF7F2FF03BC01F0CFF9000025
:100340000948804709480047FEE7FEE7FEE7FEE769
:10035000FEE7FEE7FEE7FEE7FEE7FEE704480549A5
:10036000054A064B70470000D57C0008890100084B
:1003700080120020801800208014002080140020AB
:1003800053EA020C00F069802DE9F04B4FF00006B3
:10039000002B1FBFB3FA83F503FA05F424FA05F620
:1003A0005E4012BF1643B2FA82F502FA05F4C5F1B7
:1003B00020051EBF22FA05FC44EA0C04203556EA4B
:1003C000044C4FEA144418BF641C4FF000084FF06F
:1003D0000009904271EB030C39D3002919BFB1FA1F
:1003E00081F701FA07F6B0FA80F700FA07F6C7F1CD
:1003F00020071EBF20FA07FC46EA0C062037B6FB92
:10040000F4FCA7EB0507103F07F01F0BCBF120060C
:100410002CFA06F60CFA0BFB44BFB3460026202F3D
:10042000A4BF5E464FF0000B5BEA060C08BF4FF01E
:10043000010B19EB0B0948EB0608ABFB027C06FB32
:1004400002CC0BFB03CCC01B71EB0C01C1E70B46CC
:10045000024641464846BDE8F08B13B5084318BF35
:100460004FF0FF300146AFF30080BDE81C407047FD
:100470000FB41CB5084B06AA7B446946009005984A
:1004800000F055F904460020694600F063F9204663
:100490001CBC5DF814FB0000D9020000032A40F2E6
:1004A000308010F0030C00F0158011F8013BBCF116
:1004B000020F624498BF11F801CB00F8013B38BF2E
:1004C00011F8013BA2F1040298BF00F801CB38BF3C
:1004D00000F8013B11F0030300F02483083AC0F058
:1004E000088051F8043B083A51F804CBA0E8081002
:1004F000F5E7121D5CBF51F8043B40F8043BAFF335
:100500000080D20724BF11F8013B11F801CB48BF8E
:1005100011F8012B24BF00F8013B00F801CB48BFC4
:1005200000F8012B70474FF000020429C0F0128040
:1005300010F0030C00F01B80CCF1040CBCF1020F96
:1005400018BF00F8012BA8BF20F8022BA1EB0C016B
:1005500000F00DB85FEAC17C24BF00F8012B00F861
:10056000012B48BF00F8012B70474FF0000200B587
:10057000134694469646203922BFA0E80C50A0E8C6
:100580000C50B1F12001BFF4F7AF090728BFA0E874
:100590000C5048BF0CC05DF804EB890028BF40F840
:1005A000042B08BF704748BF20F8022B11F0804F82
:1005B00018BF00F8012B704770477047704770B53F
:1005C000044685690068C10601D5302600E0202672
:1005D000C00707D070BDD4E9012130469047206A9A
:1005E000401C20626D1EF6D570BD70B5044685694D
:1005F0000078C00707D170BDD4E9012120209047C1
:10060000206A401C20626D1EF6D570BD09684A053F
:1006100001D540B27047C905FCD500B270470968E2
:100620004A0501D5C0B27047C905FCD580B27047F4
:1006300070B50C460546012A05D02878800600D5FD
:10064000EA69002302E0012305E05B1C934202D229
:10065000E05C0028F9D1A869E618C01AA861286AE8
:10066000184428622846FFF7AAFF04E0D5E90121D3
:1006700014F8010B9047B442F8D32846FFF7B5FFB2
:1006800070BD00002DE9F041064600241068752970
:10069000314616A510D0FFF7B9FF002802DA404214
:1006A00013A507E031688A0701D512A502E04907C2
:1006B00004D511A5012401E0FFF7B1FF00210A22B2
:1006C00006F1240709E0B0FBF2FCB0FBF2F302FBF9
:1006D0001C00303078541846491C0028F3D12346BA
:1006E0002A463046BDE8F04100F093BA0000000011
:1006F0002D0000002B00000020000000116802689F
:10070000006A530501D508700AE0D30501D50880B9
:1007100006E0130603D5C217C1E9000200E0086035
:100720000120704701694A1C02610878704700B5D2
:100730008FB0CDE901310021059105497944CDE91A
:1007400003101146684600F029F90FB000BD000003
:10075000E5FFFFFF0A6802F8010B0A60704700001E
:100760002DE9FF5F15468A460446DFF8AC80F84461
:100770000027D8E900103E46CDE9001010E03AF815
:1007800016106A4602A800F055FE411C07D02178D9
:10079000890603D5E269391891420DD80744761CC1
:1007A0002078800602D5E069B84205DDAE42E6DB7E
:1007B0003AF816000028E2D1A069C01BA0612046CB
:1007C000FFF7FDFED8E90010CDE90010002017E08A
:1007D0003AF818106A4602A800F02CFEB0F1FF3F6C
:1007E00081460BD000250DF1080B05E0D4E901216D
:1007F0001BF8050090476D1C4D45F7D308F101002B
:10080000B0428046E4DB206A384420622046FFF78D
:10081000ECFEBDE8FF9F00003AA800002DE9F04182
:100820008046D21D22F007020025D2E90002F529F8
:1008300015A614D0011E72F1000106DA0023D0EBD8
:10084000030063EB020211A608E0D8F800108B0742
:1008500001D50FA602E0490701D50EA601251146D4
:10086000002408F1240704E000F08EF930323A55F4
:10087000641C50EA0102F7D12B463246214640461D
:10088000BDE8F04100F0C5B9000000002D000000F7
:100890002B0000002000000030B4002100F12404EF
:1008A00008E002F00705D208303542EA4372DB085F
:1008B0006554491C52EA0305F3D10468002310A2D1
:1008C000250708D504F020040C4304D0C469012393
:1008D0000CA2641EC46130BC00F09BB910B5044684
:1008E00021461068FFF79BFE02462046BDE81040F7
:1008F0000023D1E7D21D22F00701D1E90023CBE785
:100900000000000030000000F0B40D460188090529
:1009100002D5214C7C4402E01F4C7C440E34002163
:1009200000F1240608E002F00F071209E75D42EA31
:1009300003721B097754491C52EA0307F3D102786A
:100940000023120704D5702D06D009B102231134FB
:100950002246F0BC00F05DB901231034F8E770B511
:1009600004460D4621461068FFF759FE0246294607
:100970002046BDE870400023C6E7D21D22F00703E1
:10098000D3E90023C0E70368126843F02003036043
:100990000823C3610023B7E79CA600002DE9F05FA0
:1009A000894604464FF0000ADFF874B1FB44C0F8F2
:1009B00020A02046E1688847002874D0252806D06A
:1009C000D4E901219047206A401C2062F1E700260B
:1009D0005F462046E16888472028054607DB312D21
:1009E00005D2781910F8200C08B10643F1E7B007DA
:1009F00001D526F00406C4F81CA00027C4F818A0EE
:100A00002A2D09D0284609F0C3FC38B304EB870827
:100A1000303DC8F8185019E059F8041B204604EB83
:100A200087029161E1688847012F054618D1E06986
:100A3000002820DA26F020061DE0D8F8180000EB88
:100A4000800005EB40003038C8F818002046E16807
:100A50008847054609F09CFC0028EED1012F0AD0FA
:100A60002E2D08D12046E16888477F1C0546022FBD
:100A700046F02006C4DBA069002803DA404246F0B5
:100A80000106A061F00701D026F010066C2D0BD0F6
:100A9000682D09D04C2D39D06A2D35D0742D35D024
:100AA0007A2D33D016E038E0E1682F46204688479B
:100AB000B842054609D16C2F26D04FF48060E1681A
:100AC000064320468847054604E06C2F1AD04FF4B1
:100AD000807006430DB3A5F14100192802D82035D6
:100AE00046F400664A462946204626604E46FFF7F1
:100AF000BBFB80B101280BD0F61D26F0070000F1EA
:100B0000080956E74020E4E78020D8E70020D6E730
:100B100006F104094DE7284652E7206ABDE8F09F38
:100B20002CA6000010B5203AC0F00B80B1E8185098
:100B3000A0E81850B1E81850A0E81850203ABFF4C7
:100B4000F5AF5FEA027C24BFB1E81850A0E8185066
:100B500044BF18C918C0BDE810405FEA827C24BFBA
:100B600051F8043B40F8043B08BF7047D20728BF48
:100B700031F8023B48BF11F8012B28BF20F8023B97
:100B800048BF00F8012B704730B5B0F10A0271F18F
:100B900000034FEA900E4EEA817EB0EB0E0061EB4F
:100BA00091014FEA101E4EEA017E10EB0E0041EB60
:100BB00011114FEA102E4EEA016E10EB0E0041EBC0
:100BC00011214FEA104E4EEA014E10EB0E0041EBA0
:100BD0001141401841F100014FEAD00040EA417054
:100BE0004FEAD1014FEA810444EA907410EB80058A
:100BF00044EB01046D1944EB0404521BA3414FF074
:100C0000000348BF0A3200D530BD401C41F100014D
:100C100030BD2DE9F0470D4699469246044600F155
:100C200024080168880604D5E06921F010012160DC
:100C300000E00120A84201DD471B00E00027A16978
:100C40007A1902EB0900081AA0612078C00602D4C4
:100C50002046FFF7B4FC002608E0D4E901211AF889
:100C600006009047206A401C761C20624E45F4DB4B
:100C70002078C0060AD52046FFF7A1FC06E0D4E99B
:100C8000012130209047206A401C2062381EA7F1C5
:100C90000107F4DC07E0D4E9012118F805009047CA
:100CA000206A401C2062281EA5F10105F3DC2046C5
:100CB000FFF79BFC2078000602D50220BDE8F087F4
:100CC0000120FBE72DE9FF4F0C461E464FF0FF3792
:100CD0008BB0D2E90001DDF860800A908A46C1F34A
:100CE0000A5505B93D46002108464FF00000BAF10B
:100CF000000F00F4400005DA00EB80004FF44001E3
:100D000001EA50004FEA9059B9F1010F00DDB946F0
:100D10000A9850EA4A000ED044F61050A5F2FF356A
:100D200045432F14B8F1000F1ED07542291E1EDD59
:100D3000C9F100021CE0B8F1010F4FF0000001D032
:100D4000302103E0F24305E02154401CB042FBDBBC
:100D500030460022002121540B99C1F80880C1E9D6
:100D600000200FB0BDE8F08FBD1B6D1CDEE74A46CA
:100D700000DA694206A800F0F3FB06AB93E807002F
:100D800003AB83E8070050460A9908F020FF8DE87E
:100D90000700A0F500501F3800900398002D0ADDD1
:100DA00042F21F014A460844002303A90390684603
:100DB00009F08AF909E0A0F500504A461F380023DF
:100DC00003A90390684609F094F98DE80700000430
:100DD000000C03D04FF0FF30410800E01046B8F19E
:100DE000000F03D00022009215461EE0751E05D4A8
:100DF000FFF7CAFE303262556D1EF9D5B3460122A7
:100E0000084302D000227F1C04E02078302801D162
:100E100000227F1E002A099784D01DE0112D07DAD9
:100E2000FFF7B2FE303262556D1C50EA0102F5D177
:100E3000084302D00098C8B10EE00021681E05E00A
:100E4000235C625C63542254401E491C8142F7DBE0
:100E5000AB46A81B401E0990002004F80B000B981D
:100E6000099AC0F80880C0E9002B7AE711264FF0F4
:100E7000000857E72DE9F04F88460446D21D22F0BE
:100E8000070191B0D1E90001CDE90A0109F068FA42
:100E900002460B98C00F01D02D2007E02068810783
:100EA00001D52B2002E0202101EAC000032A09908D
:100EB00001D0072A05DB03464146204600F010FB1F
:100EC0000BE12078800601D5E06900E00620B8F14A
:100ED000650F814606D0B8F1660F18D0B8F1670FDC
:100EE00070D131E00020B9F1110F009001DB112326
:100EF00001E009F101030AAA01A90CA8FFF7E2FE2B
:100F0000DDE90C70002609F10105834647E0012068
:100F10004B4600904FF000470AAA01A90CA8FFF722
:100F2000D1FEDDE90DB00C995D46002610B909F13E
:100F300001000D18B9EB050003D4C0F1FF3609F12B
:100F40000105A5EB09002BE0B9F1010F01DA4FF023
:100F500001090020B9F1110F0090484601DD11236D
:100F600000E003460AAA01A90CA8FFF7ABFEDDE9E1
:100F70000C704D4600268346207800070AD4AB4506
:100F800000DA5D4601A8012D04DD411911F8011CAC
:100F9000302907D04F4502DA17F1040F04DA012097
:100FA00082460FE06D1EEEE7002F02DCED1B3E4493
:100FB00003E0781CA84200DD7D1CB81B00F1010A8B
:100FC0004FF000472078000703D4AA4501DB4FF01B
:100FD000FF3A0021B7F1004F0DF143088DF843109F
:100FE00024D002202B23002F01DA7F422D230A2157
:100FF000021EA0F1010000DC5FB197FBF1FC97FB42
:10100000F1F201FB1C7C17460CF1300C08F801CD05
:10101000EEE7A8F1010003702188090501D54521FB
:1010200000E06521A0F1010800F8011C09980FA952
:10103000A1EB0807FF1D00B10120411901EBEA7087
:10104000A1693844081A401EA0612078C00602D465
:101050002046FFF7B4FA099828B1D4E90121904756
:10106000206A401C20622078C00622D52046FFF767
:10107000A6FA1EE0002E04DBB34502DD01A8805D68
:1010800000E03020D4E901219047206A401C206212
:10109000761CAAF101005FEA000A0AD100F01CFAEE
:1010A000C0680168405CD4E901219047206A401C77
:1010B0002062281EA5F10105DCDC07E0D4E901214E
:1010C00018F8010B9047206A401C2062381EA7F1D7
:1010D0000107F3DC2046FFF788FA032011B041E650
:1010E0002DE9F04F04460D46D21D22F0070089B0CD
:1010F000D0E900974846394609F032F90246F80F20
:1011000001D02D2307E02068810701D52B2302E0C1
:10111000202101EAC0038DF820300BB1012000E04E
:101120000020032A824601D0072A04DB29462046F4
:1011300000F0D6F93FE12078800601D40D2500E0CB
:10114000E569C7F30A560D2D49DA00214FEA175B0E
:1011500008464FF00000002F00F4400007DA00EBD3
:1011600080004FF4400100EBD07001EA600081156F
:10117000012901DD4FF0FF3100224FEA850CBCF15F
:10118000180F06D31346ACF118004FF08052C2403E
:1011900003E04FF4801323FA0CF30CF10C0CBCF1B8
:1011A000200F04D3ACF1200C09FA0CF001E007FA8F
:1011B0000CF000294FF0004801DD18B90FE00ED106
:1011C00040450CD319EB02095F4121B9404502D1DA
:1011D0009F4329EA0209BBEB175F00D0761C2088E9
:1011E000000502D57B48784402E07A4878441938F3
:1011F00008AA302302F80A30037C0AF10101002E0C
:101200000AF1020A53546A4602DC4FF0300101E051
:101210004FF031014FF001088DF8001002D0A6F216
:10122000FF3603E059EA470100D06B4E002D02DC87
:101230002178090704D54FF002082E218DF80110FE
:10124000C44600210BE0C7F303433F01C35C491CC4
:101250006D1E02F80830052908F1010801DA002D99
:10126000F1DC00210CE000EB1973491C1B786D1EAA
:10127000082902F808304FEA091908F1010801DAD3
:10128000002DF0DC21688B0602D516E0A8F10108DC
:10129000E04505DD02EB080313F8013C302BF5D0E7
:1012A000B8F1000F09DD02EB080313F8013C2E2B07
:1012B00003D1090701D4A8F10108002D05DD3E2165
:1012C00002F808106D1E08F10108407C002E02F89B
:1012D000080008F1010804DA2D20764202F808001F
:1012E00002E02B2002F808000A214FF47A708642AF
:1012F00008F101080BDB96FBF0F3303302F80830FD
:1013000096FBF0F308F1010800FB136601E0642E80
:101310000CDB642096FBF0F3303302F8083096FBC8
:10132000F0F308F1010800FB136601E00A2E06DB6A
:1013300096FBF1F0303002F8080008F1010896FB46
:10134000F1F001FB1060303002F80800A16908F1EB
:10135000010808EB050202EB0A00081AA0612078D8
:10136000C00602D42046FFF72AF9216A08AE01EB35
:101370000A00206204E0D4E9012116F8010B90472D
:10138000BAF1010AF7D22078C00602D52046FFF74D
:1013900016F96E4609E016F8010B3E280FD0D4E985
:1013A00001219047206A401C2062B8F10108F2D266
:1013B0002046FFF71AF909B00320BDE8F08F206A34
:1013C0002844206203E0D4E90121302090476D1EBB
:1013D000EBD3F8E7169E000002FCFFFF10B543694F
:1013E00013B1AFF3008001E0FFF722F9012010BD37
:1013F000127800F124010A7000224A700122EDE700
:1014000011684FF0FF32E9E710B5436913B1AFF34C
:10141000008001E0FFF7A4F9012010BD128800F15F
:10142000240182840022C2840122EDE711684FF07A
:10143000FF32E9E72DE9F04116460C46054600F07B
:1014400043F8036893F80101012807D0FF2C12D854
:10145000185D80B101202C70BDE8F081D3F8070140
:101460003246214603F20713C7182846BC46BDE89A
:10147000F041002360474FF0FF30EDE7754600F084
:10148000EBF8AE4605006946534620F00700854656
:1014900018B020B5FEF762FFBDE820404FF000060F
:1014A0004FF000074FF000084FF0000BAC46ACE8DF
:1014B000C009ACE8C009ACE8C009ACE8C00921F03B
:1014C00007018D467047000010B500F005F8001DBB
:1014D00010BD00BFF98E000000487047E8080020EA
:1014E0002DE9F0411F46044603260168072A01F44E
:1014F000006004DB08B116A505E016A503E008B1FD
:1015000015A500E015A521F010002060A069C01EFF
:10151000A0610FB1401EA0612046FFF750F84FB107
:10152000D4E9012138469047206A401C2062C01C43
:10153000206206E0206AFAE7D4E9012115F8010BE0
:101540009047761EF8D22046FFF74FF8BDE8F081AD
:101550004E414E006E616E00494E4600696E660057
:101560002DE9F047814616468AB0354878440DC8C3
:101570008DE80D0032487844801C03AC0DC884E827
:101580000D0041F69B300844372190FBF1F290FBAF
:10159000F1F5A5F1800501FB12041B3C02D5644264
:1015A000012000E00020DFF898A080460027FA44E0
:1015B000AAF1BE0A0EE0E0070AD03246684607EB01
:1015C000470101230AEB810108F093FD8DE8070034
:1015D00064107F1C002CEED1194F7F44AE3F19E000
:1015E000E80715D007EB04100DF1180A90E80E007B
:1015F0008AE80E00C068F04201D19819089032467E
:10160000012306A903A808F074FD03AB83E80700D3
:101610006D10641C002DE3D14FF001033246694682
:10162000B8F1000F03A802D008F04EFD01E008F069
:1016300060FDC9E90001C9F808200AB0BDE8F087DB
:10164000209B000010B50446AFF300802046BDE8A3
:101650001040FEF76EBE000000487047C80800202A
:1016600030B44FF0013C50F8042B51F8043BCCFA55
:1016700052F4D51A20D1FCB950F8042B51F8043B90
:10168000CCFA52F4D51A17D1B4B950F8042B51F84A
:10169000043BCCFA52F4D51A0ED16CB950F8042B95
:1016A00051F8043BCCFA52F4D51A05D1002CDAD00B
:1016B00030BC4FF00000704729BAB1FA81F111F047
:1016C0001801D1F120008440F2D1CA40CB4012F081
:1016D000FF0213F0FF0330BCD01A704701491820F5
:1016E000ABBEFEE72600020070470000FFE7FEE702
:1016F00080B58EB040F69450C2F20000029046F6DB
:101700000001C4F200010160042141600021039145
:101710008160C1604FF4202202614FF4E002426117
:10172000017641768176C1760177417700F086FFB8
:1017300018B1FFE700F008FAFFE704A8019028219C
:10174000FEF713FF01990E20099000220A92012052
:101750000B90049205920692079208920C9040F624
:101760009450C2F2000000F091FB18B1FFE700F0C6
:10177000EBF9FFE70EB080BD80B540F69450C2F2A1
:10178000000000F061FD80BD80B540F69450C2F2CB
:10179000000000F059FD80BD80B540F69450C2F2C3
:1017A000000000F051FD80BD80B540F69450C2F2BB
:1017B000000000F049FD80BD80B540F63410C2F253
:1017C000000090ED000A41F24410C2F2000090EDDA
:1017D000031A30EE410AB2EE041AB4EE410AF1EEF9
:1017E00010FA1FDCFFE740F63410C2F2000090ED63
:1017F000000A41F24410C2F2000090ED031A30EEEC
:10180000410A10EE100A09F01FFB41EC100B51ECDD
:10181000100B9FED270B53EC102B09F063FB08B95D
:10182000FFE742E041F24410C2F20000C06809F054
:101830000BFB41EC100B9FED201B51EC110B53ECFB
:10184000102B09F013FA41EC100B51EC100B9FED2B
:101850001C0B53EC102B08F0B5FE41EC100B51ECB7
:10186000100B9FED190B53EC102B09F001F941EC13
:10187000100B51EC100B9FED160B53EC102B09F0D5
:10188000F7F841EC100B51EC100B09F033F801465E
:1018900040F63010C2F200000160036801204FF4EE
:1018A0009671782205F020FAFFE780BD00BF00BFE7
:1018B00000000000000024C0F7065F984C950CC0A3
:1018C00000000000000071400000004033331E4063
:1018D000000000000000D04041F21410C2F20000ED
:1018E000007808B1FFE706E041F21411C2F20001EE
:1018F00001200870FFE7704780B540F67C60C2F2B7
:10190000000001F0EDFA80BD80B540F6BC50C2F297
:10191000000001F0E5FA80BD80B540F6DC60C2F25F
:10192000000001F0DDFA80BD80B540F61C60C2F217
:10193000000001F0D5FA80BD82B0019001980078D6
:1019400010384AF6AB21CAF6AA21A0FB0110000903
:10195000009000994BF2C000C0F60000405C019975
:10196000C8650098042807D3FFE701990868042296
:1019700062F30900886506E00199086840F2FF32C9
:1019800090438865FFE70198806D02B070470000C2
:1019900086B0059000208DF813000598806A0390AA
:1019A0000598806910BBFFE70398029003281BD8B5
:1019B0000299DFE801F0020D0218059890F82F0057
:1019C000C00720B1FFE701208DF81300FFE70CE00E
:1019D0000598C06AB0F1C07F04D1FFE701208DF8FF
:1019E0001300FFE701E000E0FFE745E005988069AC
:1019F000B0F5005F25D1FFE70398019003281ED8BA
:101A00000199DFE801F00206021101208DF81300B0
:101A100016E0059890F82F00C00720B1FFE70120DD
:101A20008DF81300FFE70BE00598C06AB0F1C07FA6
:101A300004D1FFE701208DF81300FFE700E0FFE786
:101A400019E003980090032804D3FFE700980328C7
:101A500004D00EE001208DF813000BE0059890F8FB
:101A60002F00C00720B1FFE701208DF81300FFE72A
:101A700000E0FFE7FFE7FFE79DF8130006B07047BF
:101A800080B586B0FFE70020059043F63000C4F231
:101A90000200016841F480010160006800F48000E8
:101AA00005900598FFE73920009000220392114627
:101AB00002F02CFA009802F01FFA039A3A200190E3
:101AC000114602F023FA019802F016FA039A452013
:101AD0000290114602F01AFA029802F00DFA039AE7
:101AE00046200490114602F011FA049802F004FA1C
:101AF00006B080BD84B003900291019200930398D8
:101B00000168086820F4802008600098039909683B
:101B1000486003988068402809D1FFE7019803993D
:101B200009688860029803990968C86008E002980B
:101B3000039909688860019803990968C860FFE7FC
:101B400004B070477047000072B6FFE7FEE7000080
:101B500080B592B00020119010900F900E900D90D3
:101B6000FFE700200C9043F63000C4F20200016849
:101B700041F040010160006800F040000C900C98BA
:101B8000FFE7FFE700200B9043F63000C4F20200AD
:101B9000016841F002010160006800F002000B9052
:101BA0000B98FFE7FFE700200A9043F63000C4F2ED
:101BB0000200016841F480710160006800F48070E7
:101BC0000A900A98FFE7FFE70020099043F63000EB
:101BD000C4F20200016841F020010160006800F0D9
:101BE000200009900998FFE7FFE70020089043F6DE
:101BF0003000C4F20200016841F001010160006898
:101C000000F0010008900898FFE7FFE70020079028
:101C100043F63000C4F20200016841F08001016027
:101C2000006800F0800007900798FFE7FFE70020BA
:101C3000069043F63000C4F20200016841F004014E
:101C40000160006800F0040006900698FFE7FFE7D7
:101C50000020059043F63000C4F20200016841F014
:101C600010010160006800F0100005900598FFE782
:101C700040F20040C4F2020001904FF47041009124
:101C80000022039201F0ECFD0398012102910D91D5
:101C90000E900F900020C4F202000DA9049101F0F3
:101CA000EBFBDDF800C00198029B039A0499CDF884
:101CB00034C00E930F92109201F0DEFB029A03984B
:101CC00004994FF428530D930E920F90109041F207
:101CD0000000C4F2020001F0CFFB12B080BD000092
:101CE00084B002900191029890F820008DF80300D2
:101CF0009DF80300012805D0FFE79DF803000228A6
:101D00000AD1FFE7019A02980168486910434861C7
:101D100000208DF80F0008E00299486A40F4802006
:101D2000486201208DF80F00FFE79DF80F0004B016
:101D30007047000088B006900591049203930698BE
:101D400090F820008DF807000698006880680090E1
:101D50000598806808B9FFE700E0FFE79DF80700F5
:101D6000012806D0FFE79DF80700022840F0808098
:101D7000FFE79DF80300400700280CD4FFE79DF81B
:101D800003000007002806D4FFE79DF80300C00603
:101D9000002864D5FFE70098C0F301600290029923
:101DA00001208840039908600598806868B9FFE7BA
:101DB00005980168C06840EA415006990968029A8E
:101DC00001EB0211C1F880010EE005994A688868AC
:101DD000C96840EAC200084306990968029A01EB03
:101DE0000211C1F88001FFE70598006906990968AA
:101DF000029A01EB0211C1F884010598007D0128C7
:101E00000CD1FFE706980068029900EB0111D1F8A8
:101E1000840140F48070C1F88401FFE704984068B1
:101E200006990968029A01EB0211C1F88C01049825
:101E3000006806990968029A01EB0211C1F888014D
:101E400006980068029900EB0111D1F8800140F07A
:101E50000100C1F8800100208DF81F0011E00699F3
:101E6000486A40F40010486201208DF81F0008E025
:101E70000699486A40F48020486201208DF81F00CE
:101E8000FFE79DF81F0008B07047000086B004907F
:101E90000391049890F820008DF803009DF803004A
:101EA000012806D0FFE79DF80300022840F0B0802B
:101EB000FFE746F20040C4F2000001900199D1F81A
:101EC000000240F00100C1F800020199D1F80002BF
:101ED00020F47C50C1F800020398426A0199D1F8BD
:101EE000000240EA0220C1F800020398406900F0B5
:101EF0001F01012088400290029A0199D1F81C022A
:101F00009043C1F81C020398C069F0B9FFE7029A38
:101F10000199D1F80C029043C1F80C02039A908801
:101F2000D168526940EA0140019901EBC201C1F850
:101F30004002039A10889168526940EA0140019971
:101F400001EBC201C1F84402FFE70398C069012810
:101F50001ED1FFE7029A0199D1F80C021043C1F893
:101F60000C02039A90881168526940EA0140019975
:101F700001EBC201C1F84002039A9089916852694D
:101F800040EA0140019901EBC201C1F84402FFE7B8
:101F90000398806940B9FFE7029A0199D1F80402D9
:101FA0009043C1F8040207E0029A0199D1F80402B3
:101FB0001043C1F80402FFE70398006940B9FFE746
:101FC000029A0199D1F814029043C1F8140207E073
:101FD000029A0199D1F814021043C1F81402FFE7E4
:101FE0000398006A012808D1FFE7029A0199D1F805
:101FF0001C021043C1F81C02FFE70199D1F800024E
:1020000020F00100C1F8000200208DF8170008E060
:102010000499486A40F48020486201208DF8170036
:10202000FFE79DF8170006B07047000081B00090F0
:1020300001B0704786B00490039102920193049816
:1020400090F820008DF803009DF80300012806D0C9
:10205000FFE79DF80300022840F0E880FFE70398BF
:1020600080B9FFE704980068C068800748B9FFE7B7
:102070000499486A40F40010486201208DF8170066
:10208000DDE00FE0049800680069800748B9FFE7C9
:102090000499486A40F40010486201208DF8170046
:1020A000CDE0FFE704980068039900EB0110D0F839
:1020B000B00100F00400029988600298806858B965
:1020C000FFE704980068039900EB0110D0F8B00115
:1020D000400D029908600AE004980068039900EB3B
:1020E0000110D0F8B001C00802994860FFE70498D9
:1020F0000068039900EB0110D0F8B00100F0020075
:102100000299C86004980068039900EB0110D0F8A8
:10211000B40100F00F00082804D3FFE7029908205B
:1021200008610BE004980068039900EB0110D0F8F7
:10213000B40100F00F0002990861FFE704980068FD
:10214000039900EB0110D0F8B40180B2000A0299A3
:10215000886104980068039900EB0110D0F8B4017D
:10216000000C0299486104980068039900EB011083
:10217000D0F8B8010199087004980068039900EB41
:102180000110D0F8B801000A01994870049800685D
:10219000039900EB0110D0F8B801000C0199887088
:1021A00004980068039900EB0110D0F8B801000E04
:1021B0000199C87004980068039900EB0110D0F8E9
:1021C000BC010199087104980068039900EB0110A3
:1021D000D0F8BC01000A019948710498006803997D
:1021E00000EB0110D0F8BC01000C01998871049833
:1021F0000068039900EB0110D0F8BC01000E0199B2
:10220000C871039838B9FFE704980168C86840F0BE
:102210002000C86006E004980168086940F02000CA
:102220000861FFE700208DF8170008E00499486A6C
:1022300040F48020486201208DF81700FFE79DF8E8
:10224000170006B07047000080B58AB009900020E2
:1022500008900998006840690790099800684068EC
:102260000690099800688068059009980068C06821
:1022700004900998006800690390099800688069D3
:1022800002909DF81C00C007002800F09480FFE732
:102290009DF81400C00758B3FFE7099801680120B2
:1022A00088609DF814008007002804D5FFE709988E
:1022B00000F066FD1BE09DF814004007002805D5DE
:1022C000FFE7089840F4006008900FE09DF81400C4
:1022D0000007002805D5FFE7089840F480500890D3
:1022E00003E0099800F048FDFFE7FFE7FFE7FFE79D
:1022F0009DF81500C00760B3FFE7099801684FF427
:10230000807088609DF815008007002804D5FFE7DD
:10231000099800F03DFD1BE09DF8150040070028DE
:1023200005D5FFE7089840F4005008900FE09DF8AD
:1023300015000007002805D5FFE7089840F4804005
:10234000089003E0099800F01FFDFFE7FFE7FFE7B3
:10235000FFE79DF81600C00760B3FFE70998016822
:102360004FF4803088609DF816008007002804D55F
:10237000FFE7099800F014FD1BE09DF816004007E8
:10238000002805D5FFE7089840F4004008900FE0CA
:102390009DF816000007002805D5FFE7089840F4CF
:1023A0008030089003E0099800F0F6FCFFE7FFE7B3
:1023B000FFE7FFE7FFE79DF81C000007002810D5A6
:1023C000FFE79DF81000C006002809D5FFE7089830
:1023D00040F400700890099801681020C860FFE779
:1023E000FFE79DF81C00400700280FD5FFE79DF888
:1023F00010000007002808D5FFE7099801680820A9
:10240000C860099800F08AFAFFE7FFE79DF81C0012
:10241000800700280BD5FFE709980068C06880078F
:1024200020B1FFE7099800F07DFAFFE7FFE79DF88C
:102430001C004006002810D5FFE79DF80C00C006E0
:10244000002809D5FFE7089840F4806008900998B3
:10245000016810200861FFE7FFE79DF81C00800677
:1024600000280FD5FFE79DF80C000007002808D5CD
:10247000FFE70998016808200861099800F02AFC24
:10248000FFE7FFE79DF81C00C00600280BD5FFE71B
:10249000099800680069800720B1FFE7099800F0FB
:1024A0001DFCFFE7FFE79DF81E00800700280FD501
:1024B000FFE79DF81800C006002808D5FFE7099837
:1024C000016810204860099800F00CFCFFE7FFE766
:1024D0009DF81E00C00778B1FFE79DF818000007BF
:1024E000002808D5FFE70998016808204860099886
:1024F00000F05AFCFFE7FFE79DF81D0000060028EA
:1025000040F18D80FFE79DF818004007002840F15A
:102510008180FFE79DF81D00C00750B1FFE79DF8DF
:102520000800C00728B1FFE7089840F001000890B4
:10253000FFE79DF81D00800700280BD5FFE79DF8F9
:1025400008008007002805D5FFE7089840F0020042
:102550000890FFE79DF81D00400700280BD5FFE716
:102560009DF808004007002805D5FFE7089840F0CF
:1025700004000890FFE79DF81D000007002848D5DB
:10258000FFE79DF8080010F0700F42D0FFE70298B7
:1025900000F0700001460191102814D0FFE7019867
:1025A000202815D0FFE70198302816D0FFE70198C2
:1025B000402817D0FFE70198502818D0FFE701986E
:1025C000602819D01DE0089840F00800089019E034
:1025D000089840F01000089014E0089840F020009F
:1025E00008900FE0089840F0400008900AE0089832
:1025F00040F08000089005E0089840F48070089052
:1026000000E0FFE709980168886920F070008861A0
:10261000FFE7FFE70998016804204860FFE7089892
:1026200048B1FFE7089A0999486A10434862099837
:10263000FFF7FCFCFFE70AB080BD000080B584B066
:102640000290029820B9FFE701208DF80F00E0E02A
:10265000029890F8200020B9FFE7029800F0DEF819
:10266000FFE702980168086840F00100086001F087
:102670000FF90190FFE7029800684068C007A8B909
:10268000FFE701F005F90199401A0B280DD3FFE788
:102690000299486A40F4003048620299052081F8A6
:1026A000200001208DF80F00B3E0E4E702980168F4
:1026B000086820F00200086001F0EAF80190FFE7E6
:1026C0000298006840688007002815D5FFE701F0F0
:1026D000DFF80199401A0B280DD3FFE70299486AE9
:1026E00040F4003048620299052081F82000012062
:1026F0008DF80F008DE0E3E70298007E012807D1F6
:10270000FFE702980168086840F08000086006E072
:1027100002980168086820F080000860FFE70298CE
:10272000407E012807D1FFE702980168086840F061
:102730004000086006E002980168086820F0400048
:102740000860FFE70298807E012807D1FFE7029822
:102750000168086840F02000086006E002980168FF
:10276000086820F020000860FFE70298C07E01287A
:1027700007D1FFE702980168086820F010000860A0
:1027800006E002980168086840F010000860FFE762
:102790000298007F012807D1FFE7029801680868C6
:1027A00040F00800086006E002980168086820F020
:1027B00008000860FFE70298407F012807D1FFE783
:1027C00002980168086840F00400086006E002987A
:1027D0000168086820F004000860FFE7029B1968A0
:1027E0005A689868D3F80CC040EA0C00D3F810C0BF
:1027F00040EA0C005B691843013A1043C861029932
:1028000000204862029A012182F820108DF80F0002
:10281000FFE79DF80F0004B080BD000080B590B0C8
:102820000F9000200E900D900C900B900A900F9836
:10283000006846F60001C4F2000188426BD1FFE750
:10284000FFE70020099043F64000C4F2020001684F
:1028500041F080610160006800F080600990099893
:10286000FFE7FFE70020089043F64000C4F20200B3
:10287000016841F000710160006800F0007008908C
:102880000898FFE7FFE70020079043F63000C4F206
:102890000200016841F002010160006800F00200DE
:1028A00007900798FFE760200A90022004900B90A1
:1028B000002005900C9003200D9009200E9040F20E
:1028C0000040C4F202000AA900F0D6FD0499059A5E
:1028D0003F20019001F01AFB019801F00DFB059AD1
:1028E00040200290114601F011FB029801F004FB18
:1028F000059A41200390114601F008FB039801F06E
:10290000FBFA0499059A4220069001F0FFFA069816
:1029100001F0F2FAFFE710B080BD000081B0009036
:1029200001B0704780B5A2B02190219800211AAA69
:1029300018ABFFF77FFB08B1FFE7C9E11A98012840
:1029400058D1FFE71E98082854D1FFE79DF8600092
:1029500031284ED1FFE71A988DF85F0000201690BD
:10296000FFE7169806280DDCFFE7169918A8415CCA
:102970009DF85F0008448DF85F00FFE7169801306E
:102980001690EEE79DF85F009DF86710884201D031
:10299000FFE79DE10020159014901390FFE7139836
:1029A000052812DCFFE7149A1598000240EA12612C
:1029B000139818AB1844407840EA022015911490FF
:1029C000FFE7139801301390E9E79DF855000006E2
:1029D000002805D5FFE71598CFF6FF701590FFE7A3
:1029E0001498159A40F63811C2F200014A60086046
:1029F000FFE7FFE71A98022858D1FFE71E9808283A
:102A000054D1FFE79DF8600031284ED1FFE71A98B6
:102A10008DF84B0000201190FFE7119806280DDC7F
:102A2000FFE7119918A8415C9DF84B0008448DF808
:102A30004B00FFE7119801301190EEE79DF84B0035
:102A40009DF86710884201D0FFE741E100200F9018
:102A50000E900D90FFE70D98052812DCFFE70E9A07
:102A60000F98000240EA12610D9818AB18444078A4
:102A700040EA02200F910E90FFE70D9801300D9073
:102A8000E9E79DF83D000006002805D5FFE70F980F
:102A9000CFF6FF700F90FFE70E980F9A40F648119F
:102AA000C2F200014A600860FFE7FFE71A980128B8
:102AB0003CD1FFE71E98042838D1FFE79DF860005D
:102AC000322832D1FFE71A988DF8330000200B909E
:102AD000FFE70B9802280DDCFFE70B9918A8415C73
:102AE0009DF8330008448DF83300FFE70B98013060
:102AF0000B90EEE79DF833009DF86310884201D0FB
:102B0000FFE7E5E00020ADF82A009DF861109DF890
:102B1000620040EA0120ADF82A00BDF82A0040F624
:102B20003811C2F200010881FFE7FFE71A98022876
:102B30003CD1FFE71E98042838D1FFE79DF86000DC
:102B4000322832D1FFE71A988DF829000020099029
:102B5000FFE7099802280DDCFFE7099918A8415CF6
:102B60009DF8290008448DF82900FFE709980130F5
:102B70000990EEE79DF829009DF86310884201D086
:102B8000FFE7A5E00020ADF822009DF861109DF858
:102B9000620040EA0120ADF82200BDF8220040F6B4
:102BA0004811C2F200010881FFE7FFE71A980128E7
:102BB00045D1FFE71E98062841D1FFE79DF8600048
:102BC00033283BD1FFE71A988DF8210000200790A9
:102BD000FFE7079804280DDCFFE7079918A8415C78
:102BE0009DF8210008448DF82100FFE70798013087
:102BF0000790EEE79DF821009DF86510884201D00E
:102C0000FFE765E0002006900590FFE705980328A0
:102C10000DDCFFE70699059818AA1044407840EAB1
:102C200001200690FFE7059801300590EEE7069831
:102C300040F63811C2F20001C860FFE7FFE71A98BA
:102C4000022845D1FFE71E98062841D1FFE79DF8ED
:102C5000600033283BD1FFE71A988DF8130000205D
:102C60000390FFE7039804280DDCFFE7039918A8F9
:102C7000415C9DF8130008448DF81300FFE70398AA
:102C800001300390EEE79DF813009DF8651088422F
:102C900001D0FFE71CE0002002900190FFE70198BF
:102CA00003280DDCFFE70299019818AA1044407828
:102CB00040EA01200290FFE7019801300190EEE721
:102CC000029840F64811C2F20001C860FFE7FFE732
:102CD00022B080BD81B0009001B0704781B00090FB
:102CE00001B0704781B0009001B0704780B584B0EA
:102CF0000290029890F8200001282FD1FFE7029956
:102D0000022081F8200002980168086820F0010084
:102D1000086000F0BDFD0190FFE702980068406880
:102D2000C007A8B1FFE700F0B3FD0199401A0B28D6
:102D30000DD3FFE70299486A40F4003048620299D7
:102D4000052081F8200001208DF80F000FE0E4E756
:102D50000299002048628DF80F0008E00299486A45
:102D600040F40020486201208DF80F00FFE79DF835
:102D70000F0004B080BD000081B0009001B070472A
:102D800081B0009001B0704781B0009001B07047F1
:102D900081B0009001B0704781B0009001B07047E1
:102DA00081B0009001B0704781B0009001B07047D1
:102DB00080B584B002900298806D019000F068FDAB
:102DC0000090029890F8350002280DD0FFE7029994
:102DD00080204865FFE70299002081F83400FFE772
:102DE00001208DF80F0055E002980168086820F076
:102DF0001600086002980168486920F08000486168
:102E00000298006C20B9FFE70298806C38B1FFE7A8
:102E100002980168086820F008000860FFE702983F
:102E20000168086820F001000860FFE70298006868
:102E30000068C007C8B1FFE700F02AFD0099401AFA
:102E4000062811D3FFE70299202048650299032044
:102E500081F83500FFE70299002081F83400FFE790
:102E600003208DF80F0015E0E0E70298C16D3F20C8
:102E70008840019988600299012081F83500FFE7B8
:102E80000299002081F83400FFE7FFE700208DF869
:102E90000F00FFE79DF80F0004B080BD82B00090E6
:102EA000009890F83500022807D0FFE700998020AD
:102EB000486501208DF807000EE00099052081F893
:102EC000350000980168086820F001000860FFE7FD
:102ED00000208DF80700FFE79DF8070002B070475B
:102EE00080B586B005900020039040F61C00C2F229
:102EF0000000006848F2B511C1F64E31A0FB011088
:102F0000800A02900598806D0190019800680490F5
:102F100004980599C96DC840000700281AD5FFE735
:102F20000598006800684007002812D5FFE705985B
:102F30000168086820F0040008600598C16D082049
:102F40008840019988600599486D40F00100486506
:102F5000FFE7FFE704980599C96DC840C007A0B115
:102F6000FFE7059800684069000600280CD5FFE7D8
:102F70000598C16D01208840019988600599486DC8
:102F800040F002004865FFE7FFE704980599C96D26
:102F9000C8404007002814D5FFE70598006800687E
:102FA000800700280CD5FFE70598C16D04208840F4
:102FB000019988600599486D40F004004865FFE775
:102FC000FFE704980599C96DC840C006002847D599
:102FD000FFE7059800680068000700283FD5FFE775
:102FE0000598C16D10208840019988600598006897
:102FF0000068400300281AD5FFE7059800680068BC
:103000000003002809D4FFE70598006C20B1FFE712
:103010000598016C8847FFE708E00598806C20B1AF
:10302000FFE70598816C8847FFE7FFE716E0059802
:1030300000680068C005002807D4FFE7059801680C
:10304000086820F008000860FFE70598006C20B1D0
:10305000FFE70598016C8847FFE7FFE7FFE7FFE719
:1030600004980599C96DC8408006002840F18D80FC
:10307000FFE7059800680068C006002840F18480DA
:10308000FFE70598C16D2020884001998860059868
:1030900090F83500052834D1FFE7059801680868E5
:1030A00020F01600086005980168486920F080004B
:1030B00048610598006C20B9FFE70598806C38B12D
:1030C000FFE705980168086820F008000860FFE73E
:1030D0000598C16D3F2088400199886005990120BD
:1030E00081F83500FFE70599002081F83400FFE7FB
:1030F0000598006D20B1FFE70598016D8847FFE74F
:103100007BE0059800680068400300281AD5FFE7B7
:103110000598006800680003002809D4FFE70598B7
:10312000406C20B1FFE70598416C8847FFE708E055
:103130000598C06B20B1FFE70598C16B8847FFE792
:10314000FFE720E0059800680068C005002811D45A
:10315000FFE705980168086820F0100008600599ED
:10316000012081F83500FFE70599002081F834003F
:10317000FFE7FFE70598C06B20B1FFE70598C16B3B
:103180008847FFE7FFE7FFE7FFE70598406DA0B33B
:10319000FFE70598406DC00730B3FFE705990520AC
:1031A00081F8350005980168086820F00100086082
:1031B000FFE70398013003900299884201D9FFE7A5
:1031C00007E0FFE7059800680068C0070028F0D115
:1031D000FFE70599012081F83500FFE705990020F8
:1031E00081F83400FFE7FFE70598C06C20B1FFE7E6
:1031F0000598C16C8847FFE7FFE706B080BD000077
:1032000080B586B004900020039000F041FB02904E
:10321000049820B9FFE701208DF81700A3E0049877
:10322000406A08B1FFE7FFE70499022081F8350002
:10323000FFE70499002081F83400FFE70498016853
:10324000086820F001000860FFE704980068006843
:10325000C00790B1FFE700F01BFB0299401A062857
:103260000AD3FFE70499202048650499032081F8D8
:1032700035008DF8170076E0E7E7049800680068ED
:103280000390039848F23F01CFF2100108400390E9
:10329000049900914868D1F808C0CB680A6940EAEF
:1032A0000C00184310434A6910438A691043CA69E5
:1032B0001043096A01430398084303900498406A45
:1032C000042808D1FFE70499C86A096B01430398F1
:1032D00008430390FFE7039804990968086004987D
:1032E000006840690390039820F007000390049859
:1032F000416A0398084303900498406A04281AD14D
:10330000FFE70498816A0398084303900498C06A11
:1033100080B1FFE70498FEF73BFB50B1FFE704994B
:10332000402048650499012081F835008DF8170088
:1033300019E0FFE7FFE703980499096848610498DA
:10334000FEF7FAFA01900498C16D3F208840019978
:103350008860049900204865049A012182F835109C
:103360008DF81700FFE79DF8170006B080BD00003C
:1033700080B588B0069005910492039300208DF8E3
:103380000B000698806D0190FFE7069890F83400D6
:10339000012804D1FFE702208DF81F0045E00699BF
:1033A000012081F83400FFE7FFE7069890F8350028
:1033B00001282BD1FFE70699022081F835000699F4
:1033C0000020486506980599049A039BFEF792FB36
:1033D0000698C16D3F208840019988600698016871
:1033E000086840F0160008600698006C38B1FFE7E6
:1033F00006980168086840F008000860FFE7069832
:103400000168086840F00100086009E0FFE70699DC
:10341000002081F83400FFE702208DF80B00FFE761
:103420009DF80B008DF81F00FFE79DF81F0008B006
:1034300080BD000080B584B0039000F029FA0290AE
:10344000039801900198013048B1FFE740F6BC00B5
:10345000C2F200000178019808440190FFE7FFE7FD
:1034600000F016FA0299401A0199884201D2FFE74A
:10347000F6E704B080BD00008EB00D900C910020E6
:103480000A90099008900B90FFE70B980F2800F224
:10349000CC81FFE70B99012088400A900C980068C6
:1034A0000A990840099009980A99884240F0B88121
:1034B000FFE70C98406800F00300012807D0FFE701
:1034C0000C98406800F0030002282FD1FFE70D9808
:1034D000806808900B984100032000FA01F10898D9
:1034E000884308900C98C0680B99490000FA01F1D4
:1034F00008980843089008980D9988600D984068CE
:1035000008900B99012000FA01F10898884308906F
:103510000C984068C0F300100B9900FA01F108986C
:103520000843089008980D994860FFE70C98406898
:1035300000F00300032818D0FFE70D98C06808903A
:103540000B984100032000FA01F108988843089085
:103550000C9880680B99490000FA01F1089808431B
:10356000089008980D99C860FFE70C98406800F033
:103570000300022826D1FFE70D980B996FF0030294
:1035800002EA51010844006A08900B9800F0070015
:1035900081000F2000FA01F10898884308900C98E8
:1035A00000690B9901F00701890000FA01F1089800
:1035B0000843089008980D990B9B02EA53021144A6
:1035C0000862FFE70D98006808900B9841000320FF
:1035D00000FA01F10898884308900C98406800F0C0
:1035E00003000B99490000FA01F10898084308907C
:1035F00008980D9908600C9880798007002800F0E1
:103600000E81FFE7FFE70020079043F64400C4F275
:103610000200016841F480410160006800F48040CC
:1036200007900798FFE70B9820F0030043F6080186
:10363000C4F20101405808900B9800F0030081008B
:103640000F2000FA01F10898884308900D98002196
:10365000C4F20201884203D1FFE7002006905EE039
:103660000D9840F20041C4F20201884203D1FFE705
:103670000120059050E00D9840F60001C4F20201CF
:10368000884203D1FFE70220049042E00D9840F603
:103690000041C4F20201884203D1FFE703200390F6
:1036A00034E00D9841F20001C4F20201884203D1D6
:1036B000FFE70420029026E00D9841F20041C4F299
:1036C0000201884203D1FFE70520019018E00D9820
:1036D00041F60001C4F20201884203D1FFE706204F
:1036E00000900AE00D9941F60042C4F2020208205F
:1036F000914208BF07200090FFE700980190FFE784
:1037000001980290FFE702980390FFE70398049066
:10371000FFE704980590FFE705980690FFE70698F5
:10372000C0B20B9901F00301890000FA01F1089879
:103730000843089008980B9921F0030143F608020A
:10374000C4F20102885043F60840C4F20100006848
:10375000089009990898884308900C988079C006C9
:10376000002805D5FFE70999089808430890FFE766
:10377000089843F60841C4F20101086043F60C4082
:10378000C4F20100006808900999089888430890DD
:103790000C9880798006002805D5FFE709990898DC
:1037A00008430890FFE7089843F60C41C4F2010172
:1037B000086043F60440C4F20100006808900999CB
:1037C0000898884308900C9880798007002805D5D0
:1037D000FFE70999089808430890FFE7089843F61F
:1037E0000441C4F20101086043F60040C4F2010044
:1037F0000068089009990898884308900C98807987
:10380000C00728B1FFE70999089808430890FFE727
:10381000089843F60041C4F201010860FFE7FFE7A2
:10382000FFE70B9801300B902FE60EB070470000B9
:1038300082B00190ADF8021001980069BDF8021045
:10384000084204D0FFE701208DF8010003E00020CA
:103850008DF80100FFE79DF8010002B070470000FD
:1038600082B00190ADF802108DF801209DF80100A2
:1038700028B1FFE7BDF802000199886105E0BDF8B5
:103880000200000401998861FFE702B07047000060
:1038900041F27C20C2F200000068704780B58EB013
:1038A0000C900C9820B9FFE701208DF8370043E118
:1038B0000C9890F83D0040B9FFE70C99002081F882
:1038C0003C000C9800F046FAFFE70C99242081F8A0
:1038D0003D000C980168086820F0010008600C9811
:1038E0000168086840F4004008600C9801680868A6
:1038F00020F40040086000F063FC0A900C984068D7
:1039000048F2A061C0F2010188420BD8FFE70A9992
:1039100048F28042C0F21E020020914238BF0120CE
:1039200009900AE00A9940F60012C0F23D02002018
:10393000914238BF01200990FFE70998012804D17E
:10394000FFE701208DF83700F6E00A984DF6836115
:10395000C4F21B31A0FB0110800C0B900C98006886
:10396000406820F03F000B9908430C9909684860B3
:103970000C980068006A20F03F0008900C9840689E
:1039800048F2A061C0F20101884204D8FFE70B9819
:10399000013007900EE00B984FF49671484344F6BF
:1039A000D351C1F26201A0FB0101012000EB911093
:1039B0000790FFE70898079908430C99096808627F
:1039C0000C980068C0694CF6FF71884306900C980B
:1039D000406848F2A061C0F2010188421FD8FFE7A9
:1039E0000A9801380C9949684900B0FBF1F00130A0
:1039F0006FF31F30032803D8FFE7042005900BE086
:103A00000A9801380C9949684900B0FBF1F001307F
:103A10006FF31F300590FFE7059804904CE00C9879
:103A2000806868B9FFE70A9801380C99496801EB8A
:103A30004101B0FBF1F001306FF31F3003900DE056
:103A40000A9801380C99496819225143B0FBF1F0EA
:103A50000130042161F31F300390FFE70398000554
:103A600018B9FFE70120029023E00C98806868B93C
:103A7000FFE70A9801380C99496801EB4101B0FB56
:103A8000F1F001306FF31F3001900DE00A9801381A
:103A90000C99496819225143B0FBF1F0013004211F
:103AA00061F31F300190FFE7019840F4004002905D
:103AB000FFE702980490FFE70698049908430C99E1
:103AC0000968C8610C980068006820F0C0000C9B71
:103AD0001968DA691B6A1A43104308600C98006879
:103AE000806848F2FF3188430C9A1168D3681269E4
:103AF0001A43104388600C980068C06820F0FF00EB
:103B00000C9B19685A699B691A431043C8600C984A
:103B10000168086840F0010008600C990020086402
:103B20000C9A202182F83D100C9908630C9981F8B9
:103B30003E008DF83700FFE79DF837000EB080BDDE
:103B400010B588B084460C980B98DDF828E0CDF8C5
:103B500018C0ADF81610ADF81420ADF81230ADF85D
:103B60001000FFF795FE0390069890F83D0020287E
:103B700040F0E880FFE7069803996A461160022149
:103B8000C0F210010122192302F00AFD20B1FFE763
:103B900002208DF81F00D9E0FFE7069890F83C005E
:103BA000012804D1FFE702208DF81F00CEE006991E
:103BB000012081F83C00FFE7FFE7069800680068F5
:103BC00000F00100012807D0FFE7069801680868A7
:103BD00040F001000860FFE706980168086820F4DB
:103BE000006008600699212081F83D000699402078
:103BF00081F83E000699002008640A9806994862F8
:103C0000BDF81000069948850698408D06990885EC
:103C100006990020CFF6FF70C8620698BDF816100E
:103C2000BDF81420BDF81230DDF830C0039CEE461C
:103C3000CEF80440CEF800C002F0BEFB20B1FFE792
:103C400001208DF81F0081E0FFE70698008D002815
:103C500049D0FFE706980C99039A02F0CFFD80B196
:103C6000FFE70698006C042807D1FFE70698016873
:103C7000086840F400700860FFE701208DF81F001D
:103C800064E006980168406A007808610699486A0D
:103C9000013048620699088D013808850699488DDB
:103CA0000138488506980068406900F00401012049
:103CB000B0EB910F16D1FFE70698008D90B1FFE7AA
:103CC00006980168406A007808610699486A0130E0
:103CD00048620699088D013808850699488D013893
:103CE0004885FFE7B1E706980C99039A02F002FCB9
:103CF00080B1FFE70698006C042807D1FFE706981B
:103D00000168086840F400700860FFE701208DF842
:103D10001F001BE006980168086840F40070086006
:103D20000699202081F83D000699002081F83E0088
:103D3000FFE70699002081F83C00FFE700208DF89E
:103D40001F0003E002208DF81F00FFE79DF81F0011
:103D500008B010BD80B588B007900020069005908F
:103D60000490039002900798006845F60001C4F2A1
:103D70000001884233D1FFE7FFE70020019043F6BE
:103D80003000C4F20200016841F0200101600068C7
:103D900000F0200001900198FFE70320029012201C
:103DA00003900120049005900420069041F2004009
:103DB000C4F2020002A9FFF75FFBFFE700200090BA
:103DC00043F64000C4F20200016841F48001016042
:103DD000006800F4800000900098FFE7FFE708B05B
:103DE00080BD000040F6BC00C2F20000027841F243
:103DF0007C21C2F20001086810440860704700008E
:103E000080B582B043F60041C4F20201086840F474
:103E100000700860086840F480600860086840F43A
:103E200080700860032000F08BF80020019000F003
:103E300005F800F03BF8019802B080BD80B582B073
:103E4000009040F61C00C2F20000006840F6BC0181
:103E5000C2F200010A784FF47A71B1FBF2F1B0FBC3
:103E6000F1F000F0A5FD20B1FFE701208DF807007B
:103E700018E000980F280DD8FFE700994FF0FF30A9
:103E8000002200F043F8009840F6C001C2F20001A1
:103E9000086003E001208DF8070003E000208DF8A2
:103EA0000700FFE79DF8070002B080BD82B0FFE782
:103EB0000020019043F64400C4F20200016841F47E
:103EC00080410160006800F4804001900198FFE7A4
:103ED000FFE70020009043F64000C4F202000168B2
:103EE00041F080510160006800F08050009000981F
:103EF000FFE702B07047000080B582B08DF8070080
:103F00009DF9070005F038F902B080BD80B586B094
:103F10008DF81700049103920020029005F044F9F7
:103F200002909DF91700019002980499039A03F0FA
:103F300013F80146019805F03FF906B080BD000076
:103F400080B582B00190019805F058F902B080BDAB
:103F500080B584B002900191029820B9FFE701205A
:103F60008DF80F0021E1019843F60041C4F20201EF
:103F7000096801F00701884212D9FFE7019943F669
:103F80000040C4F202000170006800F007000199CF
:103F9000884204D0FFE701208DF80F0005E1FFE71C
:103FA00002980078800700282AD5FFE70298007859
:103FB0004007002809D5FFE743F60801C4F20201D3
:103FC000086840F4E0500860FFE7029800780007B6
:103FD000002809D5FFE743F60801C4F2020108688A
:103FE00040F460400860FFE743F60801C4F20201B4
:103FF000086820F0F000029A926810430860FFE71A
:1040000002980078C00700286ED0FFE70298406849
:10401000012811D1FFE743F60000C4F20200006856
:1040200000F400310020B0EB514F04D1FFE7012034
:104030008DF80F00B9E02CE002984068022805D006
:10404000FFE702984068032811D1FFE743F600001C
:10405000C4F20200006800F000710020B0EB516F64
:1040600004D1FFE701208DF80F009EE010E043F639
:104070000000C4F20200006800F002010020B0EB72
:10408000510F04D1FFE701208DF80F008DE0FFE70D
:10409000FFE743F60801C4F20201086820F00300BC
:1040A000029A526810430860FFF7F2FB0090FFE7A6
:1040B00043F60800C4F20200006800F00C00029908
:1040C0004968B0EB810F0ED0FFE7FFF7E1FB0099E5
:1040D000401A41F28931884204D3FFE703208DF86A
:1040E0000F0062E0E4E7FFE7019843F60041C4F205
:1040F0000201096801F00701884212D2FFE7019925
:1041000043F60040C4F202000170006800F00700AE
:104110000199884204D0FFE701208DF80F0044E0A8
:10412000FFE702980078400700280CD5FFE743F628
:104130000801C4F20201086820F4E050029AD26833
:1041400010430860FFE702980078000700280DD5AB
:10415000FFE743F60801C4F20201086820F460405A
:10416000029A126940EAC2000860FFE700F04CF8CA
:1041700043F60801C4F202010968C9B20A094BF208
:10418000A801C0F60001895CC84040F61C01C2F2DB
:104190000001086040F6C000C2F200000068FFF7AE
:1041A0004DFE00208DF80F00FFE79DF80F0004B0D2
:1041B00080BD000040F61C00C2F20000006870479D
:1041C00080B5FFF7F7FF43F60801C4F20201096862
:1041D000C1F382224BF2B801C0F60001895CC840ED
:1041E00080BD000080B5FFF7E5FF43F60801C4F28B
:1041F0000201096889B24A0B4BF2B801C0F600010E
:10420000895CC84080BD000080B586B00020059064
:1042100004900390029043F60800C4F20200006884
:1042200000F00C000146019140B1FFE7019804281D
:104230000AD0FFE7019808280CD04FE042F2004076
:10424000C0F2F40002904FE041F60030C0F2B70037
:10425000029049E043F60400C4F20200016801F054
:104260003F01059100684002002813D5FFE743F69F
:104270000400C4F202000068C0F3881041F6003167
:10428000C0F2B701A0FB0101059A0023FCF778F802
:10429000049012E043F60400C4F202000068C0F388
:1042A000881042F20041C0F2F401A0FB0101059A1E
:1042B0000023FCF765F80490FFE743F60400C4F21E
:1042C0000200006800F44031022000EBD13003907E
:1042D00004980399B0FBF1F0029005E042F200402F
:1042E000C0F2F4000290FFE7029806B080BD000023
:1042F00080B586B00490049820B9FFE701208DF8BE
:10430000170050E304980078C007002800F0A5804B
:10431000FFE743F60800C4F20200006800F00C005A
:10432000042813D0FFE743F60800C4F20200006837
:1043300000F00C0008281ED1FFE743F60400C4F289
:10434000020000684002002815D5FFE743F6000090
:10435000C4F20200006800F400310020B0EB514FBD
:1043600008D0FFE70498406820B9FFE701208DF8E6
:10437000170018E370E0FFE704984068B0F5803F4D
:1043800009D1FFE743F60001C4F20201086840F4D6
:104390008030086020E004984068B0F5A02F0DD16F
:1043A000FFE743F60001C4F20201086840F48020F0
:1043B0000860086840F4803008600CE043F60001B3
:1043C000C4F20201086820F480300860086820F414
:1043D00080200860FFE7FFE7FFE704984068E8B146
:1043E000FFE7FFF755FA0390FFE743F60000C4F23A
:1043F0000200006800F400310020B0EB514F0CD1F6
:10440000FFE7FFF745FA0399401A652804D3FFE751
:1044100003208DF81700C6E2E7E71CE0FFF738FA43
:104420000390FFE743F60000C4F20200006800F4C6
:1044300000310020B0EB514F0CD0FFE7FFF728FA16
:104440000399401A652804D3FFE703208DF817006D
:10445000A9E2E7E7FFE7FFE7FFE7049800788007B6
:10446000002840F19680FFE743F60800C4F20200FE
:10447000006810F00C0F13D0FFE743F60800C4F2F9
:104480000200006800F00C0008282CD1FFE743F67A
:104490000400C4F2020000684002002823D4FFE7B1
:1044A00043F60000C4F20200006800F002010020A0
:1044B000B0EB510F09D0FFE70498C068012804D081
:1044C000FFE701208DF817006DE243F60001C4F20A
:1044D0000201086820F0F800049A126940EAC2005C
:1044E0000860FFE754E00498C06870B3FFE700215C
:1044F000C4F2472101200860FFF7CAF90390FFE7E3
:1045000043F60000C4F20200006800F0020100203F
:10451000B0EB510F0CD1FFE7FFF7BAF90399401A3E
:10452000032804D3FFE703208DF817003BE2E7E7F9
:1045300043F60001C4F20201086820F0F800049A72
:10454000126940EAC200086021E00021C4F247215C
:1045500000200860FFF79CF90390FFE743F6000096
:10456000C4F20200006800F002010020B0EB510F1D
:104570000CD0FFE7FFF78CF90399401A032804D306
:10458000FFE703208DF817000DE2E7E7FFE7FFE7FD
:10459000FFE704980078000700284BD5FFE7049850
:1045A000406918B3FFE740F68061C4F2472101205B
:1045B0000860FFF76DF90390FFE743F67400C4F25B
:1045C0000200006800F002010020B0EB510F0CD196
:1045D000FFE7FFF75DF90399401A032804D3FFE7CB
:1045E00003208DF81700DEE1E7E722E040F6806166
:1045F000C4F2472100200860FFF74AF90390FFE763
:1046000043F67400C4F20200006800F002010020CA
:10461000B0EB510F0CD0FFE7FFF73AF90399401ABE
:10462000032804D3FFE703208DF81700BBE1E7E779
:10463000FFE7FFE7049800784007002840F1CE80AC
:10464000FFE700208DF8070043F64000C4F20200A7
:104650000068C000002815D4FFE7FFE700200090A5
:1046600043F64000C4F20200016841F0805101604D
:10467000006800F0805000900098FFE701208DF85E
:104680000700FFE747F20000C4F200000068C00521
:10469000002822D4FFE747F20001C4F200010868B5
:1046A00040F480700860FFF7F3F80390FFE747F2EB
:1046B0000000C4F200000068C00500280CD4FFE729
:1046C000FFF7E6F80399401A032804D3FFE7032015
:1046D0008DF8170067E1EAE7FFE7FFE704988068D5
:1046E000012809D1FFE743F67001C4F2020108680E
:1046F00040F0010008601FE00498806805280DD193
:10470000FFE743F67001C4F20201086840F00400BC
:104710000860086840F0010008600CE043F6700192
:10472000C4F20201086820F001000860086820F067
:1047300004000860FFE7FFE7FFE704988068F8B12E
:10474000FFE7FFF7A5F80390FFE743F67000C4F218
:104750000200006800F002010020B0EB510F0ED102
:10476000FFE7FFF795F80399401A41F28931884233
:1047700004D3FFE703208DF8170014E1E5E71EE0FE
:10478000FFF786F80390FFE743F67000C4F20200DB
:10479000006800F002010020B0EB510F0ED0FFE7DF
:1047A000FFF776F80399401A41F28931884204D321
:1047B000FFE703208DF81700F5E0E5E7FFE79DF838
:1047C0000700012809D1FFE743F64001C4F20201C6
:1047D000086820F080500860FFE7FFE704988069D0
:1047E000002800F0DC80FFE743F60800C4F2020076
:1047F000006800F00C00082800F08580FFE70498AE
:10480000806902285CD1FFE76021C4F247210020C3
:104810000860FFF73DF80390FFE743F60000C4F29D
:104820000200006800F000710020B0EB516F0CD066
:10483000FFE7FFF72DF80399401A032804D3FFE799
:1048400003208DF81700AEE0E7E70499C869D1F8B6
:1048500020C04B6A8A6A40EA0C0040EA8310D20307
:104860004FF6FF739A43A2F580321043C96A40EABB
:10487000016043F60401C4F2020108606021C4F241
:10488000472101200860FFF703F80390FFE743F694
:104890000000C4F20200006800F000710020B0EBDC
:1048A000516F0CD1FFE7FEF7F3FF0399401A03287D
:1048B00004D3FFE703208DF8170074E0E7E721E059
:1048C0006021C4F2472100200860FEF7E1FF039059
:1048D000FFE743F60000C4F20200006800F0007138
:1048E0000020B0EB516F0CD0FFE7FEF7D1FF03992A
:1048F000401A032804D3FFE703208DF8170052E085
:10490000E7E7FFE74AE004988069012804D1FFE760
:1049100001208DF8170046E043F60400C4F20200BF
:104920000068029004988069012831D0FFE702985E
:1049300000F480000499C969884229D1FFE70298F0
:1049400000F03F000499096A884221D1FFE70298EC
:1049500047F6C07108400499496AB0EB811F17D12E
:10496000FFE7029800F440300499896AC9034FF6C2
:10497000FF729143A1F58031884209D1FFE7029887
:1049800000F070600499C96AB0EB016F04D0FFE7D2
:1049900001208DF8170006E0FFE7FFE7FFE70020A2
:1049A0008DF81700FFE79DF8170006B080BD0000E6
:1049B00080B582B00190019803F000F902B080BD8B
:1049C00081B0009001B0704781B0009001B0704795
:1049D00084B00290019100200090FFE7029890F8C7
:1049E0003C00012804D1FFE702208DF80F0044E0CD
:1049F0000299012081F83C00FFE7FFE7009820F0D2
:104A0000FF000199C96808430090009820F44070A5
:104A10000199896808430090009820F4806001990A
:104A2000496808430090009820F4006001990968E3
:104A300008430090009820F48050019909690843C8
:104A40000090009820F400500199496908430090B3
:104A5000009820F480400199C969084300900098AB
:104A6000029909684864FFE70299002081F83C0038
:104A7000FFE700208DF80F00FFE79DF80F0004B05E
:104A80007047000085B003900291FFE7039890F80B
:104A90003C00012804D1FFE702208DF813007EE0DE
:104AA0000399012081F83C00FFE7FFE7039902200A
:104AB00081F83D0003980068406801900398006801
:104AC00080680090019820F07000019002980168C1
:104AD0000198084301900198039909684860039878
:104AE00000680021C4F2010188423CD0FFE703982E
:104AF0000068B0F1804F36D0FFE70398006840F2BD
:104B00000041C4F2000188422DD0FFE703980068FD
:104B100040F60001C4F20001884224D0FFE7039868
:104B2000006840F60041C4F2000188421BD0FFE754
:104B30000398006840F20041C4F20101884212D09B
:104B4000FFE70398006844F20001C4F201018842C3
:104B500009D0FFE70398006841F60001C4F20001A4
:104B600088420ED1FFE7009820F080000090029864
:104B7000416800980843009000980399096888608C
:104B8000FFE70399012081F83D00FFE7039900202A
:104B900081F83C00FFE700208DF81300FFE79DF847
:104BA000130005B07047000080B582B000900098F7
:104BB00020B9FFE701208DF807003FE0009890F84A
:104BC0003D0040B9FFE70099002081F83C000098C3
:104BD00000F038F8FFE70099022081F83D000099C5
:104BE00051F8040B03F0CAF90099012081F846003E
:104BF000FFE70099012081F83E00009981F83F000D
:104C0000009981F84000009981F84100FFE7FFE733
:104C10000099012081F84200009981F84300009931
:104C200081F84400009981F84500FFE700990120D0
:104C300081F83D0000208DF80700FFE79DF8070090
:104C400002B080BD80B584B003900398006841F243
:104C50000001C4F2000188421BD1FFE7FFE70020FA
:104C6000029043F64000C4F20200016841F01001D6
:104C70000160006800F0100002900298FFE7362003
:104C8000019000221146FFF741F90198FFF734F92E
:104C9000FFE704B080BD000083B00190019890F858
:104CA0003D00012804D0FFE701208DF80B006AE0E9
:104CB0000199022081F83D0001980168C86840F020
:104CC0000100C860019800680021C4F20101884217
:104CD0003CD0FFE701980068B0F1804F36D0FFE785
:104CE0000198006840F20041C4F2000188422DD0D2
:104CF000FFE70198006840F60001C4F20001884215
:104D000024D0FFE70198006840F60041C4F200019A
:104D100088421BD0FFE70198006840F20041C4F2CE
:104D20000101884212D0FFE70198006844F20001B7
:104D3000C4F20101884209D0FFE70198006841F6FA
:104D40000001C4F20001884212D1FFE70198006817
:104D5000806800F0070000900098062807D0FFE761
:104D600001980168086840F001000860FFE706E06C
:104D700001980168086840F001000860FFE7002022
:104D80008DF80B00FFE79DF80B0003B070470000A3
:104D900081B0009001B0704780B584B00390039853
:104DA0000068C068029003980068006901909DF84F
:104DB00004008007002824D5FFE79DF8080080073D
:104DC00000281DD5FFE7039801686FF00200086115
:104DD000039901200877039800688069800720B153
:104DE000FFE70398FFF7D4FF06E0039800F06CF9A3
:104DF000039800F097FAFFE7039900200877FFE790
:104E0000FFE79DF804004007002825D5FFE79DF83F
:104E10000800400700281ED5FFE7039801686FF0DF
:104E200004000861039902200877039800688069EC
:104E300010F4407F04D0FFE70398FFF7A9FF06E0D6
:104E4000039800F041F9039800F06CFAFFE703992A
:104E500000200877FFE7FFE79DF80400000700281F
:104E600024D5FFE79DF80800000700281DD5FFE7BF
:104E7000039801686FF0080008610399042008771F
:104E800003980068C069800720B1FFE70398FFF727
:104E90007FFF06E0039800F017F9039800F042FA4C
:104EA000FFE7039900200877FFE7FFE79DF804007C
:104EB000C006002825D5FFE79DF80800C006002899
:104EC0001ED5FFE7039801686FF010000861039991
:104ED0000820087703980068C06910F4407F04D068
:104EE000FFE70398FFF754FF06E0039800F0ECF8A3
:104EF000039800F017FAFFE7039900200877FFE70F
:104F0000FFE79DF80400C00778B1FFE79DF80800AF
:104F1000C00748B1FFE7039801686FF0010008611E
:104F2000039800F0E9FAFFE7FFE79DF804000006A8
:104F3000002810D5FFE79DF808000006002809D5D5
:104F4000FFE7039801686FF0800008610398FFF79E
:104F500037FDFFE7FFE79DF804004006002810D565
:104F6000FFE79DF808004006002809D5FFE70398F1
:104F700001686FF040000861039800F0E5FAFFE770
:104F8000FFE79DF804008006002810D5FFE79DF894
:104F900008008006002809D5FFE7039801686FF034
:104FA000200008610398FFF70FFDFFE7FFE704B05B
:104FB00080BD000080B58EB00D9000200C900B904D
:104FC0000A90099008900D9800680021C4F2010130
:104FD000884223D1FFE7FFE70020079043F6300027
:104FE000C4F20200016841F010010160006800F0A5
:104FF000100007900798FFE74FF4804008900220C8
:10500000099000200A900B9001200C9041F20000C2
:10501000C4F2020008A9FEF72FFA52E00D980068CA
:1050200040F20041C4F20101884249D1FFE7FFE7A5
:105030000020069043F63000C4F20200016841F4FB
:1050400080710160006800F4807006900698FFE7A8
:10505000FFE70020059043F63000C4F2020001682B
:1050600041F004010160006800F00400059005981B
:10507000FFE7C020089002200190099000200290D4
:105080000A900B90032003900C9042F20000C4F2AF
:10509000020008A90491FEF7EFF9019B029A039818
:1050A00004994FF0400CCDF820C009930A920B925E
:1050B0000C9040F60000C4F20200FEF7DDF9FFE7B5
:1050C000FFE70EB080BD000081B0009001B07047D6
:1050D00080B586B004900391029200208DF80700FD
:1050E000FFE7049890F83C00012804D1FFE7022074
:1050F0008DF8170089E00499012081F83C00FFE752
:10510000FFE7029800900C2800F270800099DFE819
:1051100001F0076D6D6D206D6D6D3A6D6D6D530015
:1051200004980068039903F017F8049801688869E7
:1051300040F00800886104980168886920F0040044
:10514000886103980269049801688869104388613E
:1051500050E004980068039903F074F8049801681B
:10516000886940F40060886104980168886920F4C7
:10517000806088610398026904980168886940EA40
:105180000220886136E004980068039903F0D4F89F
:1051900004980168C86940F00800C8610498016873
:1051A000C86920F00400C861039802690498016886
:1051B000C8691043C8611DE004980068039903F0B2
:1051C00035F904980168C86940F40060C861049822
:1051D0000168C86920F48060C86103980269049876
:1051E0000168C86940EA0220C86103E001208DF827
:1051F0000700FFE7FFE70499002081F83C00FFE784
:105200009DF807008DF81700FFE79DF8170006B01E
:1052100080BD000080B582B00090009820B9FFE703
:1052200001208DF807003FE0009890F83D0040B95C
:10523000FFE70099002081F83C00009800F038F862
:10524000FFE70099022081F83D00009951F8040B16
:1052500002F094FE0099012081F84600FFE70099D2
:10526000012081F83E00009981F83F00009981F803
:105270004000009981F84100FFE7FFE70099012015
:1052800081F84200009981F84300009981F84400B8
:10529000009981F84500FFE70099012081F83D0061
:1052A00000208DF80700FFE79DF8070002B080BDE1
:1052B00083B00290029800680021C4F20101884284
:1052C00012D1FFE7FFE70020019043F64400C4F24B
:1052D0000200016841F001010160006800F0010076
:1052E00001900198FFE71BE00298006840F200413E
:1052F000C4F20101884212D1FFE7FFE700200090CD
:1053000043F64400C4F20200016841F0020101606A
:10531000006800F0020000900098FFE7FFE7FFE759
:1053200003B0704781B0009001B0704780B58CB079
:105330000A900991099828B9FFE70A9890F83E0069
:1053400007901CE00998042805D1FFE70A9890F817
:105350003F00069010E00998082805D1FFE70A9859
:1053600090F84000059004E00A9890F841000590FC
:10537000FFE705980690FFE706980790FFE7079874
:10538000012804D0FFE701208DF82F00AFE0099835
:1053900028B9FFE70A99022081F83E001EE009982B
:1053A000042806D1FFE70A99022081F83F00049003
:1053B00012E00998082806D1FFE70A99022081F82F
:1053C0004000039005E00A99022081F84100039013
:1053D000FFE703980490FFE70498FFE70A98006846
:1053E00009990122019202F09BFE01980A9909682D
:1053F0000022C4F20102914202900CD0FFE70A9809
:1054000000684FF60041CBF6FE710844B0FA80F018
:1054100040090290FFE70298C00738B1FFE70A98F9
:105420000168486C40F400404864FFE70A9800684F
:105430000021C4F2010188423CD0FFE70A980068CD
:10544000B0F1804F36D0FFE70A98006840F2004183
:10545000C4F2000188422DD0FFE70A98006840F6A8
:105460000001C4F20001884224D0FFE70A980068D6
:1054700040F60041C4F2000188421BD0FFE70A98C1
:10548000006840F20041C4F20101884212D0FFE7F7
:105490000A98006844F20001C4F20101884209D070
:1054A000FFE70A98006841F60001C4F20001884253
:1054B00012D1FFE70A980068806800F007000890A2
:1054C0000898062807D0FFE70A980168086840F0A6
:1054D00001000860FFE706E00A980168086840F0EC
:1054E00001000860FFE700208DF82F00FFE79DF81E
:1054F0002F000CB080BD000080B582B001900198F3
:10550000006841F20001C4F2000188421AD1FFE7AD
:1055100040F68850C2F20000016801310160006865
:1055200045F62941CCF28F2148434FEAB00045F6B9
:105530002841C0F28F21884203D8FFE701F0B0FB79
:10554000FFE7FFE702B080BD81B0009001B0704777
:1055500080B586B004900391ADF80A20049890F8C5
:105560004200202848D1FFE7039820B1FFE7BDF8AB
:105570000A0020B9FFE701208DF8170040E00499E8
:105580000120086304990020486304980399BDF83A
:105590000A2003F037FC8DF809000498006B0128FD
:1055A00021D1FFE7FFE70020019004980068006820
:1055B000019004980068406801900198FFE7FFE7B8
:1055C000FFE70498006850E8030F40F010000090D7
:1055D000FFE700990498026842E803100028F0D120
:1055E000FFE7FFE703E001208DF80900FFE79DF8E2
:1055F00009008DF8170003E002208DF81700FFE77F
:105600009DF8170006B080BD80B586B00590ADF856
:1056100012100598006841F20001C4F201018842AD
:1056200037D1FFE740F62911C2F2000101200870CE
:1056300041F26010C2F2000041F2FC11C2F200011E
:10564000029140220392FAF729FF03990298FAF790
:105650006AFF0299039A41F25C13C2F200031888B0
:1056600001301880BDF8120041F2E013C2F20003CD
:10567000188041F26800C2F20000FFF769FF40F6AF
:10568000BC50C2F200000168086820F00800086001
:10569000FFE70598006841F20041C4F20101884229
:1056A00037D1FFE740F62911C2F20001012048700E
:1056B00041F2A010C2F2000041F23C21C2F200010E
:1056C000009140220192FAF7E9FE01990098FAF759
:1056D0002AFF0099019A41F25C13C2F20003588834
:1056E00001305880BDF8120041F2E013C2F200030D
:1056F000588041F2B000C2F20000FFF729FF40F6E7
:105700007C60C2F200000168086820F008000860B0
:10571000FFE706B080BD000080B584B00390002094
:105720000290039800684069C0B2C00902900398D3
:1057300090F84100212823D1FFE7029800B3FFE74A
:10574000FFE7FFE70398006850E8050F20F08000AE
:105750000190FFE701990398026842E805100028CC
:10576000F0D1FFE7FFE70398806B28B1FFE70398CC
:10577000806BFDF71DFBFFE7039803F0D5F9FFE70A
:10578000039800684069C0F380100290039890F875
:105790004200222823D1FFE7029800B3FFE7FFE78A
:1057A000FFE70398006850E8050F20F040000090E4
:1057B000FFE700990398026842E805100028F0D13D
:1057C000FFE7FFE70398C06B28B1FFE70398C06BC2
:1057D000FDF7EEFAFFE7039803F048F9FFE7002032
:1057E00004B080BD80B58EB00D900D98006841F278
:1057F0000001C4F20101884276D1FFE740F68C51E6
:10580000C2F200010888013008800D980068006825
:105810000C900D980068C0680B909DF830008007D0
:1058200000280ED5FFE7FFE700200A900D980068DA
:1058300000680A900D98006840680A900A98FFE78F
:10584000FFE79DF83000400700280ED5FFE7FFE78F
:10585000002009900D980068006809900D98006874
:10586000406809900998FFE7FFE79DF830000007BE
:1058700000280ED5FFE7FFE7002008900D9800688C
:10588000006808900D980068406808900898FFE745
:10589000FFE79DF83000C00770B1FFE7FFE7002089
:1058A00007900D980068006807900D9800684068A0
:1058B00007900798FFE7FFE70D98FFF72DFF0D987A
:1058C00041F2FC11C2F200014022FFF741FE40F616
:1058D000BC50C2F200000168086820F008000860AF
:1058E0000D9900204864FFE70D98006841F20041DF
:1058F000C4F20101884276D1FFE740F68C51C2F232
:1059000000014888013048800D98006800680690C2
:105910000D980068C06805909DF818008007002861
:105920000ED5FFE7FFE7002004900D98006800689F
:1059300004900D980068406804900498FFE7FFE722
:105940009DF81800400700280ED5FFE7FFE700206C
:1059500003900D980068006803900D9800684068F7
:1059600003900398FFE7FFE79DF818000007002861
:105970000ED5FFE7FFE7002002900D980068006851
:1059800002900D980068406802900298FFE7FFE7D8
:105990009DF81800C00770B1FFE7FFE700200190F5
:1059A0000D980068006801900D98006840680190AB
:1059B0000198FFE7FFE70D98FFF7AEFE0D9841F263
:1059C0003C21C2F200014022FFF7C2FD40F67C609C
:1059D000C2F200000168086820F0080008600D9914
:1059E00000204864FFE70EB080BD000080B592B093
:1059F0001190119800680068109011980068C068B4
:105A00000F901198006840690E9000200D900C9046
:105A1000109800F00F000D900D9888B9FFE79DF8E1
:105A20004000800600280AD5FFE79DF83C0080066C
:105A3000002804D5FFE7119803F092F802E2FFE78F
:105A40000D98002800F0C280FFE79DF83800C007DD
:105A500038B9FFE7BDF83C0010F4907F00F0B68045
:105A6000FFE79DF84000C00758B1FFE79DF83D00F3
:105A7000C00730B1FFE71199486C40F0010048645D
:105A8000FFE79DF84000400700280BD5FFE79DF891
:105A90003800C00730B1FFE71199486C40F00200B0
:105AA0004864FFE79DF84000800700280BD5FFE71A
:105AB0009DF83800C00730B1FFE71199486C40F0FD
:105AC00004004864FFE79DF840000007002811D556
:105AD000FFE79DF83C008006002805D4FFE79DF80D
