:020000040800F2
:100000009839002055020008AD2B0008E9280008A7
:10001000A92B0008790500087937000800000000C6
:10002000000000000000000000000000852D000816
:10003000DD05000800000000B12B0008892D000834
:100040006F0200086F0200086F0200086F020008CC
:100050006F0200086F0200086F0200086F020008BC
:100060006F0200086F0200086F0200086F020008AC
:100070006F0200086F0200086F0200086F0200089C
:100080006F0200086F0200086F0200086F0200088C
:100090006F0200086F0200086F0200086F0200087C
:1000A0004D2E00087D2F0008712F00086F020008F8
:1000B0006F0200086F0200086F0200086F0200085C
:1000C0006F0200086F0200086F0200086F0200084C
:1000D0006F020008313700086F0200086F02000845
:1000E0006F0200086F0200086F020008E52F000889
:1000F00001310008F53000086F0200086F020008A7
:100100006F0200086F0200086F0200086F0200080B
:100110006F0200086F020008892F00086F020008B4
:100120006F0200086F0200087D0500086F020008DA
:100130006F0200086F0200086F0200086F020008DB
:100140006F0200086F0200086F0200086F020008CB
:100150006F0200086F020008890500086F0200089E
:100160006F0200086F0200086F0200086F020008AB
:100170006F0200086F0200086F0200080000000014
:100180006F0200086F02000800F002F800F052F859
:1001900014A696E8000CB244B344DA4501D100F04D
:1001A00049F8BAE80F000FA696E83000A5EB040561
:1001B00004EB0607AAEB0704A7F101074FEA1515A0
:1001C0004FEA3414A4F10104AC4201D300F032F838
:1001D00013F0010F18BFFB1A43F0010300F001F800
:1001E000DBE71847043A0000243A0000103A24BF25
:1001F00078C878C1FAD8520724BF30C830C144BF8C
:1002000004680C6070470000704700000023002461
:1002100000250026103A28BF78C1FBD8520728BF16
:1002200030C148BF0B6070471FB503F0C0FC1FBD55
:1002300010B510BD00F066F91146FFF7F5FF03F0A9
:100240009DFA00F084F903B4FFF7F2FF03BC00F05D
:100250008BF900000948804709480047FEE7FEE7A0
:10026000FEE7FEE7FEE7FEE7FEE7FEE7FEE7FEE766
:1002700004480549054A064B70470000392E00081E
:100280008901000898330020983900209835002013
:100290009835002053EA020C00F069802DE9F04BFC
:1002A0004FF00006002B1FBFB3FA83F503FA05F4E5
:1002B00024FA05F65E4012BF1643B2FA82F502FA3E
:1002C00005F4C5F120051EBF22FA05FC44EA0C0422
:1002D000203556EA044C4FEA144418BF641C4FF012
:1002E00000084FF00009904271EB030C39D300294C
:1002F00019BFB1FA81F701FA07F6B0FA80F700FAF0
:1003000007F6C7F120071EBF20FA07FC46EA0C06D5
:100310002037B6FBF4FCA7EB0507103F07F01F0BD7
:10032000CBF120062CFA06F60CFA0BFB44BFB346C1
:100330000026202FA4BF5E464FF0000B5BEA060CA0
:1003400008BF4FF0010B19EB0B0948EB0608ABFB9C
:10035000027C06FB02CC0BFB03CCC01B71EB0C0137
:10036000C1E70B46024641464846BDE8F08B13B54F
:10037000084318BF4FF0FF300146AFF30080BDE8DF
:100380001C40704710B5431C02E010F8011B71B10E
:100390008107FAD14FF0013202C88C1A8C4314EA5B
:1003A000C211F9D0C01A0A0603D0C01E10BDC01A6F
:1003B00010BD0A0401D0801E10BD0902FCD0401EF1
:1003C00010BD032A40F2308010F0030C00F01580BD
:1003D00011F8013BBCF1020F624498BF11F801CB48
:1003E00000F8013B38BF11F8013BA2F1040298BFAD
:1003F00000F801CB38BF00F8013B11F0030300F017
:100400004F80083AC0F0088051F8043B083A51F890
:1004100004CBA0E80810F5E7121D5CBF51F8043BBF
:1004200040F8043BAFF30080D20724BF11F8013B32
:1004300011F801CB48BF11F8012B24BF00F8013B94
:1004400000F801CB48BF00F8012B70474FF00002C5
:1004500000B5134694469646203922BFA0E80C50BA
:10046000A0E80C50B1F12001BFF4F7AF090728BF95
:10047000A0E80C5048BF0CC05DF804EB890028BF11
:1004800040F8042B08BF704748BF20F8022B11F03A
:10049000804F18BF00F8012B7047704770477047B6
:1004A00010B5203AC0F00B80B1E81850A0E8185001
:1004B000B1E81850A0E81850203ABFF4F5AF5FEA51
:1004C000027C24BFB1E81850A0E8185044BF18C9F6
:1004D00018C0BDE810405FEA827C24BF51F8043B9D
:1004E00040F8043B08BF7047D20728BF31F8023BF1
:1004F00048BF11F8012B28BF20F8023B48BF00F885
:10050000012B7047754600F02BF8AE460500694692
:10051000534620F00700854618B020B5FFF7A8FE27
:10052000BDE820404FF000064FF000074FF00008F4
:100530004FF0000BAC46ACE8C009ACE8C009ACE831
:10054000C009ACE8C00921F007018D46704710B51D
:100550000446AFF300802046BDE81040FFF773BEAD
:10056000004870475000002001491820ABBEFEE74C
:100570002600020070470000FEE7000043F2701002
:10058000C2F2000000F00EB943F2D010C2F2000037
:1005900000F008B980B582B00020019043F6300029
:1005A000C4F202000168002241F480010160006889
:1005B000002100F48000019001983A2000F036FC00
:1005C0003A2000F021FC46200021002200F02EFC01
:1005D000462002B0BDE8804000F016BC7047000025
:1005E00072B600BFFEE700002DE9F04387B0002798
:1005F00043F630000697CDE90477CDE902770197FD
:10060000C4F20200016840F2004941F002010160B9
:100610000168C4F2020901F00201019101990197F8
:10062000016809F5805541F480710160016800227C
:1006300001F480710191019901970168032641F04D
:1006400020010160016801F02001019101990197E9
:10065000016841F001010160016801F001010191AF
:1006600001990197016841F080010160016801F082
:100670008001019101990197016841F00401016035
:10068000016801F00401019101990197016841F0AD
:10069000100101600068032100F010000190019832
:1006A000284600F03BFB48464FF4704100224FF4CF
:1006B000704800F033FB029602AE01242846314612
:1006C000CDE90347059700F053FA48463146CDE996
:1006D0000284CDE9047700F04BFAA9F58060314639
:1006E000CDE90247049700F043FA07B0BDE8F08374
:1006F00070B5866D044600F017FB94F8351002299A
:1007000028D105462068216C026822F0160202609A
:10071000426922F08002426109B9A16C19B10168F5
:1007200021F008010160016821F00101016000BFB2
:1007300020680068C00715D000F0F6FA401B0628B4
:10074000F6D320206065032084F83500002184F86A
:10075000341070BD802060650120002184F83410C1
:1007600070BD00BFE06D3F2101FA00F0B0600120D4
:1007700084F835000020002184F8341070BD00009A
:1007800090F83510022909D1052180F8351000684C
:10079000016821F00101016000207047802141655E
:1007A00001207047F0B581B00021009140F20C01AA
:1007B000C2F200010B68D0E9166148F2B51537683E
:1007C0000822C1F64E358A403A42A3FB05350CD0CB
:1007D00003681C68640708D51C6824F004041C60C6
:1007E000B260426D42F00102426501228A403A4203
:1007F00008D003685B691B0604D5B260426D42F005
:100800000202426504228A403A4208D003681B680B
:100810009B0704D5B260426D42F00402426510228B
:100820008A403A4219D001680B681B0715D5B2609F
:100830000B680A685B0309D4D20509D40A6822F060
:1008400008020A60016C29B907E000BF110341D416
:10085000016C11B1044688472046C26D202101FA7F
:1008600002F33B4243D001680F68FF063FD5B360F7
:1008700090F835700B68052F1CD123F016030B6020
:100880004B6923F080034B61036C0BB9836C1BB184
:100890000B6823F008030B603F219140B1600121F8
:1008A00080F83510016D0022002980F8342054D1E1
:1008B00058E000BF0A685B0310D4D20512D40A685E
:1008C00022F010020A60012180F83510002180F822
:1008D000341007E0816C0029BCD1BEE7110301D4BC
:1008E000416C00E0C16B11B1044688472046416D60
:1008F000C1B3416DC9072ED0052180F835100168BC
:10090000AA0A0B6823F001030B60009B013393429A
:1009100000931AD80B68DB0717D0009B0133934272
:10092000009312D80B68DB070FD0009B0133934272
:1009300000930AD80B68DB0707D0009B0133934272
:10094000009302D80B68DB07DFD1012180F8351056
:10095000002180F83410C16C21B101B0BDE8F04035
:10096000084700BF01B0F0BD2DE9F041044600F09A
:10097000DBF9ECB10546022084F83500002021683F
:1009800084F83400086820F00100086021680868D5
:10099000C00711D000F0C8F9401B0528F6D903257F
:1009A00020230320636584F83550BDE8F08100BF43
:1009B0000120BDE8F08100BF086848F23F02CFF295
:1009C0001002D4E9013500EA020C04F10C0898E8A1
:1009D000C10143EA0C032B431843D4E9072E3043EB
:1009E00038431043626A40EA0E00042A40EA0803D2
:1009F0001CD1206BD4E90A2E40EA0E00184308608F
:100A00004869BEF1000F20F0030040EA020040F008
:100A1000040C11D0B8F5005F36D0B8F1000F45D105
:100A2000022A46D0012A3BD032B942E00B60486925
:100A300020F0070040EA020C01F0F8004AF6AB2271
:100A40001038CAF6AA22A0FB02231A0943F6E033A3
:100A5000C1F814C0C0F600039A5C40F2FF335F286F
:100A60004FF03F0021EA030100FA02F088BF043191
:100A7000C4E916128860002301250020636584F80C
:100A80003550BDE8F08100BF032AD5D801254023A9
:100A90000120DFE802F0030E030500BF82E700BF7C
:100AA000AEF1C070B0FA80F0400904E0032A04D32C
:100AB000C2D1CEF300600028BED001254023012022
:100AC000636584F83550BDE8F081000090F834C0CB
:100AD000BCF1010F04BF0220704770B54FF0010C4C
:100AE00080F834C0D0F858E090F835C0BCF1010F60
:100AF00038D14FF0020C80F835C04FF0000CC0F830
:100B000054C0D0F800C08468056CC06DDCF800608B
:100B1000402C26F48026CCF80060CCF804300B463C
:100B200004BF13460A463F2101FA00F0CCF8083012
:100B3000CCF80C20CEF80800DCF8000040F01600DD
:100B4000CCF800002DB1DCF8000040F00800CCF833
:100B50000000DCF8000040F00100CCF800000020AC
:100B600070BD00BF002180F83410022070BD00006D
:100B70002DE9F04F83B000F1200200F13E4741F62D
:100B80000045009207F1FF77C4F2020508224FEA00
:100B9000B726A84208BF072200254FF000084FF0F3
:100BA0000009072E38BF4FEAB72201920AE000BFC2
:100BB00009F1010908F10208B9F1100F05F1040566
:100BC00000F0A2800F68012202FA09FE17EA0E0A5D
:100BD000EED0D1F804C003220CF003077E1E02FA07
:100BE00008F4012E6FEA040B12D88468CE6804EA78
:100BF0000B0406FA08F634438460446824EA0E06BF
:100C0000CCF3001404FA09F42643466004E000BF64
:100C1000032F01D103271EE0C6688C6806EA0B0685
:100C200004FA08F42643022FC66014D16FF00302C1
:100C3000009E02EA590756F807C005F01C040F226F
:100C40000B69A2402CEA0202A3401A43F251D1F8E8
:100C500004C00CF00307026807FA08F302EA0B026B
:100C60001A431CF4403F0260A2D0002243F6440322
:100C70000292C4F202031A6843F6004442F480422E
:100C80001A601A68C4F2010402F480420292029AC5
:100C900029F003024FF6084C2244CFF6FF7C52F8AD
:100CA0000C3005F00C070F26BE40B343019E06FA38
:100CB00007F73B4342F80C30A2684B6842EA0A0748
:100CC00043F60C4CDE0258BF22EA0A07A760C4F2C2
:100CD000010CDCF800209E0242EA0A0758BF22EA13
:100CE0000A07CCF8007062689E0342EA0A0758BF00
:100CF00022EA0A0767602268DB0342EA0A0758BF54
:100D000022EA0A07276053E703B0BDE8F08F00002E
:100D10000069084018BF012070470000002A08BF82
:100D2000090481617047000043F29030C2F2000074
:100D30000068704740F2000043F29031C2F20000B8
:100D4000C2F2000100780A68104408607047000091
:100D500080B543F60040C4F20200016841F400711E
:100D60000160016841F480610160016841F48071B3
:100D70000160032000F086F80F2000F005F800F075
:100D800027F8002080BD000070B540F20006C2F2D6
:100D9000000640F20C013278C2F200014FF47A737F
:100DA0000968B3FBF2F20446B1FBF2F1084600F029
:100DB0005FFB0F2C4FF0010508D838B94FF0FF301A
:100DC00021460022002500F031F87460284670BDED
:100DD00082B0002043F640010190C4F202014A684B
:100DE00042F480424A604A6802F480420192019AC9
:100DF0000090086840F080500860086800F080505B
:100E00000090009802B07047002848BF704700F07B
:100E10001F01012202FA01F11C2202EAD0004EF267
:100E20000012CEF2000281507047000010B54EF65D
:100E30000C5CCEF2000CDCF80030C3F3022E8EF016
:100E40000704042C28BF0424BEF103034FF0FF3E27
:100E50000EFA04F438BF0023A14399400EFA03F3BD
:100E60009A43114300F00F0200F160430901043A74
:100E700003F564436244002848BF02F10C03197073
:100E800010BD00004EF60C51CEF200010A684FF67C
:100E9000FF031A4060F30A2242F0806040F0FD70C8
:100EA00008607047002804BF012070472DE9F04119
:100EB00043F60808C4F202080446D8F8F8030D46C1
:100EC00000F00700884207D288F8F853D8F8F803F2
:100ED00000F00700A84277D12068810717D54107A5
:100EE00005D5D8F8001041F4E051C8F8001001070A
:100EF00005D5D8F8001041F46041C8F80010D8F8C2
:100F00000010A26821F0F0011143C8F80010C007DA
:100F100040D1D8F8F80300F00700A84207D988F8B4
:100F2000F853D8F8F80300F00700A8424CD1206825
:100F3000410707D5D8F80010E26821F4E0511143C9
:100F4000C8F80010000708D5D8F80000216920F47F
:100F5000604040EAC100C8F8000000F07DF8D8F811
:100F6000001043F6C832C1F30311C0F60002515C11
:100F700040F20C0220FA01F140F20400C2F200003B
:100F80000068C2F200021160FFF7FEFE0020BDE81B
:100F9000F08100BF6068811E022907D258F8081C42
:100FA00089015CBF0120BDE8F08111E0012807D173
:100FB00058F8081C89035CBF0120BDE8F08107E0F8
:100FC00058F8081C890703D40120BDE8F08100BF50
:100FD000D8F8001021F003010843C8F80000FFF71B
:100FE000A3FE064641F28837D8F80000616800F099
:100FF0000C00B0EB810F8CD0FFF796FE801BB8423F
:10100000F2D90320BDE8F08140F20C0043F608015C
:10101000C2F20000C4F202010068096843F6D83247
:10102000C1F38221C0F60002515CC8407047000045
:1010300040F20C0043F60801C2F20000C4F20201C3
:101040000068096843F6D832C1F34231C0F60002A5
:10105000515CC8407047000010B543F60404C4F268
:101060000204606800F00C0008280BD0042819BFA7
:1010700042F20040C0F2F40041F60030C0F2B70086
:1010800010BD00BF206821682368490241F6003185
:10109000C0F2B70100F03F02C3F388105CBF42F218
:1010A0000041C0F2F401A1FB00010023FFF7F2F8B8
:1010B00021680222C1F3014102EB4101B0FBF1F0D2
:1010C00010BD0000002804BF012070472DE9F04149
:1010D00082B00446007843F60006C007C4F2020658
:1010E0000CD0B06800F00C00042840F0818030681B
:1010F000800303D56068002800F0688120788007AD
:101100001BD5B06810F00C0F09D0B06800F00C00CF
:10111000082840F087807068400200F183803068C2
:10112000800703D5E068012840F0508130682169CC
:1011300020F0F80040EAC10030602078000713D4A6
:10114000207840072AD4A569002D00F03A81B068C4
:1011500000F00C00082840F0A580012D40F00E8121
:10116000012002B0BDE8F0816069002800F08280B3
:101170000020C4F247200121C0F8801EFFF7D4FDF3
:10118000054600BF706F8007DAD4FFF7CDFD401B26
:101190000228F7D9032002B0BDE8F081306C5FEA85
:1011A000C0080AD400200190306C40F080503064B8
:1011B000306C00F080500190019847F20007C4F2B3
:1011C00000073868C00547D4386840F4807038603C
:1011D000FFF7AAFD054600BF3868C0053CD4FFF7FD
:1011E000A3FD401B0228F7D9032002B0BDE8F0811F
:1011F000B06800F00C00082803D1706840023FF589
:1012000076AF61683068B1F5803F07D0B1F5A02FA7
:1012100040F09A8040F480203060306840F48030A4
:1012200030609AE0E068002840F20000C4F24720F5
:101230005CD001210160FFF777FD0546306880072B
:101240003FF574AFFFF770FD401B0228F6D903206D
:1012500002B0BDE8F08100BFA168306F012905D060
:10126000052955D140F004003067306F40F001008F
:10127000306756E00020C4F247200021C0F8801EED
:10128000FFF752FD054600BF706F80077FF558AF2E
:10129000FFF74AFD401B0228F6D9032002B0BDE843
:1012A000F08100BF0027C4F2472700203866FFF70F
:1012B0003BFD022D05460DD13068800140F18A804A
:1012C000FFF732FD401B02284FF00300F4D902B0B3
:1012D000BDE8F0813068800173D5FFF725FD401B24
:1012E00002284FF00300F5D9F1E700BF00210160AB
:1012F000FFF71AFD054600BF306880077FF51DAF78
:10130000FFF712FD401B02284FF00300F4D9DEE77F
:1013100020F001003067306F002920F004003067B2
:101320007AD0FFF701FD054641F28837306F80071C
:1013300000F18480FFF7F8FC401BB842F6D9032087
:1013400002B0BDE8F08100BF20F48030306030682A
:10135000002920F4802030607AD0FFF7E5FC0546B4
:10136000306880033FF5CAAEFFF7DEFC401B6428FF
:10137000F6D9032002B0BDE8F08100BF7068E169D2
:1013800000F480028A4221D1216A00F03F028A42A1
:101390001CD147F6C071626A0140B1EB821F15D1C2
:1013A000A16A4FF6FF73C903994300F44032A1F5D7
:1013B00080318A420AD1E16A00F07060B0EB016FBF
:1013C00004D1002002B0BDE8F08100BF012002B0CE
:1013D000BDE8F08104F11C052FCD084340EA8210DE
:1013E000D9034FF6FF729143A1F5803140EA0560C1
:1013F0000843706001203866FFF796FC044600BF82
:1014000030688001DDD4FFF78FFC001B02284FF00D
:101410000300F5D95BE700BFFFF786FC054641F204
:10142000883700BF306F800708D5FFF77DFC401B71
:10143000B8424FF00300F5D949E700BFB8F1000FFB
:101440003FF581AE306C20F0805030647BE600BF09
:10145000FFF76AFC054600BF306880037FF54EAE9B
:10146000FFF762FC401B64284FF00300F4D92EE71D
:10147000411E0020B0EB116F1CBF012070474EF2DF
:101480001002CEF2000251604EF62351CEF200015E
:10149000F0230B70072190601160704770470000C7
:1014A0007047000090F83C20012A04BF02207047DA
:1014B000B0B501F108053CCDD1E900CE23F47C5351
:1014C00022F470521A432EF4F0431A432CF4E043F2
:1014D0001A4324F4C0431A432A43C96922F48042C0
:1014E000036811435964002180F83C100020B0BD0E
:1014F00090F83C20012A4FF0020254D010B580F839
:101500003D200268D2F804E0D2F808C00C682EF042
:101510007003234341F2FF74C4F20004A2425360FB
:101520000EDC40F2FF73C4F200039A4216DCB2F103
:10153000804F2BD040F20043C4F2000324E000BFF0
:1015400040F2FF33C4F201039A4213DC41F6000378
:10155000C4F200039A4219D0002313E040F60003BE
:10156000C4F200039A4211D040F60043C4F20003D3
:101570000AE000BF44F20003C4F201039A4205D01E
:1015800040F20043C4F201039A4204D149682CF0AE
:101590008003194391600121002280F83D1080F8FA
:1015A0003C20BDE81040104670470000002804BFF2
:1015B0000120704710B5044690F83D0028B900207E
:1015C00084F83C00204600F01FF8022084F83D001B
:1015D0002068211D01F09AFD012084F8460084F85E
:1015E0003E0084F83F0084F8400084F8410084F80D
:1015F000420084F8430084F8440084F8450084F8ED
:101600003D00002010BD0000006841F20001C4F25E
:101610000001884218BF704780B582B00020019059
:1016200043F64000C4F202000168002241F01001BC
:1016300001600068002100F0100001900198362040
:10164000FFF7F4FB362002B0BDE88040FFF7DCBBBB
:1016500090F83D1001291CBF01207047022180F83D
:101660003D10006841F2FF72C168C4F2000290426E
:1016700041F00101C1600DDC40F2FF71C4F20001D4
:10168000884215DCB0F1804F2AD040F20041C4F20C
:10169000000123E040F2FF31C4F20101884213DC73
:1016A00041F60001C4F20001884219D0002113E084
:1016B00040F60001C4F20001884211D040F600411A
:1016C000C4F200010AE000BF44F20001C4F20101CB
:1016D000884205D040F20041C4F20101884206D19F
:1016E000816801F00701062904BF002070470168E6
:1016F00041F00101016000207047000070470000C8
:1017000070B504460068C5680669B10716D515F0BE
:10171000020113D06FF0020101610121217780697C
:10172000800703D02046FFF7E9FF05E0204600F0E0
:10173000F9F8204600F088FA00202077700719D5C4
:1017400015F0040016D020686FF004010161022139
:101750002177806910F4407F04D02046FFF7CEFF48
:1017600006E000BF204600F0DDF8204600F06CFAED
:1017700000202077300717D515F0080014D0206816
:101780006FF00801016104212177C069800703D04F
:101790002046FFF7B3FF05E0204600F0C3F82046DF
:1017A00000F052FA00202077F00619D515F010004D
:1017B00016D020686FF01001016108212177C069FF
:1017C00010F4407F04D02046FFF798FF06E000BFEA
:1017D000204600F0A7F8204600F036FA00202077D7
:1017E000F00718BF15F0010002D1300609D412E04D
:1017F00020686FF001010161204600F0AFFA300669
:1018000009D515F0800006D020686FF080010161D5
:101810002046FFF743FE700609D515F0400006D0BC
:1018200020686FF040010161204600F0C7FAB00661
:1018300058BF70BD15F0200008D021686FF020025D
:1018400020460A61BDE87040FFF72ABE70BD000067
:10185000F0B587B0006840F20041C4F201010025F4
:101860008842CDE90555CDE90355029524D00021E4
:10187000C4F20101884252D1002043F630010190A8
:10188000C4F202010A6842F010020A60096801F01D
:101890001001019101994FF4D44102910221CDE947
:1018A000031005900120069040F60000C4F20200EB
:1018B00000F500642FE000BF43F630000195C4F24C
:1018C0000200016840F6000441F480710160016883
:1018D000C4F2020401F4807101910199019501683B
:1018E000022641F0040101600068032700F00400B3
:1018F00001900198C020029004F5C05002A9CDE9E2
:10190000036505950697FFF733F94020CDE90206F8
:10191000CDE90455069702A92046FFF729F907B03B
:10192000F0BD00007047000090F83C30012B04BF70
:10193000022070474FEAB202032A00F2FF802DE92D
:10194000F043DFE802F003B13F7F00BF036840F2DD
:1019500000461C6A1A6A24F0020422F001021A628C
:101960001A46D3F804C052F818EF8F6843F4806524
:10197000C4F20106B54244EA070405D1CF6824F059
:101980000C0427F004073C430F68B54206D1D1E9A7
:1019900005582CF440762E4346EA080C2EF07306C8
:1019A0003743C3F804C09F614F6809695F631C62D5
:1019B0009F6947F008079F619F6927F004079F61AF
:1019C000B1E000BF036840F200481C6A1A6A24F4C0
:1019D000007422F480721A621A46D3F804C052F8D6
:1019E0001CEF8F6843F48065C4F20108454544EA62
:1019F000072408D1CF6840F2FF463F0224F4406438
:101A000027EA06063443D1F80090454506D1D1E9CE
:101A100005562CF440572E4347EA061C2EF0730758
:101A200047EA0907C3F804C0DF614F680969DF634B
:101A30001C62DF6947F00807DF61DF6927F00407F0
:101A4000DF6170E0036840F20045D3F820C01A6AF5
:101A500043F4806722F480521A621A465C6852F896
:101A60001C8FD1F800E08E68C4F20105AF4204D1AA
:101A70004D6924F4804444EA85142CF4005747EA65
:101A8000063728F4E64646EA0E265C60DE614E68BC
:101A900009691E641F62DF6947F40067DF61DF695F
:101AA00027F48067DF613DE0036840F200481C6A6C
:101AB0001A6A24F0200422F010021A621A46D3F89F
:101AC00004C052F818EF8F6843F48065C4F201082F
:101AD000454544EA071407D1CF686FF0400624F06B
:101AE000C00406EA07163443D1F80090454506D1F4
:101AF000D1E905562CF440672E4347EA860C2EF4B4
:101B0000E64747EA0927C3F804C09F614F6809699F
:101B10009F631C629F6947F400679F619F6927F478
:101B200080679F6109021368194311600021BDE8B5
:101B3000F043002280F83C20084670470121002233
:101B400080F83C2008467047002804BF01207047F9
:101B500010B5044690F83D0028B9002084F83C00F8
:101B6000204600F01FF8022084F83D002068211D67
:101B700001F0CCFA012084F8460084F83E0084F895
:101B80003F0084F8400084F8410084F8420084F863
:101B9000430084F8440084F8450084F83D000020A8
:101BA00010BD000070B582B0006840F20041C4F280
:101BB0000101884218D00021C4F20101884241D1BC
:101BC0000020019043F64400C4F2020001681A2488
:101BD00041F0010101600068192500F00100019049
:101BE0000198182612E000BF0020009043F6440040
:101BF000C4F2020001682D2441F002010160006876
:101C00002C2500F00200009000982B263046002181
:101C10000022FFF70BF93046FFF7F6F828460021BF
:101C20000022FFF703F92846FFF7EEF820460021CF
:101C30000022FFF7FBF8204602B0BDE87040FFF736
:101C4000E3B800BF02B070BD70470000C1B1042905
:101C500008D0082914BF41224022825C012A05D005
:101C600016E000BF3F22825C012A11D1022208291E
:101C700010D0042914BF80F8412080F83F200BE0E9
:101C800090F83E20012A03D1022280F83E2003E092
:101C90000120704780F84020006801F01F010122F8
:101CA000036A02FA01F123EA01020262026A1143A5
:101CB00041F2FF72C4F20002904201620CDC40F279
:101CC000FF71C4F20001884214DCB0F1804F37D0BC
:101CD00040F2004116E000BF40F2FF31C4F20101C2
:101CE000884215DC41F60001C4F20001884227D089
:101CF000002115E040F60001C4F2000188421FD027
:101D000040F60041C4F20001884219D01FE000BF34
:101D100044F20001C4F20101884211D040F20041B6
:101D2000C4F20101884212D1416C40F2004340F4F8
:101D30008062C4F2010341F400419A42416406D139
:101D4000816801F00701062904BF0020704701687F
:101D500041F001010160002070470000006841F27D
:101D60000001C4F20001884218BF7047B0B543F2C9
:101D70006C10C2F2000001680131016000F070FFD8
:101D800040F2D405C2F200052878012812D140F2B1
:101D90001004C2F200042046FEF7F4FA82B243F2C5
:101DA0000830C2F2000021464FF47A7300F0D0FCF4
:101DB00000202870BDE8B040704700007047000068
:101DC00070B582B090F84250202D0BD113460A46D0
:101DD0000146002A4FF0010018BF002B06D102B0C7
:101DE00070BD00BF022002B070BD00BF08630026B6
:101DF00022204E638A628B854E6481F842000C6813
:101E00000D46C86B43F2D13C43F23151C0F6000C91
:101E1000C0F60001C0E90FC143F25521C0F6000130
:101E2000C0E91316211DFEF751FEE8B310206864C7
:101E30002020294685F8420001200A6B012A40F043
:101E4000B380002200920A681368009352680092DF
:101E5000009A00BF0A6852E8032F0B6842F0100294
:101E600043E80326002EBAD00A6852E8032F0B6815
:101E700042F0100243E80326002EB0D00A6852E870
:101E8000032F0B6842F0100243E80326002EA6D071
:101E90000A6852E8032F0B6842F0100243E8032659
:101EA000002ED7D19BE700BF01962868294602681B
:101EB0000192406801900198286928B3086850E8A9
:101EC000030F0A6840F4807042E80303E3B1086836
:101ED00050E8030F0A6840F4807042E803039BB1A6
:101EE000086850E8030F0A6840F4807042E8030372
:101EF00053B1086850E8030F0A6840F4807042E864
:101F00000303002BDAD100BF086850E8050F0A6808
:101F100040F0010042E80503BBB3086850E8050F34
:101F20000A6840F0010042E8050373B3086850E80E
:101F3000050F0A6840F0010042E805032BB308686A
:101F400050E8050F0A6840F0010042E80503002B45
:101F5000DAD11AE0086850E8050F0A6840F040003E
:101F600042E80503DBB1086850E8050F0A6840F055
:101F7000400042E8050393B1086850E8050F0A687D
:101F800040F0400042E805034BB1086850E8050FF7
:101F90000A6840F0400042E80503002BDAD1002037
:101FA0000A6B012A3FF44DAF012002B070BD000062
:101FB000B0B5006841F20002C4F20102904216D1AD
:101FC00040F210050C46C2F2000543F25031C2F255
:101FD000000128462246FEF7F4F943F20830C2F227
:101FE0000000294622464FF47A7300F0B1FB43F219
:101FF000083043F25031C2F20000C2F20001322236
:10200000FFF7DEFE43F27010C2F2000000680168C4
:1020100021F008010160B0BD70470000B0B582B08A
:1020200001680A68CC684B6902F02F05202D04F086
:10203000200505D125B102B0BDE8B04001F084BA59
:102040005FEA027C1EBF03F0010E04F4907313EBF1
:102050000E0341D1036BD50618D5012B16D114F010
:10206000100313D0002201920A6801924A6801927B
:10207000019A496949064BD4818DC28DC38D002BCD
:1020800018BF914240F0068202B0B0BD13062DD5B4
:1020900014F080032AD090F84120212AF4D18268DC
:1020A000B2F5805F03D10269002A00F07982026AEA
:1020B000531C036212784A60C28C013A1304C28432
:1020C000E2D1C86820F08000C860C86840F04000D5
:1020D000C86002B0B0BD00BFD30718BF14F480734E
:1020E00040F0E280530700F1E580EAE05206CBD5EC
:1020F00014F04002C8D0CA6822F04002CA60202111
:1021000080F8411002B0BDE8B04000F0EBBB00BF6A
:10211000C26B11684B68858D99B2002900F0B480BC
:10212000A94280F0B180C385D169B1F5807F00F00C
:10213000A080016851E8031F026821F4807142E821
:102140000313DBB1016851E8031F026821F48071B9
:1021500042E8031393B1016851E8031F026821F4B8
:10216000807142E803134BB1016851E8031F026814
:1021700021F4807142E80313002BDAD1016851E8A1
:10218000051F026821F0010142E80513BBB3016895
:1021900051E8051F026821F0010142E8051373B3FD
:1021A000016851E8051F026821F0010142E80513AA
:1021B0002BB3016851E8051F026821F0010142E8D4
:1021C0000513002BDAD11AE0016851E8051F0268F7
:1021D00021F0400142E80513DBB1016851E8051F19
:1021E000026821F0400142E8051393B1016851E80B
:1021F000051F026821F0400142E805134BB1016858
:1022000051E8051F026821F0400142E80513002B48
:10221000DAD1202180F8421000210163016851E8E1
:10222000031F026821F0100142E80313DBB10168CB
:1022300051E8031F026821F0100142E8031393B133
:10224000016851E8031F026821F0100142E80313FE
:102250004BB1016851E8031F026821F0100142E808
:102260000313002BDAD1C16B04460846FEF740FA8F
:10227000204602214163818DC28D891A89B202B044
:10228000BDE8B040FFF794BE8D427FF4FDAED26949
:10229000B2F5807F7FF4F8AE0222426302B0BDE85F
:1022A000B040FFF785BE00BF436C43F001034364B9
:1022B000530706D5BEF1000F03D0436C43F0020371
:1022C0004364930706D5BEF1000F03D0436C43F07F
:1022D00004034364BCF1000F06D55EEA050303D096
:1022E000436C43F008034364436C002B3FF4CCAED3
:1022F000920605D525B1044601F026F9216820464D
:102300004969426C01F0400102F00802891800F0AE
:10231000B98000BF016851E8031F026821F4907181
:1023200042E80313BBB3016851E8031F026821F4BC
:10233000907142E8031373B3016851E8031F026808
:1023400021F4907142E803132BB3016851E8031F95
:10235000026821F4907142E80313002BDAD11AE0ED
:10236000016851E8051F026821F0010142E80513E8
:10237000DBB1016851E8051F026821F0010142E864
:10238000051393B1016851E8051F026821F00101AE
:1023900042E805134BB1016851E8051F026821F0BE
:1023A000010142E80513002BDAD1016B012924D188
:1023B000016851E8031F026821F0100142E803138D
:1023C000DBB1016851E8031F026821F0100142E807
:1023D000031393B1016851E8031F026821F0100153
:1023E00042E803134BB1016851E8031F026821F072
:1023F000100142E80313002BDAD1202180F84210AB
:102400000021016301684969490640F1C380016800
:1024100051E8051F026821F0400142E80513DBB1D5
:10242000016851E8051F026821F0400142E80513E8
:1024300093B1016851E8051F026821F0400142E8AC
:1024400005134BB1016851E8051F026821F04001F6
:1024500042E80513002BDAD1C16B002900F09A8005
:1024600043F24922C0F60002044608460A65FEF718
:1024700087F900283FF408AEE06B016D02B0BDE8BB
:10248000B04008470446FFF7C7FD0020606402B073
:10249000B0BD00BF891A00BF026852E8032F03686D
:1024A00022F4907243E80325BDB3026852E8032F7B
:1024B000036822F4907243E8032575B3026852E87A
:1024C000032F036822F4907243E803252DB30268BA
:1024D00052E8032F036822F4907243E80325002D8D
:1024E000DAD11AE0026852E8052F036822F00102EF
:1024F00043E80525DDB1026852E8052F036822F0A4
:10250000010243E8052595B1026852E8052F0368EA
:1025100022F0010243E805254DB1026852E8052F7B
:10252000036822F0010243E80525002DDAD12022BC
:1025300080F8422000220263026852E8032F0368F9
:1025400022F0100243E80325DDB1026852E8032FB0
:10255000036822F0100243E8032595B1026852E8AF
:10256000032F036822F0100243E803254DB10268EF
:1025700052E8032F036822F0100243E80325002DE0
:10258000DAD1022289B2426302B0BDE8B040FFF75F
:102590000FBD00BF02B0BDE8B040FFF73DBD00BFBA
:1025A000026A32F8023B6FF35F234B60026283E5FD
:1025B000002804BF0120704710B5044690F8410080
:1025C00028B9002084F84000204600F021F824209B
:1025D00084F841002068C16821F40051C1602046A0
:1025E00001F032F82068016921F4904101614169EC
:1025F00021F02A014161C16841F40051C16000200D
:102600002021606484F8411084F84210606310BD9A
:102610002DE9F04F87B0044641F200070068C4F28C
:1026200001070026B8420696CDE904660396029695
:1026300002D007B0BDE8F08F43F630000196C4F237
:102640000200416902AD41F010014161416946F269
:10265000404801F0100101910199019601684FF085
:10266000020941F00201016001684FF0030A01F024
:10267000020101910199019601684FF0070B41F0A9
:10268000010101600068294600F0010001900198F5
:102690008020029007F57440C4F20208CDE9039649
:1026A000CDF814A0CDF818B0FEF762FA4FF4007020
:1026B000CDE9020904A880E8400C07F570402946DE
:1026C000FEF756FA43F27015C2F200054FF00067AC
:1026D0004FF480692846C5E90087C5E90266C5E967
:1026E0000496C5E90666C5E90866FEF73DF90028C7
:1026F00018BFFDF775FFE563AC6343F2D01508F131
:102700007800C2F200054021C5E9000705F1080084
:10271000002280E806022846C5E90522C5E907220D
:102720006A62FEF721F9002818BFFDF759FF25203E
:1027300000210022A563AC63FEF778FB2520FEF79D
:1027400063FB07B0BDE8F08F7047000070470000E2
:102750002DE9F04381B0044690F84100202809D1CA
:1027600000294FF0010018BF002A07D101B0BDE8D1
:10277000F08300BF022001B0BDE8F0830020606458
:1027800021201D460E4684F841001746FEF7CCFA7C
:10279000A784E784A1688146B1F5805F02D12069F2
:1027A00000285DD037460020E28C2168002A5DD0E9
:1027B0006A1C24D0002D4AD0804600BF086800065D
:1027C00008D4FEF7B1FAA0EB0900A8427AD8216834
:1027D000C868F3E717B117F8010B04E038F8020BEB
:1027E00000276FF35F204860E08C0138E084E08CC4
:1027F0000028E3D13AE000BF0A68120609D40A684B
:10280000120606D40A6812065CBF0A685FEA026212
:10281000F2D51FB117F8012B05E000BF30F8022BED
:1028200000276FF35F224A60E28C013AE284E28C77
:10283000002AE4D11AE000BF30F8022B00276FF322
:102840005F224A60E28C013AE284E28C72B10A684B
:10285000120635D5002FEFD017F8012BF1E700BF96
:1028600000273046E28C2168002AA1D10868400682
:102870001ED42DB3681C14D1086840062AD40868F9
:10288000400627D40868400624D4086840064FF064
:102890000000F1D50DE000BF2068C1680068400667
:1028A00018D4FEF741FAA0EB0900A842F4D909E0D8
:1028B0000020202184F8411001B0BDE8F08300BF62
:1028C000FEF732FA0320202184F8411001B0BDE860
:1028D000F08300BF0020202184F8411001B0BDE842
:1028E000F083000070470000FEE7000010B5FEF71F
:1028F0002FFA00F04BFAFDF777FEFDF74BFE00F0E4
:102900001DFF43F2083043F25031C2F20000C2F220
:1029100000014022FFF754FA43F27010C2F20000A7
:10292000006843F230240168C2F2000421F008017B
:102930009FED1F0A0160204600214FF4486200F01D
:1029400023FF20460421FFF781F900F085FA00F00B
:102950004FFB00F01FFB43F27820C2F20000FEF7AD
:1029600077FE20460021FFF771F920460421FFF78A
:102970006DF920460821FFF769F920460C21FFF781
:1029800065F943F2C024C2F2000420460021FFF79B
:102990005DF920460421FFF759F920460821FFF789
:1029A00055F900F007F9BDE8104000F023B800BF6A
:1029B000CDCC4C3E10B50020C4F202000121012410
:1029C000FEF7A6F9B0FA80F0420940F2D400C2F254
:1029D0000000C178827032EA010321EA02014171EC
:1029E000C9B20371C27018BF0470012904BF01216C
:1029F000417010BD2DE9F04F40F2B000C2F200006E
:102A000041F23C1840F23C1C40F63C1EC2F2000869
:102A100041F63C1942F23C1A42F63C1B00F114010B
:102A20004FF60004C2F2000CC2F2000EC2F200091E
:102A3000C2F2000AC2F2000B81E8000F0021CFF6BB
:102A4000FF740325C0E903CE01608180C0F8061041
:102A5000418100BF0CEB04060EEB040708EB0402F7
:102A600009EB04030AEB04010BEB0400803486F845
:102A70000D5887F80D5882F80D5883F80D5881F8D5
:102A80000D5880F80D5886F81D5887F81D5882F8A3
:102A90001D5883F81D5881F81D5880F81D5886F878
:102AA0002D5887F82D5882F82D5883F82D5881F825
:102AB0002D5880F82D5886F83D5887F83D5882F8F3
:102AC0003D5883F83D5881F83D5880F83D5886F8C8
:102AD0004D5887F84D5882F84D5883F84D5881F875
:102AE0004D5880F84D5886F85D5887F85D5882F843
:102AF0005D5883F85D5881F85D5880F85D5886F818
:102B00006D5887F86D5882F86D5883F86D5881F8C4
:102B10006D5880F86D5886F87D5887F87D5882F892
:102B20007D5883F87D5881F87D5880F87D5891D183
:102B300043F23C12C2F2000240F2DC00D2E900652E
:102B4000D2E9024102F1100AC2F2000043F230273A
:102B50009AE80807C2F20007C0E90265C0E9064129
:102B600008210C2402F12005C0E90871C0E90A38E7
:102B7000C0E90C7443F2C02138CDD26A4FF0000C8A
:102B80004FF0040EC2F20001C0E9007CC0E9047EEF
:102B9000C0E90E9AC0E9101CC0E91234C0E9141E45
:102BA000C0E91652BDE8F08FFEE70000FEE7000026
:102BB0007047000043F23C10C2F2000040F2004CAB
:102BC0004FF400530221C4F2020C4FF4805283816F
:102BD0004FF4004381834FF480418280002283823E
:102BE0000CF5805381840121C0F800C08271C0F8C7
:102BF00008C08273C0F810C0827583618277C0F804
:102C000020C080F826208362818580F82E207047BE
:102C100010B543F23C14C2F200042068A188A279E6
:102C2000FEF77CF8A068A189A27BFEF777F82069FF
:102C3000A18AA27DFEF772F8A069A18BA27FFEF7A0
:102C40006DF8206AA18C94F82620FEF767F8A06A38
:102C5000A18D94F82E20BDE81040FEF75FB800006B
:102C60002DE9F04F81B02DED088B82B040F2B00815
:102C7000C2F2000843F2903B9FED3FAA40F2DC0510
:102C80009FED3E8A9FED3E9A6FF005044FF0000ADB
:102C900008F10C07C2F2000B4FF00309C2F2000565
:102CA000002622E04168DBF80020114401910199DF
:102CB00090ED00BA8160017B80F80DA0012998BFDA
:102CC000FFF7A6FF2BEE0A0A05EB8601BCEEC00A51
:102CD00055F82600496810EE102AB0EE480A00F0B8
:102CE00053FD013406F1040640D2385DB95901EBB9
:102CF0000010417BA1B10229D4D00329F1D105EB09
:102D0000860155F826004968026829B308291FD0B2
:102D1000042914BF40233823D2580ABBE1E700BF7F
:102D20008168DBF80020914202D980F80DA0D8E735
:102D3000DBF800209142D4D880F80D90C0E900AAB9
:102D400008EB0400017B013101F07F010173C8E74A
:102D50003C23D25822B9C4E73423D258002AC0D029
:102D60004FF4FA62B0EE490AB9E700BF02B0BDEC19
:102D7000088B01B0BDE8F08F00004845CDCC4C3E3B
:102D80000000000070470000FDF7D4BF70B592B09E
:102D900006AC20463021FDF759FB002543F64000E4
:102DA0000595CDE90355CDE901550095C4F2020022
:102DB0000168022641F080510160006800F08050F7
:102DC0000090009847F200000095C4F200000168EE
:102DD00041F480410160006800F480400090009858
:102DE000012006904FF4803007904FF480000D9042
:102DF00006200E90A020CDE90F0604201190204659
:102E00000C96FEF75FF918B172B600BFFEE700BF7F
:102E10000F20CDE901064FF4A05004904FF48050EC
:102E2000059001A805210395FEF73CF810B172B694
:102E3000FEE700BF12B070BD4EF68850CEF2000023
:102E4000016841F4700101607047000043F23020D6
:102E5000C2F20000FEF754BC80B592B043F23020BD
:102E600000220021C2F20000C4F201020F2340F24E
:102E7000E73C1191CDE90F11CDE90D11CDE90B1111
:102E8000CDE90911CDE90711CDE90511CDE903110E
:102E9000CDE90111C0E90023C0E9021CC0E9041119
:102EA0008161FEF751FE002818BFFDF799FB43F240
:102EB0003020C2F2000010A9FEF71AFB002818BF4C
:102EC000FDF78EFB602009900020CDE90A00CDE9D6
:102ED0000C00CDE90E0043F23020C2F2000009A937
:102EE0000022FEF721FD002818BFFDF779FB43F211
:102EF0003020C2F2000009A90422FEF715FD0028C7
:102F000018BFFDF76DFB43F23020C2F2000009A9A3
:102F10000822FEF709FD002818BFFDF761FB43F208
:102F20003020C2F2000009A90C22FEF7FDFC0028A7
:102F300018BFFDF755FB00200590CDE90300CDE952
:102F400001004FF40051089043F230200691C2F284
:102F5000000001A9FEF7A6FA002818BFFDF740FB04
:102F600043F23020C2F20000FEF772FC12B080BDC6
:102F700043F23020C2F20000FEF7C2BB43F2302021
:102F8000C2F20000FEF7BCBB43F27820C2F20000A0
:102F9000FEF7B6BB80B582B043F2782041F2000262
:102FA0000021C2F20000C4F200024F2340F2E73CCD
:102FB000CDE90011C0E90023C0E9021C8161FEF7E0
:102FC000F5FA002818BFFDF70BFB43F27820C2F298
:102FD00000006946FEF78CFA002818BFFDF700FBD9
:102FE00002B080BD43F2C020C2F20000FEF788BBF1
:102FF00080B592B043F2C02040F200420021C2F2FC
:103000000000C4F201020F2340F2E73C1191CDE928
:103010000F11CDE90D11CDE90B11CDE90911CDE964
:103020000711CDE90511CDE90311CDE90111C0E981
:103030000023C0E9021CC0E904118161FEF784FD90
:10304000002818BFFDF7CCFA43F2C020C2F20000FE
:1030500010A9FEF74DFA002818BFFDF7C1FA60204D
:1030600009900020CDE90A00CDE90C00CDE90E0061
:1030700043F2C020C2F2000009A90022FEF754FC6E
:10308000002818BFFDF7ACFA43F2C020C2F20000DE
:1030900009A90422FEF748FC002818BFFDF7A0FA92
:1030A00043F2C020C2F2000009A90822FEF73CFC4E
:1030B000002818BFFDF794FA00200590CDE9030021
:1030C000CDE901004FF40051089043F2C020069171
:1030D000C2F2000001A9FEF7E5F9002818BFFDF7CC
:1030E0007FFA43F2C020C2F20000FEF7B1FB12B03B
:1030F00080BD000043F2C020C2F20000FEF700BB1A
:1031000043F2C020C2F20000FEF7FABAB0B540F6B2
:10311000FF3E0568C4F2000E40F2004C7045C4F258
:10312000010C25DCB0F1804F2FD040F20043C4F2F7
:103130000003984229D040F60003C4F200039842ED
:1031400023D041F6FF73C4F20003984228DC704597
:103150003ADCB0F1804F5BD040F20043C4F2000390
:10316000984255D040F60003C4F200034EE000BF81
:1031700040F60043C4F20003984206D0604504D0F4
:103180000023C4F201039842DBD14B6825F07002A2
:1031900043EA020541F6FF73C4F200039842D6DD0C
:1031A00043F6FF73C4F2010398421FDC42F20003AE
:1031B000C4F2000398422BD00023C4F201039842CA
:1031C00026D0604524D028E040F60043C4F2000336
:1031D00098421DD041F60003C4F20003984217D074
:1031E00041F60043C4F2000310E000BF44F20003C4
:1031F000C4F2010398420BD044F60003C4F2010369
:10320000984205D044F20043C4F20103984204D12D
:10321000CB6825F4407243EA02050A688C684B6962
:10322000C46240F480648262644504BF096901633A
:10323000026825F0800142F0040219430260012275
:1032400042610160B0BD0000806B0021C185FEF7C6
:10325000E3BE0000806B01684A6990F84130212B81
:103260002DD112F080022AD00021C184016851E8DA
:10327000031F026821F0C00142E80313DBB10168BB
:1032800051E8031F026821F0C00142E8031393B123
:10329000016851E8031F026821F0C00142E80313EE
:1032A0004BB1016851E8031F026821F0C00142E8F8
:1032B0000313002BDAD1202180F8411001684969FD
:1032C00090F84220222A40F07D8011F0400179D010
:1032D0000021C185016851E8031F026821F4907143
:1032E00042E80313BBB3016851E8031F026821F4ED
:1032F000907142E8031373B3016851E8031F026839
:1033000021F4907142E803132BB3016851E8031FC5
:10331000026821F4907142E80313002BDAD11AE01D
:10332000016851E8051F026821F0010142E8051318
:10333000DBB1016851E8051F026821F0010142E894
:10334000051393B1016851E8051F026821F00101DE
:1033500042E805134BB1016851E8051F026821F0EE
:10336000010142E80513002BDAD1016B012924D1B8
:10337000016851E8031F026821F0100142E80313BD
:10338000DBB1016851E8031F026821F0100142E837
:10339000031393B1016851E8031F026821F0100183
:1033A00042E803134BB1016851E8031F026821F0A2
:1033B000100142E80313002BDAD1202180F84210DB
:1033C00000210163416C41F010014164FEF724BE0D
:1033D0000168806B0968C90500F19F800021C185E3
:1033E000016851E8031F026821F4807142E8031369
:1033F000E3B1016851E8031F026821F4807142E8DB
:1034000003139BB1016851E8031F026821F4807126
:1034100042E8031353B1016851E8031F026821F425
:10342000807142E80313002BDAD100BF016851E834
:10343000051F026821F0010142E80513BBB30168D2
:1034400051E8051F026821F0010142E8051373B33A
:10345000016851E8051F026821F0010142E80513E7
:103460002BB3016851E8051F026821F0010142E811
:103470000513002BDAD11AE0016851E8051F026834
:1034800021F0400142E80513DBB1016851E8051F56
:10349000026821F0400142E8051393B1016851E848
:1034A000051F026821F0400142E805134BB1016895
:1034B00051E8051F026821F0400142E80513002B86
:1034C000DAD1202180F84210016B012925D100BFFB
:1034D000016851E8031F026821F0100142E803135C
:1034E000DBB1016851E8031F026821F0100142E8D6
:1034F000031393B1016851E8031F026821F0100122
:1035000042E803134BB1016851E8031F026821F040
:10351000100142E80313002BDAD100214163016B53
:10352000012918BFFFF710B9818DFEF741BD0000DA
:10353000806B01214163016B012918BFFFF706B9B8
:10354000818D4908FEF734BD81B090F842102229E0
:1035500021D183680246B3F5805F09D152F8281F54
:1035600052F8183C002B63D003685B680AE000BF88
:1035700052F8281F13B90369002BF5D003685B6864
:1035800003F07F030B70116801311160C18D0139A7
:103590000A04C18502D001B0704700BF0168CA6843
:1035A00022F02002CA60CA6822F48072CA604A69A6
:1035B00022F001024A61202180F84210002141637B
:1035C000026B012A3CD10163016851E8031F0268C4
:1035D00021F0100142E80313DBB1016851E8031F39
:1035E000026821F0100142E8031393B1016851E829
:1035F000031F026821F0100142E803134BB1016878
:1036000051E8031F026821F0100142E80313002B68
:10361000DAD101680A68D20606D5002200920A684B
:103620000092496800910099818D01B0FEF7C0BCFD
:10363000026852686FF35F2221F8022B8162A5E7CE
:1036400001B0FFF781B80000B0B50446006804F18E
:1036500008030ECB0569194325F440552A4302613E
:103660006269E3691143C268194349F20C639A43E2
:103670001143C1604169A26921F4407141F20043E4
:10368000114340F48062C4F201039A42416103D1C4
:10369000FDF7CEFC02E000BFFDF7B6FCE1694FF696
:1036A0009C7563681922C0F6FF75B1F5004FA0FB49
:1036B00002011FD15A00DB0FFCF7ECFD48F21F514D
:1036C000C5F2EB11A0FB01235A0905F1805302FB5F
:1036D0000300322303EBC000A0FB01014FF4F8709C
:1036E00000EA111000EB0210C1F3421108442168F6
:1036F0008860B0BD9A009B0FFCF7CCFD48F21F51CB
:10370000C5F2EB11A0FB01235A0902FB050032238D
:1037100003EB0010A0FB0101F02000EA511000EBC8
:103720000210C1F34311084421688860B0BD000055
:1037300043F20830C2F20000FEF770BC80B543F2DD
:10374000083041F20001C2F20000C4F2010100237E
:103750004FF00C0C4FF4E13280E80E00C0E9033367
:10376000C0E905C3C361FEF723FF002808BF80BD81
:10377000BDE88040FCF734BFFEE70000FFF7B6F875
:10378000FFF718F9FCE7000070B52DED028B40F251
:103790000803C2F200031B880C4603FB02F146F645
:1037A0000002C0F68912B2FBF1F105688EB2EE623A
:1037B000C66010EE100AB0EE408A00F05DF99FED91
:1037C000220B53EC102B00F097F968B974B3082C56
:1037D00020D0042C4FF0000414BF402038202C507F
:1037E000BDEC028B70BD00BF00EE106AB8EEC00ADF
:1037F00020EE080ABCEEC00A10EE101AE4B1082C44
:103800000ED0042C14BF402038200C462C50BDECA8
:10381000028B70BD00243C202C50BDEC028B70BD8F
:103820003C200C462C50BDEC028B70BD34202C503B
:10383000BDEC028B70BD00BF34200C462C50BDEC9B
:10384000028B70BD00BF00BF9A9999999999B93FB1
:10385000491058BFC1F140415B1058BFC3F140430C
:103860008B42EFF30080704751EA030C17D41CF52C
:10387000801F58BFBCF5801F00F10680994218BF19
:10388000704708BF9042704707D711F5801F58BF97
:1038900013F5801F19D499427047894270471CF56F
:1038A000801F08D5BCF5801FF7D58B4218BF704725
:1038B00008BF824270474FF4001C1CEB410F38BF19
:1038C0001CEB430F01D28B42704770B500F080F8BB
:1038D000922449004FF000514FF08053FFF7B8BFDA
:1038E00051EA030C17D41CF5801F58BFBCF5801F8C
:1038F00000F10680994218BF704708BF9042704798
:1039000007D711F5801F58BF13F5801F19D49942AE
:103910007047894270471CF5801F08D5BCF5801F91
:10392000F7D58B4218BF704708BF824270474FF4EB
:10393000001C1CEB410F38BF1CEB430F01D28B4224
:10394000704770B500F044F8922449004FF0805160
:103950004FF00053FFF77CBF51EA030C17D41CF55E
:10396000801F58BFBCF5801F00F10680994218BF28
:10397000704708BF9042704707D711F5801F58BFA6
:1039800013F5801F19D499427047894270471CF57E
:10399000801F08D5BCF5801FF7D58B4218BF704734
:1039A00008BF824270474FF4001C1CEB410F38BF28
:1039B0001CEB430F01D28B42704770B500F008F842
:1039C000922449004FF000514FF08053FFF740BF61
:1039D0000EF1020E2EF0030E5EF8046B364205D493
:1039E000012A43EB030515F5001F12D8012841EB0E
:1039F000010C1CF5001F0CD80ED14FEAD17C0CEB4A
:103A00004C0C0CF1020C15F5001F08BF4CEBD37CDD
:103A100004E04FF0080C01E04FEAD37C0CEB4C05BE
:103A200026FA05F606F00706B6F1040C06D20EEBF0
:103A3000860CBDE870404CF0010C6047DFE80CF0EC
:103A4000090B02024FF00041A1F500214FF00000E8
:103A500070BD19461046012851EB010418BFD4F57A
:103A6000001484BF002001F0004170BD0808A0F5DB
:103A700000114FEA3101704743004FEAD30C4FEA7F
:103A80003C0C43401FBF40070CF1605113F0FE4F48
:103A900070471CF0006F03D10CF00041002070470C
:103AA0000CF0004343EA507040EACC0010B500F03F
:103AB00038F800BF000000924FEA0001FFF7D6BFC0
:103AC0004FF00041A1F500214FF00000704710B504
:103AD000FFF7CAFE0CBF0120002010BD10B5FFF794
:103AE000C3FE14BF0120002010BD10B5FFF7F8FE83
:103AF0008CBF0120002010BD10B5FFF7F1FE2CBFD8
:103B00000120002010BD10B5FFF726FF94BF012053
:103B1000002010BD10B5FFF71FFF34BF01200020AB
:103B200010BD0EF1020E2EF0030E5EF8044B24427F
:103B300004D44FEA4102B2F17F4F11D84FEA40035B
:103B4000B3F17F4F0CD80ED14FEAD07C0CEB4C0C6C
:103B50000CF1020CB2F17F4F08BF4CEBD17C04E0BA
:103B60004FF0080C01E04FEAD17C0CEB4C0324FA37
:103B700003F404F00704B4F1040C06D20EEB840C39
:103B8000BDE810404CF0010C6047DFE80CF007087E
:103B900002024FF00040A0F5800010BD0846420030
:103BA00018BFD2F1807288BF00F0004010BDF1EE66
:103BB000100A4FF6FF71C0F2C03120EA010040F058
:103BC0004070E1EE100A70470000000000000000A5
:103BD00001020304060708090000000001020304B3
:103BE0000006101600061016083C00080000002011
:103BF00050000000EC010008583C00085000002074
:103C0000483900000C02000801000000100000000C
:103C1000100000000024F40074657374210000009B
:103C20000000000000000000000000000000000094
:103C30000000000000000000000000000000000084
:103C40000000000000000000000000000000000074
:083C500000000000000000006C
:040000050800018965
:00000001FF
