:020000040800F2
:100000002010002075020008B14C0008FD430008D4
:10001000AD4B0008CD0E000801680008000000008C
:10002000000000000000000000000000FD5B000870
:100030000510000800000000BD5B0008CD5D000851
:100040008F0200088F0200088F0200088F0200084C
:100050008F0200088F0200088F0200088F0200083C
:100060008F0200088F0200088F0200088F0200082C
:100070008F0200088F0200088F0200088F0200081C
:100080008F0200088F0200088F0200088F0200080C
:100090008F0200088F0200088F0200088F020008FC
:1000A0008F0200088F0200088F0200088F020008EC
:1000B0008F0200088F0200088F0200088F020008DC
:1000C0008F0200088F0200088F0200088F020008CC
:1000D0008F020008716700088F0200088F02000875
:1000E0008F0200088F0200088F020008ED5E0008F2
:1000F00081600008756000088F0200088F02000808
:100100008F0200088F0200088F0200088F0200088B
:100110008F0200088F020008915E00088F0200081D
:100120008F0200086D0F0008790F00088F02000889
:100130008F0200088F0200088F020008610F00087C
:100140003D0F0008490F0008550F00088F020008F6
:100150008F020008850F0008910F0008B96700089A
:100160008F0200088F0200088F0200088F0200082B
:100170008F0200088F0200088F02000800000000B4
:100180008F0200088F02000800F002F800F062F809
:1001900014A696E8000CB244B344DA4501D100F04D
:1001A00059F8BAE80F000FA696E83000A5EB040551
:1001B00004EB0607AAEB0704A7F101074FEA1515A0
:1001C0004FEA3414A4F10104AC4201D300F042F828
:1001D00013F0010F18BFFB1A43F0010300F001F800
:1001E000DBE71847B4870000D4870000103A24BF2B
:1001F00078C878C1FAD8520724BF30C830C144BF8C
:1002000004680C6070470000704700000023002461
:1002100000250026103A28BF78C1FBD8520728BF16
:1002200030C148BF0B607047662907F04A876429D0
:1002300000F0CC80002070471FB507F030FF00F0C1
:10024000D1FC04000020002107F050F9E0601FBD40
:1002500010B510BD00F0C6FD1146FFF7EDFF06F02A
:1002600059FB00F0E4FD03B4FFF7F2FF03BC00F01C
:1002700025FE00000948804709480047FEE7FEE7E1
:10028000FEE7FEE7FEE7FEE7FEE7FEE7FEE7FEE746
:1002900004480549054A064B704700007D5E00088A
:1002A00089010008200A002020100020200C0020D6
:1002B000200C002053EA020C00F069802DE9F04B7D
:1002C0004FF00006002B1FBFB3FA83F503FA05F4C5
:1002D00024FA05F65E4012BF1643B2FA82F502FA1E
:1002E00005F4C5F120051EBF22FA05FC44EA0C0402
:1002F000203556EA044C4FEA144418BF641C4FF0F2
:1003000000084FF00009904271EB030C39D300292B
:1003100019BFB1FA81F701FA07F6B0FA80F700FACF
:1003200007F6C7F120071EBF20FA07FC46EA0C06B5
:100330002037B6FBF4FCA7EB0507103F07F01F0BB7
:10034000CBF120062CFA06F60CFA0BFB44BFB346A1
:100350000026202FA4BF5E464FF0000B5BEA060C80
:1003600008BF4FF0010B19EB0B0948EB0608ABFB7C
:10037000027C06FB02CC0BFB03CCC01B71EB0C0117
:10038000C1E70B46024641464846BDE8F08B13B52F
:10039000084318BF4FF0FF300146AFF30080BDE8BF
:1003A0001C4070470FB41CB5074B06AA7B44694636
:1003B0000090059800F0CBFB0020694600F0DAFBC6
:1003C0001CBC5DF814FB0000C50700002DE9F041DE
:1003D0000646002410687529314616A510D0AFF3E3
:1003E0000080002802DA404213A507E031688A073E
:1003F00001D512A502E0490704D511A5012401E0A9
:10040000AFF3008000210A2206F1240709E0B0FBC7
:10041000F2FCB0FBF2F302FB1C00303078541846BB
:10042000491C0028F3D123462A463046BDE8F04156
:1004300000F020B9000000002D0000002B0000009B
:10044000200000002DE9F0474FF0000A89460446DD
:10045000C0F820A02046E1688847002876D02528EB
:1004600006D0D4E901219047206A401C2062F1E7C0
:10047000E168204600258847C4F81CA006460027EE
:10048000C4F818A02A2E09D0304607F027F838B350
:1004900004EB8708303EC8F8186019E059F8041BCF
:1004A000204604EB87029161E1688847012F0646E8
:1004B00018D1E069002820DA25F020051DE0D8F8E1
:1004C000180000EB800006EB40003038C8F8180038
:1004D0002046E1688847064607F000F80028EED17C
:1004E000012F0AD02E2E08D12046E16888477F1CB4
:1004F0000646022F45F02005C4DBA069002803DA78
:10050000404245F00105A061E80701D025F0100543
:10051000B6B1A6F14100192802D8203645F400658D
:100520004A463146204625604D46FFF77DFE58B1CC
:10053000012806D0ED1D25F0070000F1080989E724
:1005400004E005F1040985E730468AE7206ABDE842
:10055000F087032A40F2308010F0030C00F0158081
:1005600011F8013BBCF1020F624498BF11F801CBB6
:1005700000F8013B38BF11F8013BA2F1040298BF1B
:1005800000F801CB38BF00F8013B11F0030300F085
:10059000F682083AC0F0088051F8043B083A51F856
:1005A00004CBA0E80810F5E7121D5CBF51F8043B2E
:1005B00040F8043BAFF30080D20724BF11F8013BA1
:1005C00011F801CB48BF11F8012B24BF00F8013B03
:1005D00000F801CB48BF00F8012B70474FF0000234
:1005E0000429C0F0128010F0030C00F01B80CCF145
:1005F000040CBCF1020F18BF00F8012BA8BF20F8B3
:10060000022BA1EB0C0100F00DB85FEAC17C24BF06
:1006100000F8012B00F8012B48BF00F8012B7047B0
:100620004FF0000200B5134694469646203922BF8B
:10063000A0E80C50A0E80C50B1F12001BFF4F7AFD6
:10064000090728BFA0E80C5048BF0CC05DF804EBB8
:10065000890028BF40F8042B08BF704748BF20F826
:10066000022B11F0804F18BF00F8012B7047704724
:10067000704770472DE9F0470D469946924604466B
:1006800000F124080168880604D5E06921F0100112
:10069000216000E00120A84201DD471B00E00027A7
:1006A000A1697A1902EB0900081AA0612078C00636
:1006B00002D42046AFF30080002608E0D4E90121EF
:1006C0001AF806009047206A401C761C20624E45AE
:1006D000F4DB2078C0060AD52046AFF3008006E0A0
:1006E000D4E9012130209047206A401C2062381E46
:1006F000A7F10107F4DC07E0D4E9012118F80500AF
:100700009047206A401C2062281EA5F10105F3DCF9
:100710002046AFF300802078000602D50220BDE815
:10072000F0870120FBE72DE9FF4F0C461E464FF0F6
:10073000FF378BB0D2E90001DDF860800A908A466D
:10074000C1F30A5505B93D46002108464FF00000A7
:10075000BAF1000F00F4400005DA00EB80004FF41E
:10076000400101EA50004FEA9059B9F1010F00DD54
:10077000B9460A9850EA4A000ED044F61050A5F245
:10078000FF3545432F14B8F1000F1ED07542291EC6
:100790001EDDC9F100021CE0B8F1010F4FF00000AE
:1007A00001D0302103E0F24305E02154401CB04267
:1007B000FBDB30460022002121540B99C1F8088050
:1007C000C1E900200FB0BDE8F08FBD1B6D1CDEE756
:1007D0004A4600DA694206A800F08EFA06AB93E8B2
:1007E000070003AB83E8070050460A9906F096FA23
:1007F0008DE80700A0F500501F3800900398002DE9
:100800000ADD42F21F014A460844002303A903906F
:10081000684606F0FFFC09E0A0F500504A461F3884
:10082000002303A90390684606F009FD8DE8070040
:100830000004000C03D04FF0FF30410800E01046E8
:10084000B8F1000F03D00022009215461EE0751E7D
:1008500005D400F0CBF9303262556D1EF9D5B346A0
:100860000122084302D000227F1C04E020783028B7
:1008700001D100227F1E002A099784D01DE0112D8E
:1008800007DA00F0B3F9303262556D1C50EA01020C
:10089000F5D1084302D00098C8B10EE00021681ECF
:1008A00005E0235C625C63542254401E491C814273
:1008B000F7DBAB46A81B401E0990002004F80B0094
:1008C0000B98099AC0F80880C0E9002B7AE7112636
:1008D0004FF0000857E72DE9F04F88460446D21D37
:1008E00022F0070191B0D1E90001CDE90A0106F03B
:1008F000DDFD02460B98C00F01D02D2007E02068D7
:10090000810701D52B2002E0202101EAC000032A43
:10091000099001D0072A05DB03464146204600F036
:10092000ABF90BE12078800601D5E06900E00620F4
:10093000B8F1650F814606D0B8F1660F18D0B8F14E
:10094000670F70D131E00020B9F1110F009001DB89
:10095000112301E009F101030AAA01A90CA8FFF77C
:10096000E2FEDDE90C70002609F10105834647E04F
:1009700001204B4600904FF000470AAA01A90CA89D
:10098000FFF7D1FEDDE90DB00C995D46002610B9E8
:1009900009F101000D18B9EB050003D4C0F1FF36D1
:1009A00009F10105A5EB09002BE0B9F1010F01DA0E
:1009B0004FF001090020B9F1110F0090484601DD08
:1009C000112300E003460AAA01A90CA8FFF7ABFE19
:1009D000DDE90C704D4600268346207800070AD4D6
:1009E000AB4500DA5D4601A8012D04DD411911F87F
:1009F000011C302907D04F4502DA17F1040F04DA41
:100A0000012082460FE06D1EEEE7002F02DCED1B99
:100A10003E4403E0781CA84200DD7D1CB81B00F1B9
:100A2000010A4FF000472078000703D4AA4501DBF4
:100A30004FF0FF3A0021B7F1004F0DF143088DF858
:100A4000431024D002202B23002F01DA7F422D23D4
:100A50000A21021EA0F1010000DC5FB197FBF1FC4E
:100A600097FBF1F201FB1C7C17460CF1300C08F8E7
:100A700001CDEEE7A8F1010003702188090501D539
:100A8000452100E06521A0F1010800F8011C09984A
:100A90000FA9A1EB0807FF1D00B10120411901EBCF
:100AA000EA70A1693844081A401EA0612078C00687
:100AB00002D42046AFF30080099828B1D4E901217F
:100AC0009047206A401C20622078C00622D520462C
:100AD000AFF300801EE0002E04DBB34502DD01A869
:100AE000805D00E03020D4E901219047206A401C5D
:100AF0002062761CAAF101005FEA000A0AD100F028
:100B000071F8C0680168405CD4E901219047206A0F
:100B1000401C2062281EA5F10105DCDC07E0D4E9B9
:100B2000012118F8010B9047206A401C2062381EF2
:100B3000A7F10107F3DC2046AFF30080032011B0DA
:100B400041E6000001694A1C02610878704700B55F
:100B50008FB0CDE901310021059105497944CDE9F6
:100B6000031011466846FFF76DFC0FB000BD000092
:100B7000E5FFFFFF0A6802F8010B0A60704710B535
:100B8000203AC0F00B80B1E81850A0E81850B1E846
:100B90001850A0E81850203ABFF4F5AF5FEA027C85
:100BA00024BFB1E81850A0E8185044BF18C918C0B5
:100BB000BDE810405FEA827C24BF51F8043B40F856
:100BC000043B08BF7047D20728BF31F8023B48BF3B
:100BD00011F8012B28BF20F8023B48BF00F8012B79
:100BE0007047000000487047D000002030B5B0F1D9
:100BF0000A0271F100034FEA900E4EEA817EB0EBDB
:100C00000E0061EB91014FEA101E4EEA017E10EBDF
:100C10000E0041EB11114FEA102E4EEA016E10EB5F
:100C20000E0041EB11214FEA104E4EEA014E10EB3F
:100C30000E0041EB1141401841F100014FEAD00094
:100C400040EA41704FEAD1014FEA810444EA9074CE
:100C500010EB800544EB01046D1944EB0404521BB6
:100C6000A3414FF0000348BF0A3200D530BD401CFD
:100C700041F1000130BD00002DE9F0411F4604465E
:100C800003260168072A01F4006004DB08B116A5F9
:100C900005E016A503E008B115A500E015A521F0B3
:100CA00010002060A069C01EA0610FB1401EA061AD
:100CB0002046AFF300804FB1D4E901213846904778
:100CC000206A401C2062C01C206206E0206AFAE70D
:100CD000D4E9012115F8010B9047761EF8D2204681
:100CE000AFF30080BDE8F0814E414E006E616E00B2
:100CF000494E4600696E66002DE9F047814616466A
:100D00008AB0354878440DC88DE80D0032487844E3
:100D1000801C03AC0DC884E80D0041F69B300844EC
:100D2000372190FBF1F290FBF1F5A5F1800501FB75
:100D300012041B3C02D56442012000E00020DFF8D1
:100D400098A080460027FA44AAF1BE0A0EE0E00708
:100D50000AD03246684607EB470101230AEB8101BE
:100D600006F06DFA8DE8070064107F1C002CEED1B0
:100D7000194F7F44AE3F19E0E80715D007EB041088
:100D80000DF1180A90E80E008AE80E00C068F042E3
:100D900001D1981908903246012306A903A806F04C
:100DA0004EFA03AB83E807006D10641C002DE3D1FD
:100DB0004FF0010332466946B8F1000F03A802D094
:100DC00006F028FA01E006F03AFAC9E90001C9F88C
:100DD00008200AB0BDE8F0873C7400000048704766
:100DE000B00000207546FFF7F9FFAE4605006946E2
:100DF000534620F00700854618B020B5FFF748FAA3
:100E0000BDE820404FF000064FF000074FF000080B
:100E10004FF0000BAC46ACE8C009ACE8C009ACE848
:100E2000C009ACE8C00921F007018D46704710B534
:100E30000446AFF300802046BDE81040FFF713BA28
:100E400030B44FF0013C50F8042B51F8043BCCFA7D
:100E500052F4D51A20D1FCB950F8042B51F8043BB8
:100E6000CCFA52F4D51A17D1B4B950F8042B51F872
:100E7000043BCCFA52F4D51A0ED16CB950F8042BBD
:100E800051F8043BCCFA52F4D51A05D1002CDAD033
:100E900030BC4FF00000704729BAB1FA81F111F06F
:100EA0001801D1F120008440F2D1CA40CB4012F0A9
:100EB000FF0213F0FF0330BCD01A7047014918201D
:100EC000ABBEFEE72600020070470000FEE7000010
:100ED00010B58AB040F2B85046F60001C2F20000E8
:100EE000C4F2000100244FF420234FF4E00C04224C
:100EF00080E81600C0E90343C0E905C4848300F01C
:100F0000B5FB002818BF00F07FF80E20CDE90504DE
:100F10000120CDE9070040F2B850C2F20000694656
:100F20000994CDE90044CDE90244049400F064F949
:100F3000002818BF00F068F80AB010BD40F2B850A1
:100F4000C2F2000000F062BA40F2B850C2F20000F3
:100F500000F05CBA40F2B850C2F2000000F056BA9D
:100F600040F2B850C2F2000000F050BA40F2A06067
:100F7000C2F2000000F00CBE40F2E050C2F20000ED
:100F800000F006BE40F20070C2F2000000F000BEA9
:100F900040F24060C2F2000000F0FABD80B582B0BD
:100FA0000020019043F63000C4F2020001680022E4
:100FB00041F4800101600068002100F4800001908C
:100FC0000198392001F0D6FA392001F0C1FA3A200F
:100FD0000021002201F0CEFA3A2001F0B9FA4520B2
:100FE0000021002201F0C6FA452001F0B1FA4620A6
:100FF0000021002201F0BEFA462002B0BDE8804088
:1010000001F0A6BA7047000072B600BFFEE700000C
:101010002DE9F04186B0002643F630000596CDE973
:101020000366CDE901660096C4F20200016840F251
:10103000004441F0400101600168C4F2020401F083
:1010400040010091009900960168002241F00201E0
:10105000016001684FF4704801F0020100910099AD
:101060000096016841F480710160016801F48071AB
:10107000009100990096016841F02001016001682B
:1010800001F02001009100990096016841F00101F2
:101090000160016801F0010100910099009601686A
:1010A00041F080010160016801F080010091009928
:1010B0000096016841F004010160016801F004013B
:1010C000009100990096016841F0100101600068EC
:1010D0004FF4704100F0100000900098204601F09D
:1010E00027F801AD0127A4F580602946CDE90176F6
:1010F000039600F047FF20462946CDE90187CDE958
:10110000036600F03FFF4FF42850CDE9010704F5D6
:1011100040602946CDE9036600F034FF06B0BDE823
:10112000F081000090F82020013A012A08D80068D8
:1011300000F114020020136819431160704700BFCA
:1011400000F1240201204FF480211368194311603B
:101150007047000010B590F820E0D0F800C0AEF164
:10116000010EBEF1010FDCF808E011D81EF0E05FBF
:1011700018D0CEF301640120A04018608B68DBB169
:10118000D1F804E0C86840EACE0040EA030E17E058
:1011900000F1240301204FF480211A6811431960E3
:1011A00010BD00BF00F1240301204FF400111A68A4
:1011B0001143196010BD00BF0868CB6843EA405E68
:1011C0000CF5C07000EB0413240140F804E00C6936
:1011D000184640F8044F097D012903D1016841F404
:1011E0008071016050680121D8601068986000200B
:1011F0001A681143196010BD90F82020013A012AA5
:1012000030D8B0B546F20060C4F20000026842F087
:1012100001020260026822F47C520260D1F814E0FC
:10122000CC694A6A0368012C43EA022202600EF08C
:101230001F024FF0010303FA02F2C3696FEA020CC6
:1012400023EA0203C36113D02CBBC36803EA0C0377
:10125000C360CB688C8844EA034300EBCE0423646C
:101260000B4611E0416A41F4802141620120704740
:10127000C3681343C3600B688C8844EA034300EBE4
:10128000CE04236401F10C038C681B8843EA0443F9
:1012900000EBCE04636443688D6943EA0204D1F82D
:1012A00010E0096A002D08BF03EA0C04446043699A
:1012B000BEF1000F43EA020408BF03EA0C0401294F
:1012C000446102D1C1691143C161016821F001018A
:1012D00001600020B0BD000070470000B0B590F87C
:1012E0002040013C012C7DD8D0F800C000290CBF63
:1012F000DCF80C40DCF81040A4077DD00CF5D87564
:101300004FEA011C55F80C4014F00404946055F8A1
:101310000CE005EB011C19BF4FEADE0555604FEAF2
:101320005E551560DCF80050E64605F00205D56014
:101330005EF8044F24075ABFDEF8004004F00F04A3
:1013400008241461DEF800400029C4F307249461E6
:10135000DEF800504FEA15455561DCF808201A7098
:10136000026802EB0112D2F8B8214FEA12225A7039
:10137000026802EB0112D2F8B8214FEA12429A70C9
:10138000026802EB0112D2F8B8214FEA1262DA7059
:10139000026802EB0112D2F8BC211A71026802EB5A
:1013A0000112D2F8BC214FEA12225A71026802EBF4
:1013B0000112D2F8BC214FEA12429A71026802EB84
:1013C0000112D2F8BC214FEA1262DA7100680CBF38
:1013D00000F10C0100F11001002020220B681A43DB
:1013E0000A60B0BD00F1240101204FF480220B6897
:1013F0001A430A60B0BD00BF00F1240101204FF480
:1014000000120B681A430A60B0BD00002DE9F04FCE
:1014100081B0044600684669D0F804908768D0F827
:101420000CB0D0F810A0D0F81880F10704D1002536
:1014300030071DD424E000BFF90710D00121BA07FE
:10144000816009D4780700F1AF80380700F1B680D9
:10145000204600F035FB02E0204600F033FB00257B
:10146000F80500F18780F80300F1B180300707D557
:101470001BF0100004D0206845F400751021C160F5
:10148000700708D51BF0080005D020680821C1604E
:10149000204600F0CDF9B00706D52068C068800767
:1014A00002D0204600F0C6F9700607D51AF01000E9
:1014B00004D0206845F4806510210161B00608D58C
:1014C0001AF0080005D0206808210161204600F0CC
:1014D000C3FAF00606D520680069800702D02046CE
:1014E00000F0BCFAB00308D519F0100005D0206850
:1014F00010214160204600F0B3FAF00308D519F03E
:10150000080005D0206808214160204600F0E4FA78
:10151000300440F19B805FEA497040F1948006F40A
:10152000807008EA102028435FEA8871014648BFAE
:1015300041F00201B20558BF01465FEA48700D460E
:1015400048BF45F00405700558BF0D46300540F111
:101550007A8018F0700000F07680103800090528B5
:101560006CD8DFE800F003655D61596945F0080556
:1015700064E000BF20684FF48071BA0581600BD42D
:10158000780515D438051DD4204600F09DFAF803DF
:101590007FF56CAF1BE000BF204600F097FAF80320
:1015A0007FF564AF13E000BF4FF4006558E700BF5C
:1015B00005F50055F8037FF559AF08E04FF4805565
:1015C0004EE700BF05F58045F8037FF54FAF206873
:1015D0004FF48031BA0381600AD4780310D4380301
:1015E00014D4204600F074FA30073FF541AF47E7C6
:1015F000204600F06FFA30073FF53AAF40E700BFF2
:1016000005F5004530073FF533AF39E705F580357F
:1016100030073FF52DAF33E745F080050EE000BF02
:1016200045F020050AE000BF45F0400506E000BF98
:1016300045F0100502E000BF45F48075206881691F
:1016400021F07001816120680421416055B1606A18
:1016500040EA05012046616201B0BDE8F04FFFF7A6
:101660003BBE00BF01B0BDE8F08F0000002804BF02
:1016700001207047B0B5044690F8200010B920460C
:1016800000F06EF82068016841F00101016000F08F
:1016900055FD054620684168C90705D100F04EFD9B
:1016A000401B0B28F6D310E0016821F00201016015
:1016B00000F044FD054600BF2068416889070DD54C
:1016C00000F03CFD401B0B28F6D3606A052140F476
:1016D00000306062012084F82010B0BD217E0268D5
:1016E000012922F0800208BF80320260617E026818
:1016F000012922F0400208BF40320260A17E026848
:10170000012922F0200208BF20320260E17E026837
:10171000012922F0100218BF10320260217F0268F6
:10172000012922F0080208BF08320260617F0268C6
:10173000012922F0040208BF04320260D4E901C288
:10174000D4E9033561691A432A431143ACF101021C
:101750001143C16100200121606284F82010B0BDF6
:1017600080B586B046F600010068C4F20001002290
:1017700088420592CDE903220292019202D006B07E
:1017800080BD00BF43F640000092C4F2020003682F
:1017900043F080630360036803F080630093009B61
:1017A0000092036843F000730360036803F0007362
:1017B0000093009B009250F8103C43F0020340F865
:1017C000103C50F8100C00F00200009000986020CF
:1017D00001900220CDE90202032004900920059027
:1017E00001F5CE3001A900F0CDFB3F2002210022FF
:1017F00000F0C0FE3F2000F0ABFE402000210022A0
:1018000000F0B8FE402000F0A3FE4120002100229D
:1018100000F0B0FE412000F09BFE42200221002299
:1018200000F0A8FE422000F093FE06B080BD00004C
:10183000704700002DE9F0478AB003AA01AB0021F0
:10184000FFF74CFD10B10AB0BDE8F087DDF80C9051
:10185000DDF81CA09DF804E0B9F1010F08BFBAF152
:10186000080F31D0B9F10200B0FA80F04FEA501CF5
:1018700008BFBAF1080F49D0AAF10400B0FA80F00D
:101880004309AEF13200B0FA80F0B9F1010F4FEA2E
:10189000501008BFBAF1040F72D1BEF1320F6FD1F0
:1018A0009DF805409DF806509DF8071062193332E7
:1018B000D2B28A42C7D140F2201245EA0421C2F2D4
:1018C000000211815CE000BFBEF1310FCAD19DF86A
:1018D00005009DF806409DF807309DF8085007194F
:1018E0001F449DF809607A199DF80A7032443A4401
:1018F00032329DF80B10D2B28A42A4D140F22018A5
:101900004FF0000CC2F200081FE000BFBEF1310F23
:10191000B2D19DF805009DF806409DF807309DF86E
:101920000850011919449DF8096029449DF80A706E
:101930003144394433319DF80B20C9B291427FF4D0
:1019400082AF40F23018C2F20008000440EA0421DD
:10195000C8182A04B0F5000042EA06224FF0000041
:1019600042EA036270F1000340F20003CFF6FF7316
:1019700043EA11233A4438BF0B0AC8E90023002385
:10198000BCF1000F18BF002B2CD1B9F1010F08BF1B
:10199000BAF1060F3CD0AAF10600B0FA80F0400977
:1019A00000EA0C00012808BFBEF1330F7FF44BAFF3
:1019B0009DF805009DF806109DF807200EEB000627
:1019C0009DF808300E4416441E449DF809700236F6
:1019D000F6B2BE427FF437AF40F23017C2F20007D2
:1019E0002FE000BF0028D0D09DF805009DF80630FC
:1019F0009DF80710C2183432D2B28A427FF423AF66
:101A000040F2301143EA0020C2F200010881BCE735
:101A1000BEF1330FBFD19DF805009DF806109DF86B
:101A200007209DF80830471817441F4434379DF8A5
:101A30000960FFB2B7427FF406AF40F22017C2F24E
:101A40000007000440EA012010440C3743EA00205C
:101A500038600AB0BDE8F0877047000070470000AA
:101A600070470000B0B5044690F8200001281DD151
:101A7000022084F820002068016821F00101016043
:101A800000F05CFB054600BF20684068C00713D02B
:101A900000F054FB401B0B28F6D3606A40F4003082
:101AA0006062052084F820000120B0BD606A40F427
:101AB000002060620120B0BD00206062B0BD000067
:101AC000704700007047000070470000704700003A
:101AD00070470000704700007047000070B5866DC9
:101AE000044600F02BFB94F83510022928D1054656
:101AF0002068216C026822F016020260426922F01E
:101B00008002426109B9A16C19B1016821F0080194
:101B10000160016821F00101016000BF20680068D8
:101B2000C00715D000F00AFB401B0628F6D3202082
:101B30006065032084F83500002184F8341070BDFE
:101B4000802060650120002184F8341070BD00BF42
:101B5000E06D3F2101FA00F0B060012084F835000B
:101B60000020002184F8341070BD000090F835107A
:101B7000022909D1052180F835100068016821F09B
:101B800001010160002070478021416501207047FC
:101B9000F0B581B00021009140F29401C2F2000141
:101BA0000B68D0E9166148F2B51537680822C1F60E
:101BB0004E358A403A42A3FB05350CD003681C68B9
:101BC000640708D51C6824F004041C60B260426DF0
:101BD00042F00102426501228A403A4208D003687D
:101BE0005B691B0604D5B260426D42F00202426599
:101BF00004228A403A4208D003681B689B0704D538
:101C0000B260426D42F00402426510228A403A42BC
:101C100019D001680B681B0715D5B2600B680A68FC
:101C20005B0309D4D20509D40A6822F008020A60CD
:101C3000016C29B907E000BF110341D4016C11B157
:101C4000044688472046C26D202101FA02F33B4238
:101C500043D001680F68FF063FD5B36090F8357038
:101C60000B68052F1CD123F016030B604B6923F082
:101C700080034B61036C0BB9836C1BB10B6823F0C1
:101C800008030B603F219140B160012180F83510BD
:101C9000016D0022002980F8342054D158E000BFA3
:101CA0000A685B0310D4D20512D40A6822F010022D
:101CB0000A60012180F83510002180F8341007E017
:101CC000816C0029BCD1BEE7110301D4416C00E056
:101CD000C16B11B1044688472046416DC1B3416DC7
:101CE000C9072ED0052180F835100168AA0A0B68B3
:101CF00023F001030B60009B0133934200931AD839
:101D00000B68DB0717D0009B01339342009312D876
:101D10000B68DB070FD0009B0133934200930AD876
:101D20000B68DB0707D0009B01339342009302D876
:101D30000B68DB07DFD1012180F83510002180F826
:101D40003410C16C21B101B0BDE8F040084700BFBC
:101D500001B0F0BD2DE9F041044600F0EFF9ECB11F
:101D60000546022084F835000020216884F83400FC
:101D7000086820F00100086021680868C00711D0D9
:101D800000F0DCF9401B0528F6D9032520230320A9
:101D9000636584F83550BDE8F08100BF0120BDE8DF
:101DA000F08100BF086848F23F02CFF21002D4E988
:101DB000013500EA020C04F10C0898E8C10143EA7D
:101DC0000C032B431843D4E9072E30433843104308
:101DD000626A40EA0E00042A40EA08031CD1206B24
:101DE000D4E90A2E40EA0E00184308604869BEF1A3
:101DF000000F20F0030040EA020040F0040C11D074
:101E0000B8F5005F36D0B8F1000F45D1022A46D0B0
:101E1000012A3BD032B942E00B60486920F007004C
:101E200040EA020C01F0F8004AF6AB221038CAF67C
:101E3000AA22A0FB02231A0948F68C13C1F814C089
:101E4000C0F600039A5C40F2FF335F284FF03F007A
:101E500021EA030100FA02F088BF0431C4E9161236
:101E60008860002301250020636584F83550BDE8B3
:101E7000F08100BF032AD5D8012540230120DFE8E7
:101E800002F0030E030500BF82E700BFAEF1C07091
:101E9000B0FA80F0400904E0032A04D3C2D1CEF3A3
:101EA00000600028BED0012540230120636584F82E
:101EB0003550BDE8F081000090F834C0BCF1010F4E
:101EC00004BF0220704770B54FF0010C80F834C099
:101ED000D0F858E090F835C0BCF1010F38D14FF080
:101EE000020C80F835C04FF0000CC0F854C0D0F898
:101EF00000C08468056CC06DDCF80060402C26F4DE
:101F00008026CCF80060CCF804300B4604BF1346A2
:101F10000A463F2101FA00F0CCF80830CCF80C203A
:101F2000CEF80800DCF8000040F01600CCF8000005
:101F30002DB1DCF8000040F00800CCF80000DCF81F
:101F4000000040F00100CCF80000002070BD00BF90
:101F5000002180F83410022070BD0000B0B50446A6
:101F600000F0ECF8054640F28800C2F2000000786C
:101F7000611C18BF044400BF00F0E0F8401BA04201
:101F8000FAD3B0BD2DE9F04F83B000F1200200F18B
:101F90003E4741F60045009207F1FF77C4F2020583
:101FA00008224FEAB726A84208BF072200254FF0B3
:101FB00000084FF00009072E38BF4FEAB722019200
:101FC0000AE000BF09F1010908F10208B9F1100F98
:101FD00005F1040500F0A2800F68012202FA09FE53
:101FE00017EA0E0AEED0D1F804C003220CF0030762
:101FF0007E1E02FA08F4012E6FEA040B12D88468E0
:10200000CE6804EA0B0406FA08F634438460446898
:1020100024EA0E06CCF3001404FA09F426434660C1
:1020200004E000BF032F01D103271EE0C6688C68BF
:1020300006EA0B0604FA08F42643022FC66014D100
:102040006FF00302009E02EA590756F807C005F038
:102050001C040F220B69A2402CEA0202A3401A437F
:10206000F251D1F804C00CF00307026807FA08F334
:1020700002EA0B021A431CF4403F0260A2D0002285
:1020800043F644030292C4F202031A6843F6004482
:1020900042F480421A601A68C4F2010402F48042D9
:1020A0000292029A29F003024FF6084C2244CFF61E
:1020B000FF7C52F80C3005F00C070F26BE40B343EE
:1020C000019E06FA07F73B4342F80C30A2684B68C2
:1020D00042EA0A0743F60C4CDE0258BF22EA0A071E
:1020E000A760C4F2010CDCF800209E0242EA0A0755
:1020F00058BF22EA0A07CCF8007062689E0342EAE1
:102100000A0758BF22EA0A0767602268DB0342EA2F
:102110000A0758BF22EA0A07276053E703B0BDE861
:10212000F08F00000069084018BF012070470000D0
:10213000002A08BF090481617047000040F618209A
:10214000C2F2000000687047002804BF01207047F9
:10215000F0B581B0044690F83D0028B9002084F81D
:102160003C00204600F050F9242084F83D0020680F
:10217000016821F001010160016841F40041016042
:10218000016821F40041016000F0E2FA636848F25E
:10219000A16CC0F2010C40F60011C0F23D01634594
:1021A0003CBF48F28041C0F21E01884202D20120A9
:1021B00001B0F0BD4DF68361C4F21B31A0FB0112EA
:1021C0002168970CD1F804E04FF496762EF03F0585
:1021D00045EA92454D60774348F638160D6AC0F2DD
:1021E0004106A7FB067625F03F07634538BF960CEE
:1021F000721C3A430A62CA6948F2A0664CF6FF773D
:10220000C0F20106B34222EA07020BD801385B0094
:10221000B0FBF3F001306FF31F30042898BF0420A7
:102220001BE000BFA768013857B119277B43B0FBFB
:10223000F3F001306FF31F3070B100F5804007E01C
:1022400003EB4303B0FBF3F001306FF31F3018B121
:1022500000F5004001E000BF01201043C86108689C
:10226000D4E9072320F0C0001043184308608868B1
:1022700048F2FF3204F10C0790438CCF184310430F
:10228000A6698860C86820F0FF0038433043C86002
:10229000086840F00100086000202021206484F8D4
:1022A0003D10206384F83E0001B0F0BD2DE9F043FD
:1022B00083B0994616460F460446FFF73FFF94F851
:1022C0003D10202924D10546206800BF8169890777
:1022D0001AD5FFF733FF411B20681A29F6D381690D
:1022E0008907F3D500202021206384F83D1084F86D
:1022F0003E00216C41F02001216484F83C00022062
:1023000003B0BDE8F08300BF94F83C10012903D16D
:10231000022003B0BDE8F083012284F83C2003686A
:10232000DDE90B180A9ADB0703D1036843F00103C8
:102330000360036823F400630360212084F83D00F8
:10234000402084F83E000020206462626185608D38
:10235000394620850020CFF6FF70E06220463246E5
:102360004B46CDE9008502F06DF818B1012003B0AD
:10237000BDE8F083208D98B9204641462A4602F0F8
:10238000C5F888B3206C0428F0D12068016841F4B6
:1023900000710160012003B0BDE8F0830004EBD0C0
:1023A000204641462A4602F061FA0028EAD1616AD5
:1023B0002268084610F8013B1361238D6062581EA5
:1023C0002085678D013F678557697F07E6D507043C
:1023D000E4D048781061881C6062981E2085618D69
:1023E00001396185DAE700BF2068016841F40071B6
:1023F0000160202084F83D00002084F83E0084F82D
:102400003C0003B0BDE8F083B0B586B045F60001EE
:102410000068C4F20001002488420594CDE9034419
:102420000294019402D006B0B0BD00BF43F630055F
:102430000094C4F20205286840F020002860286853
:1024400000F02000009000980320019012200290DC
:102450000120CDE903000420059001F5DE3001A93B
:10246000FFF790FD0094286940F4800028612869F6
:1024700000F480000090009806B0B0BD40F28800E3
:1024800040F61821C2F20000C2F2000100780A688A
:10249000104408607047000080B543F60040C4F265
:1024A0000200016841F400710160016841F480613B
:1024B0000160016841F480710160032000F086F83A
:1024C000002000F005F800F027F8002080BD000093
:1024D00070B540F28806C2F2000640F294013278EC
:1024E000C2F200014FF47A730968B3FBF2F20446BA
:1024F000B1FBF2F1084600F05FFB0F2C4FF0010535
:1025000008D838B94FF0FF3021460022002500F0EE
:1025100031F87460284670BD82B0002043F6400157
:102520000190C4F202014A6842F480424A604A685B
:1025300002F480420192019A0090086840F08050B5
:102540000860086800F080500090009802B0704762
:10255000002848BF704700F01F01012202FA01F174
:102560001C2202EAD0004EF20012CEF2000281508C
:102570007047000010B54EF60C5CCEF2000CDCF893
:102580000030C3F3022E8EF00704042C28BF04246D
:10259000BEF103034FF0FF3E0EFA04F438BF0023F0
:1025A000A14399400EFA03F39A43114300F00F023E
:1025B00000F160430901043A03F5644362440028D2
:1025C00048BF02F10C03197010BD00004EF60C510B
:1025D000CEF200010A684FF6FF031A4060F30A22A8
:1025E00042F0806040F0FD7008607047002804BF32
:1025F000012070472DE9F04143F60808C4F20208B3
:102600000446D8F8F8030D4600F00700884207D2C8
:1026100088F8F853D8F8F80300F00700A84277D1FB
:102620002068810717D5410705D5D8F8001041F477
:10263000E051C8F80010010705D5D8F8001041F4A2
:102640006041C8F80010D8F80010A26821F0F0012D
:102650001143C8F80010C00740D1D8F8F80300F0C3
:102660000700A84207D988F8F853D8F8F80300F013
:102670000700A8424CD12068410707D5D8F80010C0
:10268000E26821F4E0511143C8F80010000708D5B2
:10269000D8F80000216920F4604040EAC100C8F881
:1026A000000000F07DF8D8F8001048F25C12C1F389
:1026B0000311C0F60002515C40F2940220FA01F1CD
:1026C00040F28C00C2F200000068C2F20002116009
:1026D000FFF7FEFE0020BDE8F08100BF6068811EAC
:1026E000022907D258F8081C89015CBF0120BDE807
:1026F000F08111E0012807D158F8081C89035CBF5C
:102700000120BDE8F08107E058F8081C890703D4D0
:102710000120BDE8F08100BFD8F8001021F00301CE
:102720000843C8F80000FFF709FD064641F2883764
:10273000D8F80000616800F00C00B0EB810F8CD07D
:10274000FFF7FCFC801BB842F2D90320BDE8F08102
:1027500040F2940043F60801C2F20000C4F2020104
:102760000068096848F26C12C1F38221C0F60002C9
:10277000515CC8407047000040F2940043F60801E5
:10278000C2F20000C4F202010068096848F26C124B
:10279000C1F34231C0F60002515CC84070470000EE
:1027A00010B543F60404C4F20204606800F00C00A3
:1027B00008280BD0042819BF42F20040C0F2F400F0
:1027C00041F60030C0F2B70010BD00BF206821689C
:1027D0002368490241F60031C0F2B70100F03F0220
:1027E000C3F388105CBF42F20041C0F2F401A1FBC8
:1027F00000010023FDF75EFD21680222C1F30141C3
:1028000002EB4101B0FBF1F010BD0000002804BF55
:10281000012070472DE9F04182B00446007843F66C
:102820000006C007C4F202060CD0B06800F00C002D
:10283000042840F081803068800303D56068002858
:1028400000F06881207880071BD5B06810F00C0F6D
:1028500009D0B06800F00C00082840F0878070684C
:10286000400200F183803068800703D5E0680128CA
:1028700040F050813068216920F0F80040EAC10042
:1028800030602078000713D4207840072AD4A56947
:10289000002D00F03A81B06800F00C00082840F0EC
:1028A000A580012D40F00E81012002B0BDE8F0812D
:1028B0006069002800F082800020C4F247200121D6
:1028C000C0F8801EFFF73AFC054600BF706F800716
:1028D000DAD4FFF733FC401B0228F7D9032002B0FB
:1028E000BDE8F081306C5FEAC0080AD40020019096
:1028F000306C40F080503064306C00F080500190BB
:10290000019847F20007C4F200073868C00547D4B1
:10291000386840F480703860FFF710FC054600BF4F
:102920003868C0053CD4FFF709FC401B0228F7D9E2
:10293000032002B0BDE8F081B06800F00C00082868
:1029400003D1706840023FF576AF61683068B1F539
:10295000803F07D0B1F5A02F40F09A8040F480204E
:102960003060306840F4803030609AE0E0680028E1
:1029700040F20000C4F247205CD001210160FFF763
:10298000DDFB0546306880073FF574AFFFF7D6FBE7
:10299000401B0228F6D9032002B0BDE8F08100BF39
:1029A000A168306F012905D0052955D140F00400F8
:1029B0003067306F40F00100306756E00020C4F20D
:1029C00047200021C0F8801EFFF7B8FB054600BF76
:1029D000706F80077FF558AFFFF7B0FB401B0228F0
:1029E000F6D9032002B0BDE8F08100BF0027C4F291
:1029F000472700203866FFF7A1FB022D05460DD1C1
:102A00003068800140F18A80FFF798FB401B022864
:102A10004FF00300F4D902B0BDE8F08130688001C6
:102A200073D5FFF78BFB401B02284FF00300F5D94D
:102A3000F1E700BF00210160FFF780FB054600BF02
:102A4000306880077FF51DAFFFF778FB401B022839
:102A50004FF00300F4D9DEE720F001003067306F5B
:102A6000002920F0040030677AD0FFF767FB0546A5
:102A700041F28837306F800700F18480FFF75EFBFA
:102A8000401BB842F6D9032002B0BDE8F08100BF78
:102A900020F4803030603068002920F480203060DD
:102AA0007AD0FFF74BFB0546306880033FF5CAAE8E
:102AB000FFF744FB401B6428F6D9032002B0BDE8B1
:102AC000F08100BF7068E16900F480028A4221D180
:102AD000216A00F03F028A421CD147F6C071626A47
:102AE0000140B1EB821F15D1A16A4FF6FF73C903F4
:102AF000994300F44032A1F580318A420AD1E16A5B
:102B000000F07060B0EB016F04D1002002B0BDE8AE
:102B1000F08100BF012002B0BDE8F08104F11C0586
:102B20002FCD084340EA8210D9034FF6FF7291433C
:102B3000A1F5803140EA05600843706001203866E5
:102B4000FFF7FCFA044600BF30688001DDD4FFF7D0
:102B5000F5FA001B02284FF00300F5D95BE700BF30
:102B6000FFF7ECFA054641F2883700BF306F800767
:102B700008D5FFF7E3FA401BB8424FF00300F5D940
:102B800049E700BFB8F1000F3FF581AE306C20F08F
:102B9000805030647BE600BFFFF7D0FA054600BFE7
:102BA000306880037FF54EAEFFF7C8FA401B6428FB
:102BB0004FF00300F4D92EE7411E0020B0EB116F57
:102BC0001CBF012070474EF21002CEF2000251608D
:102BD0004EF62351CEF20001F0230B7007219060D6
:102BE00011607047704700007047000090F83C206B
:102BF000012A04BF02207047B0B501F108053CCDA1
:102C0000D1E900CE23F47C5322F470521A432EF4FF
:102C1000F0431A432CF4E0431A4324F4C0431A430C
:102C20002A43C96922F48042036811435964002190
:102C300080F83C100020B0BD90F83C20012A4FF0F5
:102C4000020254D010B580F83D200268D2F804E0AA
:102C5000D2F808C00C682EF07003234341F2FF74D1
:102C6000C4F20004A24253600EDC40F2FF73C4F2CF
:102C700000039A4216DCB2F1804F2BD040F20043A1
:102C8000C4F2000324E000BF40F2FF33C4F20103AA
:102C90009A4213DC41F60003C4F200039A4219D0B1
:102CA000002313E040F60003C4F200039A4211D05F
:102CB00040F60043C4F200030AE000BF44F2000300
:102CC000C4F201039A4205D040F20043C4F201036A
:102CD0009A4204D149682CF0800319439160012184
:102CE000002280F83D1080F83C20BDE810401046DE
:102CF00070470000002804BF0120704710B504464B
:102D000090F83D0028B9002084F83C00204600F0EF
:102D10001FF8022084F83D002068211D03F0B6F959
:102D2000012084F8460084F83E0084F83F0084F8CF
:102D3000400084F8410084F8420084F8430084F89D
:102D4000440084F8450084F83D00002010BD0000D8
:102D5000006841F20001C4F20001884218BF7047C8
:102D600080B582B00020019043F64000C4F202001A
:102D70000168002241F0100101600068002100F0AC
:102D80001000019001983620FFF7F4FB362002B0C6
:102D9000BDE88040FFF7DCBB90F83D1001291CBF67
:102DA00001207047022180F83D10006841F2FF7257
:102DB000C168C4F20002904241F00101C1600DDC23
:102DC00040F2FF71C4F20001884215DCB0F1804F7F
:102DD0002AD040F20041C4F2000123E040F2FF316A
:102DE000C4F20101884213DC41F60001C4F2000183
:102DF000884219D0002113E040F60001C4F200011E
:102E0000884211D040F60041C4F200010AE000BF40
:102E100044F20001C4F20101884205D040F20041B1
:102E2000C4F20101884206D1816801F00701062938
:102E300004BF00207047016841F0010101600020DB
:102E4000704700007047000070B504460068C56810
:102E50000669B10716D515F0020113D06FF0020113
:102E60000161012121778069800703D02046FFF7A7
:102E7000E9FF05E0204600F08FF8204600F000FA58
:102E800000202077700719D515F0040016D02068AF
:102E90006FF00401016102212177806910F4407F05
:102EA00004D02046FFF7CEFF06E000BF204600F02A
:102EB00073F8204600F0E4F900202077300717D59A
:102EC00015F0080014D020686FF00801016104219A
:102ED0002177C069800703D02046FFF7B3FF05E0E4
:102EE000204600F059F8204600F0CAF9002020776B
:102EF000F00619D515F0100016D020686FF01001FB
:102F0000016108212177C06910F4407F04D0204678
:102F1000FFF798FF06E000BF204600F03DF820468E
:102F200000F0AEF900202077F00718BF15F001007F
:102F300002D1300609D412E020686FF0010101616E
:102F4000204600F027FA300609D515F0800006D09B
:102F500020686FF0800101612046FFF743FE700694
:102F600009D515F0400006D020686FF040010161DE
:102F7000204600F02FFAB00658BF70BD15F02000B3
:102F800008D021686FF0200220460A61BDE8704039
:102F9000FFF72ABE70BD00007047000090F83C307B
:102FA000012B04BF022070474FEAB202032A00F24D
:102FB000FF802DE9F043DFE802F003B13F7F00BF5F
:102FC000036840F200461C6A1A6A24F0020422F0E8
:102FD00001021A621A46D3F804C052F818EF8F683B
:102FE00043F48065C4F20106B54244EA070405D102
:102FF000CF6824F00C0427F004073C430F68B54267
:1030000006D1D1E905582CF440762E4346EA080C47
:103010002EF073063743C3F804C09F614F680969F7
:103020005F631C629F6947F008079F619F6927F0F3
:1030300004079F61B1E000BF036840F200481C6ACA
:103040001A6A24F4007422F480721A621A46D3F8C1
:1030500004C052F81CEF8F6843F48065C4F2010885
:10306000454544EA072408D1CF6840F2FF463F02B5
:1030700024F4406427EA06063443D1F8009045451D
:1030800006D1D1E905562CF440572E4347EA061CD9
:103090002EF0730747EA0907C3F804C0DF614F68E1
:1030A0000969DF631C62DF6947F00807DF61DF69D8
:1030B00027F00407DF6170E0036840F20045D3F8B1
:1030C00020C01A6A43F4806722F480521A621A46BA
:1030D0005C6852F81C8FD1F800E08E68C4F20105DC
:1030E000AF4204D14D6924F4804444EA85142CF4A1
:1030F000005747EA063728F4E64646EA0E265C60A3
:10310000DE614E6809691E641F62DF6947F400676B
:10311000DF61DF6927F48067DF613DE0036840F22B
:1031200000481C6A1A6A24F0200422F010021A6275
:103130001A46D3F804C052F818EF8F6843F480653C
:10314000C4F20108454544EA071407D1CF686FF07F
:10315000400624F0C00406EA07163443D1F8009074
:10316000454506D1D1E905562CF440672E4347EA80
:10317000860C2EF4E64747EA0927C3F804C09F618E
:103180004F6809699F631C629F6947F400679F61EC
:103190009F6927F480679F610902136819431160D2
:1031A0000021BDE8F043002280F83C20084670472B
:1031B0000121002280F83C2008467047002804BF07
:1031C0000120704710B5044690F83D0028B9002052
:1031D00084F83C00204600F01FF8022084F83D00EF
:1031E0002068211D02F052FF012084F8460084F877
:1031F0003E0084F83F0084F8400084F8410084F8E1
:10320000420084F8430084F8440084F8450084F8C0
:103210003D00002010BD0000006840F20041C4F2F3
:103220000101884218BF704780B582B0002001902C
:1032300043F64400C4F202000168002241F002019A
:1032400001600068002100F00200019001982B202D
:10325000FFF790F92B20FFF77BF92C2000210022AB
:10326000FFF788F92C20FFF773F92D2000210022A9
:10327000FFF780F92D2002B0BDE88040FFF768B964
:1032800070470000C1B1042908D0082914BF4122A9
:103290004022825C012A05D016E000BF3F22825CFA
:1032A000012A11D10222082910D0042914BF80F864
:1032B000412080F83F200BE090F83E20012A03D106
:1032C000022280F83E2003E00120704780F8402071
:1032D000006801F01F010122036A02FA01F123EAEA
:1032E00001020262026A114341F2FF72C4F200025B
:1032F000904201620CDC40F2FF71C4F2000188428E
:1033000014DCB0F1804F37D040F2004116E000BF2E
:1033100040F2FF31C4F20101884215DC41F60001A0
:10332000C4F20001884227D0002115E040F60001D8
:10333000C4F2000188421FD040F60041C4F20001EF
:10334000884219D01FE000BF44F20001C4F201011D
:10335000884211D040F20041C4F20101884212D1EA
:10336000416C40F2004340F48062C4F2010341F436
:1033700000419A42416406D1816801F007010629A3
:1033800004BF00207047016841F001010160002086
:1033900070470000006841F20001C4F20001884259
:1033A00018BF704740F2B050C2F20000016845F605
:1033B00029420131CCF28F224A4345F628434FEA95
:1033C000B202C0F28F239A42016098BF01F0ACBBF9
:1033D000704700007047000070B582B090F842500E
:1033E000202D0BD113460A460146002A4FF001005A
:1033F00018BF002B06D102B070BD00BF022002B082
:1034000070BD00BF0863002622204E638A628B8550
:103410004E6481F842000C680D46C86B46F2114CB0
:1034200046F27151C0F6000CC0F60001C0E90FC1B0
:1034300046F29521C0F60001C0E91316211DFEF7E2
:103440003BFDE8B3102068642020294685F842003F
:1034500001200A6B012A40F0B380002200920A6822
:103460001368009352680092009A00BF0A6852E8FD
:10347000032F0B6842F0100243E80326002EBAD057
:103480000A6852E8032F0B6842F0100243E8032653
:10349000002EB0D00A6852E8032F0B6842F01002E9
:1034A00043E80326002EA6D00A6852E8032F0B68D3
:1034B00042F0100243E80326002ED7D19BE700BF5D
:1034C0000196286829460268019240680190019897
:1034D000286928B3086850E8030F0A6840F4807030
:1034E00042E80303E3B1086850E8030F0A6840F4B8
:1034F000807042E803039BB1086850E8030F0A6834
:1035000040F4807042E8030353B1086850E8030FA9
:103510000A6840F4807042E80303002BDAD100BF50
:10352000086850E8050F0A6840F0010042E805030A
:10353000BBB3086850E8050F0A6840F0010042E894
:10354000050373B3086850E8050F0A6840F00100EE
:1035500042E805032BB3086850E8050F0A6840F0FD
:10356000010042E80503002BDAD11AE0086850E8B0
:10357000050F0A6840F0400042E80503DBB1086827
:1035800050E8050F0A6840F0400042E8050393B197
:10359000086850E8050F0A6840F0400042E805035B
:1035A0004BB1086850E8050F0A6840F0400042E857
:1035B0000503002BDAD100200A6B012A3FF44DAF3E
:1035C000012002B070BD0000F0B581B00546006872
:1035D00041F20007C4F20107B8420C4606D007F5D5
:1035E000806188423AD001B0F0BD00BF40F288103F
:1035F000C2F20000012140F69816017040F600105A
:10360000C2F20006C2F2000031464022FCF7A1FFE0
:1036100030464021FCF7E2FF40F6FC00C2F2000019
:10362000018840220131018040F68010C2F2000082
:10363000048040F64400C2F200003146FFF7CCFEA1
:1036400040F2E050C2F200000068016821F0080179
:103650000160286807F580618842C4D140F2881073
:10366000C2F20000012140F6D815417040F640102A
:10367000C2F20005C2F2000029464022FCF769FFB1
:1036800028464021FCF7AAFF40F6FC00C2F20000E9
:10369000418840220131418040F68010C2F2000092
:1036A000448040F68C00C2F200002946FFF794FEE9
:1036B00040F2A060C2F200000068016821F0080139
:1036C000016001B0F0BD000010B50446006841691A
:1036D00094F84120212A56D111F0800153D000BF27
:1036E000206850E8050F216820F0800041E80502BD
:1036F000DAB1206850E8050F216820F0800041E829
:10370000050292B1206850E8050F216820F0800082
:1037100041E805024AB1206850E8050F216820F011
:10372000800041E80502002ADAD1A06B002818BF0A
:10373000FEF7D4F9206850E8030F216820F0C0009C
:1037400041E80302DAB1206850E8030F216820F055
:10375000C00041E8030292B1206850E8030F2168DD
:1037600020F0C00041E803024AB1206850E8030F8E
:10377000216820F0C00041E80302002ADAD12020AD
:1037800084F841002068406994F84210222940F0F2
:10379000A78010F0400000F0A38000BF206850E830
:1037A000050F216820F0400041E80502DAB12068E9
:1037B00050E8050F216820F0400041E8050292B171
:1037C000206850E8050F216820F0400041E805021C
:1037D0004AB1206850E8050F216820F0400041E818
:1037E0000502002ADAD1E06B002818BFFEF776F94F
:1037F000206850E8030F216820F4907041E803022C
:10380000BAB3206850E8030F216820F4907041E8B3
:10381000030272B3206850E8030F216820F490700F
:1038200041E803022AB3206850E8030F216820F41E
:10383000907041E80302002ADAD11AE0206850E8CB
:10384000050F216820F0010041E80502DAB1206887
:1038500050E8050F216820F0010041E8050292B10F
:10386000206850E8050F216820F0010041E80502BA
:103870004AB1206850E8050F216820F0010041E8B6
:103880000502002ADAD1206B012824D1206850E8F3
:10389000030F216820F0100041E80302DAB120682C
:1038A00050E8030F216820F0100041E8030292B1B4
:1038B000206850E8030F216820F0100041E803025F
:1038C0004AB1206850E8030F216820F0100041E859
:1038D0000302002ADAD1202084F84200002020636D
:1038E000002010BDB0B582B00446006841F200056A
:1038F000C4F20105A84205D005F58061884234D0A4
:1039000002B0B0BD40F2B450C2F2000001880131F3
:1039100001802868E96881075ED4410765D4010702
:103920006CD4C00706D00020019028680190686818
:10393000019001982046FFF7C7FE40F69811C2F2A9
:10394000000120464022FFF747FD40F2E050C2F25E
:1039500000000068016821F0080101600020606437
:10396000206805F580618842CAD140F2B451C2F2A4
:1039700000014A8841F2044001324A80D5F800141F
:10398000C4F2010082688A0742D44A074AD40A076F
:1039900052D4C90707D000210191D5F80014019134
:1039A0000068019001982046FFF78EFE40F6D8117E
:1039B000C2F2000120464022FFF70EFD40F2A06057
:1039C000C2F200000068016821F0080101600020D7
:1039D000606402B0B0BD00BF00210191296801916F
:1039E000696801910199410799D5002101912968E0
:1039F0000191696801910199010792D50021019116
:103A000029680191696801910199C0078BD191E7FB
:103A100000220192D5F80024019202680192019AD5
:103A20004A07B4D500220192D5F800240192026819
:103A30000192019A0A07ACD500220192D5F8002420
:103A4000019202680192019AC907A4D1ABE7000074
:103A5000B0B582B001680A68CC684B6902F02F05E6
:103A6000202D04F0200505D125B102B0BDE8B040FD
:103A700002F08ABD5FEA027C1EBF03F0010E04F46F
:103A8000907313EB0E0341D1036BD50618D5012BB0
:103A900016D114F0100313D0002201920A6801928B
:103AA0004A680192019A496949064BD4818DC28DB9
:103AB000C38D002B18BF914240F0068202B0B0BD0A
:103AC00013062DD514F080032AD090F84120212A26
:103AD000F4D18268B2F5805F03D10269002A00F058
:103AE0007982026A531C036212784A60C28C013ADE
:103AF0001304C284E2D1C86820F08000C860C8689E
:103B000040F04000C86002B0B0BD00BFD30718BF8E
:103B100014F4807340F0E280530700F1E580EAE09E
:103B20005206CBD514F04002C8D0CA6822F0400239
:103B3000CA60202180F8411002B0BDE8B04000F01A
:103B40005BBC00BFC26B11684B68858D99B20029C0
:103B500000F0B480A94280F0B180C385D169B1F58D
:103B6000807F00F0A080016851E8031F026821F403
:103B7000807142E80313DBB1016851E8031F02685A
:103B800021F4807142E8031393B1016851E8031FE7
:103B9000026821F4807142E803134BB1016851E8D7
:103BA000031F026821F4807142E80313002BDAD16D
:103BB000016851E8051F026821F0010142E8051380
:103BC000BBB3016851E8051F026821F0010142E81A
:103BD000051373B3016851E8051F026821F0010164
:103BE00042E805132BB3016851E8051F026821F074
:103BF000010142E80513002BDAD11AE0016851E80F
:103C0000051F026821F0400142E80513DBB101689D
:103C100051E8051F026821F0400142E8051393B105
:103C2000016851E8051F026821F0400142E80513D0
:103C30004BB1016851E8051F026821F0400142E8DC
:103C40000513002BDAD1202180F8421000210163F6
:103C5000016851E8031F026821F0100142E80313D4
:103C6000DBB1016851E8031F026821F0100142E84E
:103C7000031393B1016851E8031F026821F010019A
:103C800042E803134BB1016851E8031F026821F0B9
:103C9000100142E80313002BDAD1C16B0446084639
:103CA000FDF71CFF204602214163818DC28D891AD8
:103CB00089B202B0BDE8B040FFF786BC8D427FF408
:103CC000FDAED269B2F5807F7FF4F8AE0222426386
:103CD00002B0BDE8B040FFF777BC00BF436C43F0D3
:103CE00001034364530706D5BEF1000F03D0436CB4
:103CF00043F002034364930706D5BEF1000F03D0DF
:103D0000436C43F004034364BCF1000F06D55EEA44
:103D1000050303D0436C43F008034364436C002B5A
:103D20003FF4CCAE920605D525B1044602F02CFC3A
:103D3000216820464969426C01F0400102F0080206
:103D4000891800F0B98000BF016851E8031F0268BC
:103D500021F4907142E80313BBB3016851E8031FDB
:103D6000026821F4907142E8031373B3016851E8CB
:103D7000031F026821F4907142E803132BB301681A
:103D800051E8031F026821F4907142E80313002BED
:103D9000DAD11AE0016851E8051F026821F001013B
:103DA00042E80513DBB1016851E8051F026821F004
:103DB000010142E8051393B1016851E8051F02684B
:103DC00021F0010142E805134BB1016851E8051FDC
:103DD000026821F0010142E80513002BDAD1016BE2
:103DE000012924D1016851E8031F026821F0100164
:103DF00042E80313DBB1016851E8031F026821F0B8
:103E0000100142E8031393B1016851E8031F0268EF
:103E100021F0100142E803134BB1016851E8031F80
:103E2000026821F0100142E80313002BDAD12021AF
:103E300080F842100021016301684969490640F198
:103E4000C380016851E8051F026821F0400142E883
:103E50000513DBB1016851E8051F026821F040013C
:103E600042E8051393B1016851E8051F026821F08B
:103E7000400142E805134BB1016851E8051F026893
:103E800021F0400142E80513002BDAD1C16B002973
:103E900000F09A8046F28922C0F6000204460846E5
:103EA0000A65FDF763FE00283FF408AEE06B016D84
:103EB00002B0BDE8B04008470446FFF713FD0020FC
:103EC000606402B0B0BD00BF891A00BF026852E84A
:103ED000032F036822F4907243E80325BDB3026800
:103EE00052E8032F036822F4907243E8032575B368
:103EF000026852E8032F036822F4907243E8032516
:103F00002DB3026852E8032F036822F4907243E84D
:103F10000325002DDAD11AE0026852E8052F036864
:103F200022F0010243E80525DDB1026852E8052FC1
:103F3000036822F0010243E8052595B1026852E8C2
:103F4000052F036822F0010243E805254DB1026800
:103F500052E8052F036822F0010243E80525002DF1
:103F6000DAD1202280F8422000220263026852E85F
:103F7000032F036822F0100243E80325DDB1026835
:103F800052E8032F036822F0100243E8032595B19D
:103F9000026852E8032F036822F0100243E8032569
:103FA0004DB1026852E8032F036822F0100243E883
:103FB0000325002DDAD1022289B2426302B0BDE8A6
:103FC000B040FFF701BB00BF02B0BDE8B040FFF753
:103FD00089BC00BF026A32F8023B6FF35F234B607B
:103FE000026283E5002804BF0120704710B5044633
:103FF00090F8410028B9002084F84000204600F0E5
:1040000021F8242084F841002068C16821F400517F
:10401000C160204602F038FB2068016921F490411C
:104020000161416921F02A014161C16841F40051F7
:10403000C16000202021606484F8411084F842109F
:10404000606310BD2DE9F04F87B00446006841F26F
:104050000041C4F2010100268842CDE90566CDE9A0
:104060000366029600F0888041F20001C4F201016B
:10407000884240F0EF80002743F630000197C4F2F9
:1040800002004169002541F0100141614169C4F21B
:10409000020501F01001019101990197016802AE3A
:1040A00041F002010160016846F2284801F0020176
:1040B00001910199019701684FF0020941F0010156
:1040C000016000684FF0030A00F0010001900198C0
:1040D000802002904FF0070B05F580603146C4F256
:1040E0000208CDE90397CDF814A0CDF818B0FDF77C
:1040F00049FF4FF40070CDE9020904A880E8800C64
:1041000028463146FDF73EFF40F2E05508F1180021
:10411000C2F200054FF000664FF4806985E8C100E7
:104120002846C5E90379C5E90577C5E907776F62D0
:10413000FDF710FE002818BFFCF766FFE563AC63CF
:1041400040F2406508F19000C2F200054021C5E947
:10415000000605F1080080E882022846C5E90577D7
:10416000C5E907776F62FDF7F5FD00284FF02506DA
:1041700018BFFCF749FF63E043F630000196C4F234
:104180000200416946F2284841F02001416141693D
:10419000C4F2020801F02001019101990196016821
:1041A00041F040010160006802A900F04000019068
:1041B00001984FF4844002900220CDE903060320C9
:1041C0000590082006900020C4F2020000F5C050BF
:1041D000FDF7D8FE40F2A065C2F200054FF020675F
:1041E0004FF480692846C5E90087C5E90266C5E93C
:1041F0000496C5E90666C5E90866FDF7ABFD00282B
:1042000018BFFCF701FFE563AC6340F2007508F1ED
:104210007800C2F200054021C5E9000705F1080059
:10422000002280E806022846C5E90522C5E90722E2
:104230006A62FDF78FFD4FF0470608B1FCF7E4FE18
:10424000304600210022A563AC63FEF793F93046A7
:10425000FEF77EF907B0BDE8F08F00007047000060
:10426000704700002DE9F04381B0044690F841000A
:10427000202809D100294FF0010018BF002A07D1DA
:1042800001B0BDE8F08300BF022001B0BDE8F083BB
:104290000020606421201D460E4684F84100174628
:1042A000FDF74CFFA784E784A1688146B1F5805FE4
:1042B00002D1206900285DD037460020E28C2168B9
:1042C000002A5DD06A1C24D0002D4AD0804600BF51
:1042D0000868000608D4FDF731FFA0EB0900A842EA
:1042E0007AD82168C868F3E717B117F8010B04E022
:1042F00038F8020B00276FF35F204860E08C01382C
:10430000E084E08C0028E3D13AE000BF0A6812069E
:1043100009D40A68120606D40A6812065CBF0A6845
:104320005FEA0262F2D51FB117F8012B05E000BF6A
:1043300030F8022B00276FF35F224A60E28C013ACB
:10434000E284E28C002AE4D11AE000BF30F8022BAC
:1043500000276FF35F224A60E28C013AE284E28C2C
:1043600072B10A68120635D5002FEFD017F8012B6D
:10437000F1E700BF00273046E28C2168002AA1D176
:10438000086840061ED42DB3681C14D10868400686
:104390002AD40868400627D40868400624D4086850
:1043A00040064FF00000F1D50DE000BF2068C16865
:1043B0000068400618D4FDF7C1FEA0EB0900A84232
:1043C000F4D909E00020202184F8411001B0BDE8B3
:1043D000F08300BFFDF7B2FE0320202184F84110D6
:1043E00001B0BDE8F08300BF0020202184F8411017
:1043F00001B0BDE8F083000070470000FEE7000058
:1044000080B540F2607045F60001C2F20000C4F2CF
:10441000000148F2A06200234FF4804CC0F2010278
:1044200080E80E00C0E9033CC0E90533C0E907336A
:10443000FDF78AFE002808BF80BDBDE88040FCF77C
:10444000E3BD00002DE9F04383B0044600680F4649
:1044500001680A9D0B9E41F4807199469046016067
:1044600020464FF0011100222B46009600F0ACF8D8
:1044700050B120680068C00544BF4FF4007020644C
:10448000032003B0BDE8F083206807F0FE0101615E
:104490000221C0F2010120462A46334600F07AF993
:1044A00020B1012003B0BDE8F08300BF00200290DE
:1044B000206832464169029180692946029002983B
:1044C000204600F0D3F958B1206C0428E9D12068C7
:1044D000016841F400710160012003B0BDE8F08380
:1044E0002068B9F1010F0AD04FEA18210161204676
:1044F0002946324600F0BAF90028E5D120685FFA73
:1045000088F10161002003B0BDE8F08370B5036855
:10451000044653F8140F400711D40E46481C29D006
:1045200086BB00BF1868400527D4FDF707FE236847
:1045300053F8140F400737D518684007F2D500200C
:1045400070BD00BF18684007F9D41868400514D43E
:1045500018684007F3D4186840050ED4186840075F
:10456000EDD41868400508D4186840074FF00000E3
:1045700048BF70BD18684005E4D56FF480601860CE
:10458000042012E0154603E053F8140F4007D6D478
:1045900018684005F1D4FDF7D1FD401B2368B042F7
:1045A000F2D958694007EFD420200021202221634E
:1045B00084F83D2084F83E10226C104320640120D2
:1045C00084F83C1070BD00002DE9F04105460068FC
:1045D0001E46144601F47F0201338FB242D0DDF84B
:1045E0001880B2F5803F40F0878040693840C01B9A
:1045F000B0FA80F04009A04240F0C8804EB924E0F3
:1046000040693840C01BB0FA80F04009A04240F039
:10461000BD80FDF793FDA0EB08012868B142EFD9FA
:1046200041693940C91BB1FA81F14909A142E7D179
:104630009BE000BF40693840C01BB0FA80F04009E1
:10464000A0424FF0000040F0A280FDF777FD2868FF
:1046500041693940C91BB1FA81F14909A142E9D147
:1046600083E000BFB2F5803F24D100BF41693940EB
:10467000C91BB1FA81F14909A14240F08780416923
:104680003940C91BB1FA81F14909A14240F07E804D
:1046900041693940C91BB1FA81F14909A14275D17B
:1046A00041693940C91BB1FA81F14909A142DDD004
:1046B0006CE000BF81693940C91BB1FA81F1490939
:1046C000A14263D181693940C91BB1FA81F149091D
:1046D000A1425BD181693940C91BB1FA81F1490915
:1046E000A14253D181693940C91BB1FA81F149090D
:1046F000A142DFD04AE000BF80693840C01BB0FA59
:1047000080F04009A04241D146B923E08069384099
:10471000C01BB0FA80F04009A04237D1FDF70EFD72
:10472000A0EB08012868B142F0D981693940C91B62
:10473000B1FA81F14909A142E8D116E08069384017
:10474000C01BB0FA80F04009A0424FF0000018BF33
:10475000BDE8F081FDF7F2FC286881693940C91B8A
:10476000B1FA81F14909A142E8D100202021286352
:1047700085F83D1085F83E00296C41F02001296440
:1047800085F83C000120BDE8F08100BF0020BDE8B5
:10479000F0810000F0B581B0044600681D46436911
:1047A0008FB203EA0701B94202D1002001B0F0BD87
:1047B0004169164601323CD0490512D47EB300BF90
:1047C000FDF7BCFC411B2068B14203D94169394067
:1047D000B9422BD141693940B942E6D04169490516
:1047E000EED5016841F4007101606FF480614161B0
:1047F000042000212022216384F83D2084F83E100B
:10480000226C1043206484F83C10012001B0F0BDFC
:1048100041693940B942C8D041694905E1D4FDF741
:104820008DFC206841693940B942F1D02020E0E791
:1048300041694905D5D441693940B942B5D041698A
:104840004905CED441693940B942AED041694905E4
:10485000C7D441693940B942A7D041694905C0D49C
:1048600041693940B942E3D19FE7000070B5036860
:10487000044653F8140F000611D40E46481C29D0E4
:1048800086BB00BF1868400527D4FDF757FC236896
:1048900053F8140F000637D518680006F2D500202B
:1048A00070BD00BF18680006F9D41868400514D41C
:1048B00018680006F3D4186840050ED4186800067E
:1048C000EDD41868400508D4186800064FF00000C1
:1048D00048BF70BD18684005E4D56FF4806018606B
:1048E000042012E0154603E053F8140F0006D6D456
:1048F00018684005F1D4FDF721FC401B2368B04245
:10490000F2D958690006EFD420200021202221632B
:1049100084F83D2084F83E10226C1043206401206E
:1049200084F83C1070BD0000B0B5FDF7B5FD01F096
:104930004FFAFCF76DFBFCF731FB01F01FFF01F0B4
:1049400041FF40F60010C2F200004021FBF746FE96
:1049500040F69815C2F2000528464021FBF73EFEBE
:1049600040F68C04C2F2000420684022416941F004
:104970000101416140F64400C2F200002946FEF701
:104980002BFD40F2E050C2F200000068016821F007
:104990000801016040F64010C2F200004021FBF720
:1049A0001DFE40F6D815C2F2000528464021FBF74F
:1049B00015FE204629464022FEF70EFD40F2A0607B
:1049C000C2F200000068016821F00801016001F0F6
:1049D00093FA01F063FA40F2B470C2F20000FEF7FD
:1049E000DBF940F2FC74C2F2000420460021FEF71D
:1049F00049FC20460421FEF745FC20460821FEF72D
:104A000041FCFCF765FA40F2B854C2F200042046BB
:104A1000FDF728F820460221FCF784FBFFF7F0FCA5
:104A20000220FDF79BFA00F099F901F0C9F801F0B6
:104A300081F940F6D8009FED070AC2F2000001F0AC
:104A400087F900F065F802F0CFF8BDE8B04002F059
:104A500043B900BF0000204270B540F6182040F274
:104A60005015C2F20000C2F2000501686A68891A96
:104A7000322938BF70BD006841F20004C4F202045C
:104A80006860A4F580500121FDF74CFBB0FA80F07E
:104A90004009460020464FF40071FDF743FB002813
:104AA00020464FF4006108BF0426FDF73BFB0028B9
:104AB00008BF0826687886F0FF0280F0FF013140C9
:104AC000104002292E70A970E8706E700CD0042876
:104AD00013D008281AD140F6E400C2F200000830D2
:104AE000BDE8704002F014B940F28011C2F200013A
:104AF0000A7801320A700428EBD140F6E400C2F2D1
:104B0000000002F005F9E8780828E4D070BD000044
:104B100040F22010C2F200000021C0E90011018122
:104B2000C0E904110183704740F6182040F6D40113
:104B3000C2F20000C2F2000102680B68D21A3B2ADE
:104B400038BF704770B588B0006840F2B85408604C
:104B500043F23340ADF81E000120C2F20004019080
:104B60000025022601A90DF11E026B462046CDE963
:104B70000255049505968DF81850FCF7EBFA43F2B0
:104B80003350ADF81E0001A90DF11E026B46204600
:104B9000CDE90165CDE9035505968DF81850FCF770
:104BA000D9FA08B0BDE8704070470000FEE7000089
:104BB0002DE9F04188B040F6B835A94238BF0D461E
:104BC000A3F5000141F6CD44B1F17F4FCFF6FE745D
:104BD00038BF03F31703A34241F6CC41A3F1010C04
:104BE000C8BF1C46002CCFF6FE714FF0000658BF20
:104BF00034468C454AF6B96128BF1C460128CFF6D9
:104C0000FD7118BF1C468C42C8BF21464AF6B863E6
:104C1000A4F1010C002958BF3146CFF6FD739C4525
:104C200028BF2146022818BF214684182C4404EBD3
:104C300015240C4404EB114404EB1124A4F10B07DC
:104C400040F68414CDE902060820C2F20004F523E0
:104C5000069040F2B8504FEA15284FEA114C4FEA3F
:104C6000112E2370E270A171C2F2000002A901AB03
:104C7000224684F80180A57084F804C084F805E019
:104C8000E771CDE904668DF81C60FCF763FA30B17A
:104C900040F28010C2F20000017801310170C4E9D5
:104CA0000066C4E90266266108B0BDE8F081000034
:104CB000FEE700002DE9F04F85B040F2607400255A
:104CC0000A260127C2F200040DF1120B0DF11308A0
:104CD0004FF0000949F0B0008DF8100004A8CDE9AC
:104CE000000720467821002201230296FDF7DEFA14
:104CF0000DF11100CDE900072046782100220123A3
:104D00008DF811500296FDF7D1FA10208DF812009F
:104D10002046782100220123CDE900B70296FDF755
:104D2000C5FA4FF0000A00BF204678214022012337
:104D30008DF81350CDE900870296FDF7B7FA0AF116
:104D400001004FFA80FABAF1FF3FEDDCB9F1070F2D
:104D500009F10109BED305B0BDE8F08F2DE9F04798
:104D600084B040F26074AE20C2F200048DF80F00EF
:104D70000A2501260DF10F07204678210022012384
:104D8000CDE9007602954FF00009FDF78FFA4FF05C
:104D9000200820467821002201238DF80F80CDE9DC
:104DA00000760295FDF782FA4FF0100A204678212E
:104DB000002201238DF80FA0CDE900760295FDF7C2
:104DC00075FAB0208DF80F002046782100220123CB
:104DD000CDE900760295FDF769FAC8208DF80F003D
:104DE0002046782100220123CDE900760295FDF7C7
:104DF0005DFA20467821002201238DF80F90CDE93D
:104E000000760295FDF752FA204678210022012310
:104E10008DF80FA0CDE900760295FDF747FA402006
:104E20008DF80F002046782100220123CDE900767D
:104E30000295FDF73BFA81208DF80F00204678217E
:104E400000220123CDE900760295FDF72FFAFF201D
:104E50008DF80F002046782100220123CDE900764D
:104E60000295FDF723FAA1208DF80F002046782146
:104E700000220123CDE900760295FDF717FAA6205E
:104E80008DF80F002046782100220123CDE900761D
:104E90000295FDF70BFAA8208DF80F002046782127
:104EA00000220123CDE900760295FDF7FFF93F20AE
:104EB0008DF80F002046782100220123CDE90076ED
:104EC0000295FDF7F3F9A4208DF80F002046782114
:104ED00000220123CDE900760295FDF7E7F9D32002
:104EE0008DF80F002046782100220123CDE90076BD
:104EF0000295FDF7DBF920467821002201238DF889
:104F00000F90CDE900760295FDF7D0F9D5208DF808
:104F10000F002046782100220123CDE9007602957A
:104F2000FDF7C4F9F0208DF80F002046782100220B
:104F30000123CDE900760295FDF7B8F9D9208DF867
:104F40000F002046782100220123CDE9007602954A
:104F5000FDF7ACF922208DF80F00204678210022C1
:104F60000123CDE900760295FDF7A0F9DA208DF84E
:104F70000F002046782100220123CDE9007602951A
:104F8000FDF794F912208DF80F00204678210022B9
:104F90000123CDE900760295FDF788F9DB208DF835
:104FA0000F002046782100220123CDE900760295EA
:104FB000FDF77CF920467821002201238DF80F802F
:104FC000CDE900760295FDF771F98D208DF80F007F
:104FD0002046782100220123CDE900760295FDF7D5
:104FE00065F914208DF80F00204678210022012356
:104FF000CDE900760295FDF759F9AF208DF80F0045
:105000002046782100220123CDE900760295FDF7A4
:105010004DF9FFF74FFE04B0BDE8F0872DE9F04FE2
:1050200085B040F2B01640F26074C2F200060A2762
:105030000125C2F200040DF112080DF113094FF021
:10504000000A00BF4AF0B0008DF8100004A8CDE9B6
:10505000000520467821002201230297FDF726F95A
:1050600000208DF811000DF11100CDE9000520465A
:105070007821002201230297FDF718F910208DF8FE
:1050800012002046782100220123CDE900850297F5
:10509000FDF70CF94FF0FF3B06EB0B004078782151
:1050A0008DF81300204640220123CDE90095029798
:1050B000FDF7FCF80BF1010BBBF17F0FECD10AF10E
:1050C000010ABAF1080F06F18006BBD105B0BDE8B0
:1050D000F08F00002DE9F04F9FB07F28019200F281
:1050E0001B840D463F2900F21784012B00F0A48297
:1050F000022B40F01184019991F800B0BBF1000F30
:1051000000F00A8400230DE0039B019A0133D9B219
:1051100012F801B01E98029DBBF1000F00F10800CB
:1051200000F0FA83BBF1200FC0F0F68301B27829BA
:10513000039306DB05F1100005B22F2D00F3EC837D
:105140000020691C012401F00701AB1C04FA01F1E5
:10515000199103F00701EF1C04FA01F1189107F00F
:10516000070185F0040604FA01F1179106F0070122
:1051700005F1050804FA01F1169108F0070105F19F
:10518000060E04FA01F115910EF00701A5F1010CCC
:1051900004FA01F114910CF0070105F0070204FA7A
:1051A00001F104FA02F2139114FA85F14FF6C07678
:1051B0001B9201EA0602C1F3C2011A91022111FAFF
:1051C00085F11E9201EA0602C1F3C2011291032188
:1051D0001D9211FA85F3042203EA060CC3F3C201FF
:1051E00012FA85F3119103EA0607C3F3C2010523FE
:1051F00013FA85F404EA0603C4F3C20E062414FA73
:1052000085F404EA0609C4F3C208072414FA85F4F5
:10521000109104EA0601C4F3C20A48F29C34C0F6B5
:10522000000440F2B01604EB0B1BC5F3C204C2F23B
:10523000000606EBC4121C921A9ACDF810B006EBC9
:10524000C2120B92129A029506EBC2120A92119A9E
:1052500006EBC2120992109A06EBC212089206EBF4
:10526000CE12079206EBC812069206EBCA120592FE
:105270001B9A1FFA85FED2431A92199AABF5007851
:10528000D2431292189A4FF0000BD2431192179A00
:10529000D2431092169AD2430F92159AD2430E928D
:1052A000149AD2430D92139AD2430C9206E000BF97
:1052B0000BF1010BBBF1080F00F0AA8000EB0B0211
:1052C0001FFA82FABAF17F0FF2D8BEF1400F11D364
:1052D0001E9A0AB31D9A9AB3BCF1000F42D0002F58
:1052E00051D0002B60D0B9F1000F6FD00029DFD171
:1052F0007EE000BF1C9C18F80B5014F80A201B9E7F
:10530000ED0746EA02061A9D08BF02EA050604F800
:105310000A601E9A002ADDD10C460B9918F80B5032
:1053200011F80A20199EAD0746EA0206129D58BFE1
:1053300002EA050601F80A6021461D9A002ACBD12F
:105340000A9C18F80B5014F80A20189E6D0746EABC
:105350000206119D58BF02EA050604F80A60BCF176
:10536000000FBCD1099C18F80B5014F80A20179EA6
:105370002D0746EA0206109D58BF02EA050604F80A
:105380000A60002FADD1089C18F80B5014F80A20C1
:10539000169EED0646EA02060F9D58BF02EA050674
:1053A00004F80A60002B9ED1079C18F80B5014F8E3
:1053B0000A20159EAD0646EA02060E9D58BF02EA77
:1053C000050604F80A60B9F1000F8FD1069C18F8A1
:1053D0000B5014F80A20149E6D0646EA02060D9D35
:1053E00058BF02EA050604F80A6000297FF460AF9E
:1053F000059C0C9E14F80A2018F90B501640002D3D
:10540000139D48BF42EA050604F80A6050E700BF52
:105410000EF108014FF6C07601EA0604C1F3C20599
:105420000EF109011E90C1F3C2000EF10A0301EA58
:1054300006020A9003EA0601C3F3C2000EF10B0351
:10544000099003EA060CC3F3C2000EF10C0303EA51
:10545000060AC3F3C20B0EF10D0303EA0608C3F3F9
:10546000C2070EF10E03089003EA0600C3F3C20957
:105470000EF10F031D9003EA0600C3F3C20E049B56
:1054800040F2B016C2F200061C90A3F5FC7006EBC9
:10549000C5130B930A9B06EBC3130A93099B06EBF8
:1054A000C3130993089B06EBC313089306EBCB13B6
:1054B000079306EBC713069306EBC913059306EB98
:1054C000CE134FF0000E049306E000BF0EF1010E64
:1054D000BEF1080F3FF418AE1E9B03EB0E071FFA38
:1054E00087F9B9F17F0FF1D894B152B3D1B3BCF1C0
:1054F000000F49D0BAF1000F58D0B8F1000F67D0B3
:105500001D9B002B76D01C9B002BDFD185E000BFBC
:1055100083460B981B9E10F809701BF80E504346EB
:10552000D046E24647EA060CEE071A9D08BF07EA96
:10553000050C00F809C05846D446C2469846002AD1
:10554000D4D10A9B10F80E6013F80970199DB607A4
:1055500045EA0705129E58BF07EA060503F80950F9
:105560000029C4D1099B10F80E6013F80970189D2A
:10557000760745EA0705119E58BF07EA060503F8B6
:105580000950BCF1000FB5D1089B10F80E6013F85C
:105590000970179D360745EA0705109E58BF07EAB0
:1055A000060503F80950BAF1000FA6D1079B10F8C1
:1055B0000E6013F80970169DF60645EA07050F9E62
:1055C00058BF07EA060503F80950B8F1000F97D154
:1055D000069B10F80E6013F80970159DB60645EA93
:1055E00007050E9E58BF07EA060503F809501D9BE4
:1055F000002B88D1059B10F80E6013F80970149DDC
:10560000760645EA07050D9E58BF07EA060503F82A
:1056100009501C9B002B7FF459AF049B0C9D13F881
:10562000097010F90E603D40002E139E48BF47EAF6
:10563000060503F8095049E701990A78002A00F0A5
:105640006B8100230BE000BF009B019A0133D9B2AC
:10565000525C029D002A00F1060000F05D81202AC4
:10566000C0F05A8101B27A29009306DB05F10800E7
:1056700005B2372D00F35081002005F00701012706
:1056800007FA01F11A91691C1FFA81FC01F0070168
:1056900007FA01F11991A91C1FFA81F801F007011D
:1056A00007FA01F11891E91C1FFA81FA01F00701CC
:1056B00007FA01F11791291D8BB201F0070107FAD2
:1056C00001F11691691D1FFA81F901F0070107FA2E
:1056D00001F11591A91D8CB201F0070107FA01FB38
:1056E00048F2741102EB4202C0F6000101EB4202E3
:1056F000A9B2A2F1C0061B91CA0840F2B011C2F2D1
:10570000000101EBC21212924FEADC0201EBC2125D
:1057100011924FEAD80201EBC21210924FEADA025C
:105720001E9301EBC2120F921E9AEB1DD20801EBE1
:10573000C2120E924FEAD9021FFA83FE03F007034A
:1057400001EBC21207FA03F30D92E2084FEADE07FB
:1057500001EBC21201EBC7110B911A990C92C943CC
:105760000A9119997246C943099118994FF0000E90
:10577000C943089117990295C94307911699CDF825
:105780007490C943069115991C94C94305916FEA19
:105790000B010491D943CDF850B01393039105E068
:1057A0000EF1010EBEF1060F3FF44EAF00EB0E01FD
:1057B0001FFA81F9B9F17F0FF2D81B99402915D34F
:1057C000BCF13F0F2BD9B8F13F0F3AD9BAF13F0FD7
:1057D00049D91E993F2958D91D993F2967D91C9944
:1057E0003F2976D93F2ADBD885E000BF129F1A9C5B
:1057F00017F80910E34616F80EC05346C24641EAB0
:1058000004085FEACC750A9C08BF01EA0408DC467C
:1058100007F80980D0469A46BCF13F0FD3D8119BB8
:1058200016F80E5013F80910199CAD0744EA01044C
:10583000099D58BF01EA050403F80940B8F13F0F7C
:10584000C4D8109B16F80E5013F80910189C6D0759
:1058500044EA0104089D58BF01EA050403F8094021
:10586000BAF13F0FB5D80F9F179B17F8091016F81C
:105870000E5041EA03042D07079B58BF01EA0304B9
:1058800007F809401E993F29A6D80E9F169B17F8C6
:10589000091016F80E5041EA0304ED06069B58BFA6
:1058A00001EA030407F809401D993F2997D80D9F85
:1058B000159B17F8091016F80E5041EA0304AD06BF
:1058C000059B58BF01EA030407F809401C993F29CA
:1058D00088D80C9F149B17F8091016F80E5041EA4F
:1058E00003046D06049B58BF01EA030407F809404E
:1058F0003F2A3FF655AF0B9F039B17F8091016F987
:105900000E5001EA0304002D139B48BF41EA030433
:1059100007F8094044E700BF1FB0BDE8F08F000062
:105920002DE9F04F83B040F6182240F2801AC2F2FF
:105930000002C2F2000A1068DAF80410401AFA28CD
:105940003CBF03B0BDE8F08F1068CAF8040040F215
:105950004810C2F20000D0E9000402F005FB054641
:1059600020460E4602F000FB40F2080841EC100B06
:10597000C2F2000874A140462A4633468DED000B62
:10598000FAF710FD40F26010C2F20000006802F069
:10599000EBFA044640F25C10C2F2000000680E46CA
:1059A00002F067F89FED600B53EC102B02F0F0F85B
:1059B0009FED5F0B53EC102B01F094FE9FED5E0BFF
:1059C00053EC102B02F0E4F89FED5D0B53EC102B21
:1059D00001F0D4FD41EC100B40F26410C2F2000063
:1059E000007A08F1150902905AA14846224633462A
:1059F0008DED000BFAF7D6FC40F22010C2F2000049
:105A0000C26840F23010C2F20000C36808F12A0BED
:105A100055A15846FAF7C6FC40F27010C2F20000D9
:105A2000D0E9020402F0A0FA054620460E4602F034
:105A30009BFA41EC100B08F13F074EA138462A466D
:105A400033468DED000BFAF7ADFC40F6FC00C2F2D8
:105A500000000288438840F2B450C2F20000068879
:105A6000458808F1540448A12046CDE90065FAF7BD
:105A700099FC40F21010C2F200009AF8002003785E
:105A800008F1690544A12846FAF78CFC40F6182075
:105A9000C2F20000006844F6D351C1F26201A0FBDB
:105AA000010240F2B050C2F20000006840F2980AD1
:105AB000A0FB0101C2F2000A92098B093AA15046EB
:105AC000FAF770FC0020002142460123FFF702FB99
:105AD000002009214A460123FFF7FCFA0020122189
