:020000040800F2
:10000000983000207502000835440008313B000894
:10001000314400080D0F0008BD6300080000000017
:10002000000000000000000000000000D956000899
:10003000D50F000800000000515200088559000843
:100040008F0200088F0200088F0200088F0200084C
:100050008F0200088F0200088F0200088F0200083C
:100060008F0200088F0200088F0200088F0200082C
:100070008F0200088F0200088F0200088F0200081C
:100080008F0200088F0200088F0200088F0200080C
:100090008F0200088F0200088F0200088F020008FC
:1000A000495A0008795B00086D5B00088F02000860
:1000B0008F0200088F0200088F0200088F020008DC
:1000C0008F0200088F0200088F0200088F020008CC
:1000D0008F0200082D6300088F0200088F020008BD
:1000E0008F0200088F0200088F020008E15B000801
:1000F000FD5C0008F15C00088F0200088F02000818
:100100008F0200088F0200088F0200088F0200088B
:100110008F0200088F020008855B00088F0200082C
:100120008F0200083D0F0008490F00088F020008E9
:100130008F0200088F0200088F0200088F0200085B
:100140008F0200088F0200088F0200088F0200084B
:100150008F020008550F0008610F00087563000842
:100160008F0200088F0200088F0200088F0200082B
:100170008F0200088F0200088F02000800000000B4
:100180008F0200088F02000800F002F800F062F809
:1001900014A696E8000CB244B344DA4501D100F04D
:1001A00059F8BAE80F000FA696E83000A5EB040551
:1001B00004EB0607AAEB0704A7F101074FEA1515A0
:1001C0004FEA3414A4F10104AC4201D300F042F828
:1001D00013F0010F18BFFB1A43F0010300F001F800
:1001E000DBE71847647D0000847D0000103A24BFDF
:1001F00078C878C1FAD8520724BF30C830C144BF8C
:1002000004680C6070470000704700000023002461
:1002100000250026103A28BF78C1FBD8520728BF16
:1002200030C148BF0B607047662907F022826429FD
:1002300000F0CC80002070471FB507F008FA00F0EE
:10024000EFFC04000020002106F08AFDE0601FBDE5
:1002500010B510BD00F0E4FD1146FFF7EDFF06F00C
:10026000AFF800F002FE03B4FFF7F2FF03BC00F0AA
:1002700045FE00000948804709480047FEE7FEE7C1
:10028000FEE7FEE7FEE7FEE7FEE7FEE7FEE7FEE746
:1002900004480549054A064B70470000355A0008D6
:1002A00089010008982A002098300020982C00200E
:1002B000982C002053EA020C00F069802DE9F04BE5
:1002C0004FF00006002B1FBFB3FA83F503FA05F4C5
:1002D00024FA05F65E4012BF1643B2FA82F502FA1E
:1002E00005F4C5F120051EBF22FA05FC44EA0C0402
:1002F000203556EA044C4FEA144418BF641C4FF0F2
:1003000000084FF00009904271EB030C39D300292B
:1003100019BFB1FA81F701FA07F6B0FA80F700FACF
:1003200007F6C7F120071EBF20FA07FC46EA0C06B5
:100330002037B6FBF4FCA7EB0507103F07F01F0BB7
:10034000CBF120062CFA06F60CFA0BFB44BFB346A1
:100350000026202FA4BF5E464FF0000B5BEA060C80
:1003600008BF4FF0010B19EB0B0948EB0608ABFB7C
:10037000027C06FB02CC0BFB03CCC01B71EB0C0117
:10038000C1E70B46024641464846BDE8F08B13B52F
:10039000084318BF4FF0FF300146AFF30080BDE8BF
:1003A0001C4070470FB41CB5074B06AA7B44694636
:1003B0000090059800F0E9FB0020694600F0F8FB8A
:1003C0001CBC5DF814FB0000010800002DE9F041A1
:1003D0000646002410687529314616A510D0AFF3E3
:1003E0000080002802DA404213A507E031688A073E
:1003F00001D512A502E0490704D511A5012401E0A9
:10040000AFF3008000210A2206F1240709E0B0FBC7
:10041000F2FCB0FBF2F302FB1C00303078541846BB
:10042000491C0028F3D123462A463046BDE8F04156
:1004300000F03FB9000000002D0000002B0000007C
:10044000200000002DE9F0474FF0000A89460446DD
:10045000C0F820A02046E1688847002876D02528EB
:1004600006D0D4E901219047206A401C2062F1E7C0
:10047000E168204600258847C4F81CA006460027EE
:10048000C4F818A02A2E09D0304606F061FC38B313
:1004900004EB8708303EC8F8186019E059F8041BCF
:1004A000204604EB87029161E1688847012F0646E8
:1004B00018D1E069002820DA25F020051DE0D8F8E1
:1004C000180000EB800006EB40003038C8F8180038
:1004D0002046E1688847064606F03AFC0028EED13F
:1004E000012F0AD02E2E08D12046E16888477F1CB4
:1004F0000646022F45F02005C4DBA069002803DA78
:10050000404245F00105A061E80701D025F0100543
:10051000B6B1A6F14100192802D8203645F400658D
:100520004A463146204625604D46FFF77DFE58B1CC
:10053000012806D0ED1D25F0070000F1080989E724
:1005400004E005F1040985E730468AE7206ABDE842
:10055000F08710B5431C02E010F8011B71B1810750
:10056000FAD14FF0013202C88C1A8C4314EAC2113E
:10057000F9D0C01A0A0603D0C01E10BDC01A10BDA3
:100580000A0401D0801E10BD0902FCD0401E10BD1F
:10059000032A40F2308010F0030C00F0158011F8AF
:1005A000013BBCF1020F624498BF11F801CB00F887
:1005B000013B38BF11F8013BA2F1040298BF00F8DB
:1005C00001CB38BF00F8013B11F0030300F0F582C6
:1005D000083AC0F0088051F8043B083A51F804CBBF
:1005E000A0E80810F5E7121D5CBF51F8043B40F885
:1005F000043BAFF30080D20724BF11F8013B11F890
:1006000001CB48BF11F8012B24BF00F8013B00F8D3
:1006100001CB48BF00F8012B70474FF000020429BE
:10062000C0F0128010F0030C00F01B80CCF1040C21
:10063000BCF1020F18BF00F8012BA8BF20F8022B55
:10064000A1EB0C0100F00DB85FEAC17C24BF00F8FB
:10065000012B00F8012B48BF00F8012B70474FF029
:10066000000200B5134694469646203922BFA0E802
:100670000C50A0E80C50B1F12001BFF4F7AF09070E
:1006800028BFA0E80C5048BF0CC05DF804EB8900FF
:1006900028BF40F8042B08BF704748BF20F8022B42
:1006A00011F0804F18BF00F8012B7047704770475A
:1006B00070472DE9F0470D4699469246044600F1F1
:1006C00024080168880604D5E06921F01001216042
:1006D00000E00120A84201DD471B00E00027A169DE
:1006E0007A1902EB0900081AA0612078C00602D42A
:1006F0002046AFF30080002608E0D4E901211AF873
:1007000006009047206A401C761C20624E45F4DBB0
:100710002078C0060AD52046AFF3008006E0D4E971
:10072000012130209047206A401C2062381EA7F12A
:100730000107F4DC07E0D4E9012118F8050090472F
:10074000206A401C2062281EA5F10105F3DC20462A
:10075000AFF300802078000602D50220BDE8F087C4
:100760000120FBE72DE9FF4F0C461E464FF0FF37F7
:100770008BB0D2E90001DDF860800A908A46C1F3AF
:100780000A5505B93D46002108464FF00000BAF170
:10079000000F00F4400005DA00EB80004FF4400148
:1007A00001EA50004FEA9059B9F1010F00DDB94656
:1007B0000A9850EA4A000ED044F61050A5F2FF35D0
:1007C00045432F14B8F1000F1ED07542291E1EDDBF
:1007D000C9F100021CE0B8F1010F4FF0000001D098
:1007E000302103E0F24305E02154401CB042FBDB22
:1007F00030460022002121540B99C1F80880C1E93C
:1008000000200FB0BDE8F08FBD1B6D1CDEE74A462F
:1008100000DA694206A800F08DFA06AB93E80700FB
:1008200003AB83E8070050460A9905F0B1FE8DE856
:100830000700A0F500501F3800900398002D0ADD36
:1008400042F21F014A460844002303A90390684668
:1008500006F01AF909E0A0F500504A461F380023B7
:1008600003A90390684606F024F98DE80700000408
:10087000000C03D04FF0FF30410800E01046B8F103
:10088000000F03D00022009215461EE0751E05D40D
:1008900000F0CAF9303262556D1EF9D5B346012217
:1008A000084302D000227F1C04E02078302801D1C8
:1008B00000227F1E002A099784D01DE0112D07DA3F
:1008C00000F0B2F9303262556D1C50EA0102F5D1E8
:1008D000084302D00098C8B10EE00021681E05E070
:1008E000235C625C63542254401E491C8142F7DB46
:1008F000AB46A81B401E0990002004F80B000B9883
:10090000099AC0F80880C0E9002B7AE711264FF059
:10091000000857E72DE9F04F88460446D21D22F023
:10092000070191B0D1E90001CDE90A0106F0F8F91B
:1009300002460B98C00F01D02D2007E020688107E8
:1009400001D52B2002E0202101EAC000032A0990F2
:1009500001D0072A05DB03464146204600F0AAF9EC
:100960000BE12078800601D5E06900E00620B8F1AF
:10097000650F814606D0B8F1660F18D0B8F1670F41
:1009800070D131E00020B9F1110F009001DB11238B
:1009900001E009F101030AAA01A90CA8FFF7E2FE90
:1009A000DDE90C70002609F10105834647E00120CE
:1009B0004B4600904FF000470AAA01A90CA8FFF788
:1009C000D1FEDDE90DB00C995D46002610B909F1A4
:1009D00001000D18B9EB050003D4C0F1FF3609F191
:1009E0000105A5EB09002BE0B9F1010F01DA4FF089
:1009F00001090020B9F1110F0090484601DD1123D3
:100A000000E003460AAA01A90CA8FFF7ABFEDDE946
:100A10000C704D4600268346207800070AD4AB456B
:100A200000DA5D4601A8012D04DD411911F8011C11
:100A3000302907D04F4502DA17F1040F04DA0120FC
:100A400082460FE06D1EEEE7002F02DCED1B3E44F8
:100A500003E0781CA84200DD7D1CB81B00F1010AF0
:100A60004FF000472078000703D4AA4501DB4FF080
:100A7000FF3A0021B7F1004F0DF143088DF8431004
:100A800024D002202B23002F01DA7F422D230A21BC
:100A9000021EA0F1010000DC5FB197FBF1FC97FBA7
:100AA000F1F201FB1C7C17460CF1300C08F801CD6B
:100AB000EEE7A8F1010003702188090501D5452161
:100AC00000E06521A0F1010800F8011C09980FA9B8
:100AD000A1EB0807FF1D00B10120411901EBEA70ED
:100AE000A1693844081A401EA0612078C00602D4CB
:100AF0002046AFF30080099828B1D4E9012190473E
:100B0000206A401C20622078C00622D52046AFF320
:100B100000801EE0002E04DBB34502DD01A8805DED
:100B200000E03020D4E901219047206A401C206277
:100B3000761CAAF101005FEA000A0AD100F070F801
:100B4000C0680168405CD4E901219047206A401CDC
:100B50002062281EA5F10105DCDC07E0D4E90121B3
:100B600018F8010B9047206A401C2062381EA7F13C
:100B70000107F3DC2046AFF30080032011B041E60B
:100B800001694A1C02610878704700B58FB0CDE951
:100B900001310021059105497944CDE90310114641
:100BA0006846FFF74FFC0FB000BD0000E5FFFFFFF8
:100BB0000A6802F8010B0A60704710B5203AC0F0CD
:100BC0000B80B1E81850A0E81850B1E81850A0E820
:100BD0001850203ABFF4F5AF5FEA027C24BFB1E8B9
:100BE0001850A0E8185044BF18C918C0BDE81040FC
:100BF0005FEA827C24BF51F8043B40F8043B08BF05
:100C00007047D20728BF31F8023B48BF11F8012BCB
:100C100028BF20F8023B48BF00F8012B70470000B6
:100C2000004870470801002030B5B0F10A0271F1A8
:100C300000034FEA900E4EEA817EB0EB0E0061EBAE
:100C400091014FEA101E4EEA017E10EB0E0041EBBF
:100C500011114FEA102E4EEA016E10EB0E0041EB1F
:100C600011214FEA104E4EEA014E10EB0E0041EBFF
:100C70001141401841F100014FEAD00040EA4170B3
:100C80004FEAD1014FEA810444EA907410EB8005E9
:100C900044EB01046D1944EB0404521BA3414FF0D3
:100CA000000348BF0A3200D530BD401C41F10001AD
:100CB00030BD00002DE9F0411F46044603260168BF
:100CC000072A01F4006004DB08B116A505E016A5AB
:100CD00003E008B115A500E015A521F01000206083
:100CE000A069C01EA0610FB1401EA0612046AFF3F5
:100CF00000804FB1D4E9012138469047206A401C5A
:100D00002062C01C206206E0206AFAE7D4E90121D3
:100D100015F8010B9047761EF8D22046AFF30080FD
:100D2000BDE8F0814E414E006E616E00494E4600B6
:100D3000696E66002DE9F047814616468AB035484F
:100D400078440DC88DE80D0032487844801C03AC0F
:100D50000DC884E80D0041F69B300844372190FB14
:100D6000F1F290FBF1F5A5F1800501FB12041B3CAB
:100D700002D56442012000E00020DFF898A0804600
:100D80000027FA44AAF1BE0A0EE0E0070AD0324674
:100D9000684607EB470101230AEB810105F089FE54
:100DA0008DE8070064107F1C002CEED1194F7F44A2
:100DB000AE3F19E0E80715D007EB04100DF1180A53
:100DC00090E80E008AE80E00C068F04201D1981940
:100DD00008903246012306A903A805F06AFE03AB7A
:100DE00083E807006D10641C002DE3D14FF0010370
:100DF00032466946B8F1000F03A802D005F044FE60
:100E000001E005F056FEC9E90001C9F808200AB062
:100E1000BDE8F087B069000000487047E800002096
:100E20007546FFF7F9FFAE4605006946534620F0C8
:100E30000700854618B020B5FFF72AFABDE8204024
:100E40004FF000064FF000074FF000084FF0000B86
:100E5000AC46ACE8C009ACE8C009ACE8C009ACE8F5
:100E6000C00921F007018D46704710B50446AFF365
:100E700000802046BDE81040FFF7F5B900000000F3
:100E800030B44FF0013C50F8042B51F8043BCCFA3D
:100E900052F4D51A20D1FCB950F8042B51F8043B78
:100EA000CCFA52F4D51A17D1B4B950F8042B51F832
:100EB000043BCCFA52F4D51A0ED16CB950F8042B7D
:100EC00051F8043BCCFA52F4D51A05D1002CDAD0F3
:100ED00030BC4FF00000704729BAB1FA81F111F02F
:100EE0001801D1F120008440F2D1CA40CB4012F069
:100EF000FF0213F0FF0330BCD01A704701491820DD
:100F0000ABBEFEE72600020070470000FEE70000CF
:100F100040F24810C2F20000017E002918BF70475D
:100F20000121017642F69421C2F200010A680968A3
:100F300041F246431944C0E90421704742F20C7063
:100F4000C2F2000000F024B942F24C60C2F200008C
:100F500000F01EB942F26C70C2F2000000F018B945
:100F600042F2AC60C2F2000000F012B980B582B06B
:100F70000020019043F63000C4F202000168002214
:100F800041F4800101600068002100F480000190BC
:100F90000198392000F0EEFD392000F0D9FD3A200B
:100FA0000021002200F0E6FD3A2000F0D1FD4520AE
:100FB0000021002200F0DEFD452000F0C9FD4620A2
:100FC0000021002200F0D6FD462002B0BDE880409E
:100FD00000F0BEBD7047000072B600BFFEE7000023
:100FE0002DE9F04186B0002643F630000596CDE9A4
:100FF0000366CDE901660096C4F20200016840F282
:10100000004441F0400101600168C4F2020401F0B3
:1010100040010091009900960168002241F0020110
:10102000016001684FF4704801F0020100910099DD
:101030000096016841F480710160016801F48071DB
:10104000009100990096016841F02001016001685B
:1010500001F02001009100990096016841F0010122
:101060000160016801F0010100910099009601689A
:1010700041F080010160016801F080010091009958
:101080000096016841F004010160016801F004016B
:10109000009100990096016841F01001016000681C
:1010A0004FF4704100F0100000900098204600F0CE
:1010B0003FFB01AD0127A4F580602946CDE901760B
:1010C000039600F05FFA20462946CDE90187CDE975
:1010D000036600F057FA06B0BDE8F08170B5866D82
:1010E000044600F02BFB94F83510022928D1054660
:1010F0002068216C026822F016020260426922F028
:101100008002426109B9A16C19B1016821F008019E
:101110000160016821F00101016000BF20680068E2
:10112000C00715D000F00AFB401B0628F6D320208C
:101130006065032084F83500002184F8341070BD08
:10114000802060650120002184F8341070BD00BF4C
:10115000E06D3F2101FA00F0B060012084F8350015
:101160000020002184F8341070BD000090F8351084
:10117000022909D1052180F835100068016821F0A5
:101180000101016000207047802141650120704706
:10119000F0B581B00021009140F28C01C2F2000153
:1011A0000B68D0E9166148F2B51537680822C1F618
:1011B0004E358A403A42A3FB05350CD003681C68C3
:1011C000640708D51C6824F004041C60B260426DFA
:1011D00042F00102426501228A403A4208D0036887
:1011E0005B691B0604D5B260426D42F002024265A3
:1011F00004228A403A4208D003681B689B0704D542
:10120000B260426D42F00402426510228A403A42C6
:1012100019D001680B681B0715D5B2600B680A6806
:101220005B0309D4D20509D40A6822F008020A60D7
:10123000016C29B907E000BF110341D4016C11B161
:10124000044688472046C26D202101FA02F33B4242
:1012500043D001680F68FF063FD5B36090F8357042
:101260000B68052F1CD123F016030B604B6923F08C
:1012700080034B61036C0BB9836C1BB10B6823F0CB
:1012800008030B603F219140B160012180F83510C7
:10129000016D0022002980F8342054D158E000BFAD
:1012A0000A685B0310D4D20512D40A6822F0100237
:1012B0000A60012180F83510002180F8341007E021
:1012C000816C0029BCD1BEE7110301D4416C00E060
:1012D000C16B11B1044688472046416DC1B3416DD1
:1012E000C9072ED0052180F835100168AA0A0B68BD
:1012F00023F001030B60009B0133934200931AD843
:101300000B68DB0717D0009B01339342009312D880
:101310000B68DB070FD0009B0133934200930AD880
:101320000B68DB0707D0009B01339342009302D880
:101330000B68DB07DFD1012180F83510002180F830
:101340003410C16C21B101B0BDE8F040084700BFC6
:1013500001B0F0BD2DE9F041044600F0EFF9ECB129
:101360000546022084F835000020216884F8340006
:10137000086820F00100086021680868C00711D0E3
:1013800000F0DCF9401B0528F6D9032520230320B3
:10139000636584F83550BDE8F08100BF0120BDE8E9
:1013A000F08100BF086848F23F02CFF21002D4E992
:1013B000013500EA020C04F10C0898E8C10143EA87
:1013C0000C032B431843D4E9072E30433843104312
:1013D000626A40EA0E00042A40EA08031CD1206B2E
:1013E000D4E90A2E40EA0E00184308604869BEF1AD
:1013F000000F20F0030040EA020040F0040C11D07E
:10140000B8F5005F36D0B8F1000F45D1022A46D0BA
:10141000012A3BD032B942E00B60486920F0070056
:1014200040EA020C01F0F8004AF6AB221038CAF686
:10143000AA22A0FB02231A0947F63C73C1F814C084
:10144000C0F600039A5C40F2FF335F284FF03F0084
:1014500021EA030100FA02F088BF0431C4E9161240
:101460008860002301250020636584F83550BDE8BD
:10147000F08100BF032AD5D8012540230120DFE8F1
:1014800002F0030E030500BF82E700BFAEF1C0709B
:10149000B0FA80F0400904E0032A04D3C2D1CEF3AD
:1014A00000600028BED0012540230120636584F838
:1014B0003550BDE8F081000090F834C0BCF1010F58
:1014C00004BF0220704770B54FF0010C80F834C0A3
:1014D000D0F858E090F835C0BCF1010F38D14FF08A
:1014E000020C80F835C04FF0000CC0F854C0D0F8A2
:1014F00000C08468056CC06DDCF80060402C26F4E8
:101500008026CCF80060CCF804300B4604BF1346AC
:101510000A463F2101FA00F0CCF80830CCF80C2044
:10152000CEF80800DCF8000040F01600CCF800000F
:101530002DB1DCF8000040F00800CCF80000DCF829
:10154000000040F00100CCF80000002070BD00BF9A
:10155000002180F83410022070BD0000B0B50446B0
:1015600000F0ECF8054640F28400C2F2000000787A
:10157000611C18BF044400BF00F0E0F8401BA0420B
:10158000FAD3B0BD2DE9F04F83B000F1200200F195
:101590003E4741F60045009207F1FF77C4F202058D
:1015A00008224FEAB726A84208BF072200254FF0BD
:1015B00000084FF00009072E38BF4FEAB72201920A
:1015C0000AE000BF09F1010908F10208B9F1100FA2
:1015D00005F1040500F0A2800F68012202FA09FE5D
:1015E00017EA0E0AEED0D1F804C003220CF003076C
:1015F0007E1E02FA08F4012E6FEA040B12D88468EA
:10160000CE6804EA0B0406FA08F6344384604468A2
:1016100024EA0E06CCF3001404FA09F426434660CB
:1016200004E000BF032F01D103271EE0C6688C68C9
:1016300006EA0B0604FA08F42643022FC66014D10A
:101640006FF00302009E02EA590756F807C005F042
:101650001C040F220B69A2402CEA0202A3401A4389
:10166000F251D1F804C00CF00307026807FA08F33E
:1016700002EA0B021A431CF4403F0260A2D000228F
:1016800043F644030292C4F202031A6843F600448C
:1016900042F480421A601A68C4F2010402F48042E3
:1016A0000292029A29F003024FF6084C2244CFF628
:1016B000FF7C52F80C3005F00C070F26BE40B343F8
:1016C000019E06FA07F73B4342F80C30A2684B68CC
:1016D00042EA0A0743F60C4CDE0258BF22EA0A0728
:1016E000A760C4F2010CDCF800209E0242EA0A075F
:1016F00058BF22EA0A07CCF8007062689E0342EAEB
:101700000A0758BF22EA0A0767602268DB0342EA39
:101710000A0758BF22EA0A07276053E703B0BDE86B
:10172000F08F00000069084018BF012070470000DA
:10173000002A08BF090481617047000042F6942026
:10174000C2F2000000687047002804BF0120704703
:10175000F0B581B0044690F83D0028B9002084F827
:101760003C00204600F050F9242084F83D00206819
:10177000016821F001010160016841F4004101604C
:10178000016821F40041016000F0E2FA636848F268
:10179000A16CC0F2010C40F60011C0F23D0163459E
:1017A0003CBF48F28041C0F21E01884202D20120B3
:1017B00001B0F0BD4DF68361C4F21B31A0FB0112F4
:1017C0002168970CD1F804E04FF496762EF03F058F
:1017D00045EA92454D60774348F638160D6AC0F2E7
:1017E0004106A7FB067625F03F07634538BF960CF8
:1017F000721C3A430A62CA6948F2A0664CF6FF7747
:10180000C0F20106B34222EA07020BD801385B009E
:10181000B0FBF3F001306FF31F30042898BF0420B1
:101820001BE000BFA768013857B119277B43B0FB05
:10183000F3F001306FF31F3070B100F5804007E026
:1018400003EB4303B0FBF3F001306FF31F3018B12B
:1018500000F5004001E000BF01201043C8610868A6
:10186000D4E9072320F0C0001043184308608868BB
:1018700048F2FF3204F10C0790438CCF1843104319
:10188000A6698860C86820F0FF0038433043C8600C
:10189000086840F00100086000202021206484F8DE
:1018A0003D10206384F83E0001B0F0BD2DE9F04307
:1018B00083B0994616460F460446FFF73FFF94F85B
:1018C0003D10202924D10546206800BF8169890781
:1018D0001AD5FFF733FF411B20681A29F6D3816917
:1018E0008907F3D500202021206384F83D1084F877
:1018F0003E00216C41F02001216484F83C0002206C
:1019000003B0BDE8F08300BF94F83C10012903D177
:10191000022003B0BDE8F083012284F83C20036874
:10192000DDE90B180A9ADB0703D1036843F00103D2
:101930000360036823F400630360212084F83D0002
:10194000402084F83E000020206462626185608D42
:10195000394620850020CFF6FF70E06220463246EF
:101960004B46CDE9008502F007F918B1012003B01C
:10197000BDE8F083208D98B9204641462A4602F002
:101980005FF988B3206C0428F0D12068016841F425
:1019900000710160012003B0BDE8F0830004EBD0CA
:1019A000204641462A4602F0FBFA0028EAD1616A45
:1019B0002268084610F8013B1361238D6062581EAF
:1019C0002085678D013F678557697F07E6D5070446
:1019D000E4D048781061881C6062981E2085618D73
:1019E00001396185DAE700BF2068016841F40071C0
:1019F0000160202084F83D00002084F83E0084F837
:101A00003C0003B0BDE8F083B0B586B045F60001F8
:101A10000068C4F20001002488420594CDE9034423
:101A20000294019402D006B0B0BD00BF43F6300569
:101A30000094C4F20205286840F02000286028685D
:101A400000F02000009000980320019012200290E6
:101A50000120CDE903000420059001F5DE3001A945
:101A6000FFF790FD0094286940F480002861286900
:101A700000F480000090009806B0B0BD40F28400F1
:101A800042F69421C2F20000C2F2000100780A6816
:101A9000104408607047000080B543F60040C4F26F
:101AA0000200016841F400710160016841F4806145
:101AB0000160016841F480710160032000F086F844
:101AC000002000F005F800F027F8002080BD00009D
:101AD00070B540F28406C2F2000640F28C01327802
:101AE000C2F200014FF47A730968B3FBF2F20446C4
:101AF000B1FBF2F1084600F05FFB0F2C4FF001053F
:101B000008D838B94FF0FF3021460022002500F0F8
:101B100031F87460284670BD82B0002043F6400161
:101B20000190C4F202014A6842F480424A604A6865
:101B300002F480420192019A0090086840F08050BF
:101B40000860086800F080500090009802B070476C
:101B5000002848BF704700F01F01012202FA01F17E
:101B60001C2202EAD0004EF20012CEF20002815096
:101B70007047000010B54EF60C5CCEF2000CDCF89D
:101B80000030C3F3022E8EF00704042C28BF042477
:101B9000BEF103034FF0FF3E0EFA04F438BF0023FA
:101BA000A14399400EFA03F39A43114300F00F0248
:101BB00000F160430901043A03F5644362440028DC
:101BC00048BF02F10C03197010BD00004EF60C5115
:101BD000CEF200010A684FF6FF031A4060F30A22B2
:101BE00042F0806040F0FD7008607047002804BF3C
:101BF000012070472DE9F04143F60808C4F20208BD
:101C00000446D8F8F8030D4600F00700884207D2D2
:101C100088F8F853D8F8F80300F00700A84277D105
:101C20002068810717D5410705D5D8F8001041F481
:101C3000E051C8F80010010705D5D8F8001041F4AC
:101C40006041C8F80010D8F80010A26821F0F00137
:101C50001143C8F80010C00740D1D8F8F80300F0CD
:101C60000700A84207D988F8F853D8F8F80300F01D
:101C70000700A8424CD12068410707D5D8F80010CA
:101C8000E26821F4E0511143C8F80010000708D5BC
:101C9000D8F80000216920F4604040EAC100C8F88B
:101CA000000000F07DF8D8F8001047F20C72C1F384
:101CB0000311C0F60002515C40F28C0220FA01F1DF
:101CC00040F28800C2F200000068C2F20002116017
:101CD000FFF7FEFE0020BDE8F08100BF6068811EB6
:101CE000022907D258F8081C89015CBF0120BDE811
:101CF000F08111E0012807D158F8081C89035CBF66
:101D00000120BDE8F08107E058F8081C890703D4DA
:101D10000120BDE8F08100BFD8F8001021F00301D8
:101D20000843C8F80000FFF709FD064641F288376E
:101D3000D8F80000616800F00C00B0EB810F8CD087
:101D4000FFF7FCFC801BB842F2D90320BDE8F0810C
:101D500040F28C0043F60801C2F20000C4F2020116
:101D60000068096847F21C72C1F38221C0F60002C4
:101D7000515CC8407047000040F28C0043F60801F7
:101D8000C2F20000C4F202010068096847F21C7246
:101D9000C1F34231C0F60002515CC84070470000F8
:101DA00010B543F60404C4F20204606800F00C00AD
:101DB00008280BD0042819BF42F20040C0F2F400FA
:101DC00041F60030C0F2B70010BD00BF20682168A6
:101DD0002368490241F60031C0F2B70100F03F022A
:101DE000C3F388105CBF42F20041C0F2F401A1FBD2
:101DF00000010023FEF75EFA21680222C1F30141CF
:101E000002EB4101B0FBF1F010BD0000002804BF5F
:101E1000012070472DE9F04182B00446007843F676
:101E20000006C007C4F202060CD0B06800F00C0037
:101E3000042840F081803068800303D56068002862
:101E400000F06881207880071BD5B06810F00C0F77
:101E500009D0B06800F00C00082840F08780706856
:101E6000400200F183803068800703D5E0680128D4
:101E700040F050813068216920F0F80040EAC1004C
:101E800030602078000713D4207840072AD4A56951
:101E9000002D00F03A81B06800F00C00082840F0F6
:101EA000A580012D40F00E81012002B0BDE8F08137
:101EB0006069002800F082800020C4F247200121E0
:101EC000C0F8801EFFF73AFC054600BF706F800720
:101ED000DAD4FFF733FC401B0228F7D9032002B005
:101EE000BDE8F081306C5FEAC0080AD400200190A0
:101EF000306C40F080503064306C00F080500190C5
:101F0000019847F20007C4F200073868C00547D4BB
:101F1000386840F480703860FFF710FC054600BF59
:101F20003868C0053CD4FFF709FC401B0228F7D9EC
:101F3000032002B0BDE8F081B06800F00C00082872
:101F400003D1706840023FF576AF61683068B1F543
:101F5000803F07D0B1F5A02F40F09A8040F4802058
:101F60003060306840F4803030609AE0E0680028EB
:101F700040F20000C4F247205CD001210160FFF76D
:101F8000DDFB0546306880073FF574AFFFF7D6FBF1
:101F9000401B0228F6D9032002B0BDE8F08100BF43
:101FA000A168306F012905D0052955D140F0040002
:101FB0003067306F40F00100306756E00020C4F217
:101FC00047200021C0F8801EFFF7B8FB054600BF80
:101FD000706F80077FF558AFFFF7B0FB401B0228FA
:101FE000F6D9032002B0BDE8F08100BF0027C4F29B
:101FF000472700203866FFF7A1FB022D05460DD1CB
:102000003068800140F18A80FFF798FB401B02286E
:102010004FF00300F4D902B0BDE8F08130688001D0
:1020200073D5FFF78BFB401B02284FF00300F5D957
:10203000F1E700BF00210160FFF780FB054600BF0C
:10204000306880077FF51DAFFFF778FB401B022843
:102050004FF00300F4D9DEE720F001003067306F65
:10206000002920F0040030677AD0FFF767FB0546AF
:1020700041F28837306F800700F18480FFF75EFB04
:10208000401BB842F6D9032002B0BDE8F08100BF82
:1020900020F4803030603068002920F480203060E7
:1020A0007AD0FFF74BFB0546306880033FF5CAAE98
:1020B000FFF744FB401B6428F6D9032002B0BDE8BB
:1020C000F08100BF7068E16900F480028A4221D18A
:1020D000216A00F03F028A421CD147F6C071626A51
:1020E0000140B1EB821F15D1A16A4FF6FF73C903FE
:1020F000994300F44032A1F580318A420AD1E16A65
:1021000000F07060B0EB016F04D1002002B0BDE8B8
:10211000F08100BF012002B0BDE8F08104F11C0590
:102120002FCD084340EA8210D9034FF6FF72914346
:10213000A1F5803140EA05600843706001203866EF
:10214000FFF7FCFA044600BF30688001DDD4FFF7DA
:10215000F5FA001B02284FF00300F5D95BE700BF3A
:10216000FFF7ECFA054641F2883700BF306F800771
:1021700008D5FFF7E3FA401BB8424FF00300F5D94A
:1021800049E700BFB8F1000F3FF581AE306C20F099
:10219000805030647BE600BFFFF7D0FA054600BFF1
:1021A000306880037FF54EAEFFF7C8FA401B642805
:1021B0004FF00300F4D92EE7411E0020B0EB116F61
:1021C0001CBF012070474EF21002CEF20002516097
:1021D0004EF62351CEF20001F0230B7007219060E0
:1021E00011607047704700007047000090F83C2075
:1021F000012A04BF02207047B0B501F108053CCDAB
:10220000D1E900CE23F47C5322F470521A432EF409
:10221000F0431A432CF4E0431A4324F4C0431A4316
:102220002A43C96922F4804203681143596400219A
:1022300080F83C100020B0BD90F83C20012A4FF0FF
:10224000020254D010B580F83D200268D2F804E0B4
:10225000D2F808C00C682EF07003234341F2FF74DB
:10226000C4F20004A24253600EDC40F2FF73C4F2D9
:1022700000039A4216DCB2F1804F2BD040F20043AB
:10228000C4F2000324E000BF40F2FF33C4F20103B4
:102290009A4213DC41F60003C4F200039A4219D0BB
:1022A000002313E040F60003C4F200039A4211D069
:1022B00040F60043C4F200030AE000BF44F200030A
:1022C000C4F201039A4205D040F20043C4F2010374
:1022D0009A4204D149682CF080031943916001218E
:1022E000002280F83D1080F83C20BDE810401046E8
:1022F00070470000002804BF0120704710B5044655
:1023000090F83D0028B9002084F83C00204600F0F9
:102310001FF8022084F83D002068211D03F0F4FC22
:10232000012084F8460084F83E0084F83F0084F8D9
:10233000400084F8410084F8420084F8430084F8A7
:10234000440084F8450084F83D00002010BD0000E2
:10235000006841F20001C4F20001884218BF7047D2
:1023600080B582B00020019043F64000C4F2020024
:102370000168002241F0100101600068002100F0B6
:102380001000019001983620FFF7F4FB362002B0D0
:10239000BDE88040FFF7DCBB90F83D1001291CBF71
:1023A00001207047022180F83D10006841F2FF7261
:1023B000C168C4F20002904241F00101C1600DDC2D
:1023C00040F2FF71C4F20001884215DCB0F1804F89
:1023D0002AD040F20041C4F2000123E040F2FF3174
:1023E000C4F20101884213DC41F60001C4F200018D
:1023F000884219D0002113E040F60001C4F2000128
:10240000884211D040F60041C4F200010AE000BF4A
:1024100044F20001C4F20101884205D040F20041BB
:10242000C4F20101884206D1816801F00701062942
:1024300004BF00207047016841F0010101600020E5
:10244000704700007047000070B504460068C5681A
:102450000669B10716D515F0020113D06FF002011D
:102460000161012121778069800703D02046FFF7B1
:10247000E9FF05E0204600F0F9F8204600F088FA70
:1024800000202077700719D515F0040016D02068B9
:102490006FF00401016102212177806910F4407F0F
:1024A00004D02046FFF7CEFF06E000BF204600F034
:1024B000DDF8204600F06CFA00202077300717D5B1
:1024C00015F0080014D020686FF0080101610421A4
:1024D0002177C069800703D02046FFF7B3FF05E0EE
:1024E000204600F0C3F8204600F052FA0020207782
:1024F000F00619D515F0100016D020686FF0100105
:10250000016108212177C06910F4407F04D0204682
:10251000FFF798FF06E000BF204600F0A7F820462E
:1025200000F036FA00202077F00718BF15F0010000
:1025300002D1300609D412E020686FF00101016178
:10254000204600F0AFFA300609D515F0800006D01D
:1025500020686FF0800101612046FFF743FE70069E
:1025600009D515F0400006D020686FF040010161E8
:10257000204600F0C9FAB00658BF70BD15F0200023
:1025800008D021686FF0200220460A61BDE8704043
:10259000FFF72ABE70BD0000F0B587B0006840F2BA
:1025A0000041C4F2010100258842CDE90555CDE97D
:1025B0000355029524D00021C4F20101884252D172
:1025C000002043F630010190C4F202010A6842F093
:1025D00010020A60096801F01001019101994FF49D
:1025E000D44102910221CDE903100590012006900B
:1025F00040F60000C4F2020000F500642FE000BFC6
:1026000043F630000195C4F20200016840F6000470
:1026100041F4807101600168C4F2020401F4807128
:102620000191019901950168022641F004010160C0
:102630000068032700F0040001900198C020029078
:1026400004F5C05002A9CDE9036505950697FEF78C
:1026500099FF4020CDE90206CDE90455069702A96D
:102660002046FEF78FFF07B0F0BD00007047000066
:1026700090F83C30012B04BF022070474FEAB202B1
:10268000032A00F2FF802DE9F043DFE802F003B1F6
:102690003F7F00BF036840F200461C6A1A6A24F0BC
:1026A000020422F001021A621A46D3F804C052F85A
:1026B00018EF8F6843F48065C4F20106B54244EA1E
:1026C000070405D1CF6824F00C0427F004073C432D
:1026D0000F68B54206D1D1E905582CF440762E4357
:1026E00046EA080C2EF073063743C3F804C09F6116
:1026F0004F6809695F631C629F6947F008079F6123
:102700009F6927F004079F61B1E000BF036840F2B2
:1027100000481C6A1A6A24F4007422F480721A6257
:102720001A46D3F804C052F81CEF8F6843F4806552
:10273000C4F20108454544EA072408D1CF6840F2B5
:10274000FF463F0224F4406427EA06063443D1F8EA
:102750000090454506D1D1E905562CF440572E434B
:1027600047EA061C2EF0730747EA0907C3F804C0BE
:10277000DF614F680969DF631C62DF6947F00807A2
:10278000DF61DF6927F00407DF6170E0036840F272
:102790000045D3F820C01A6A43F4806722F48052BF
:1027A0001A621A465C6852F81C8FD1F800E08E68F5
:1027B000C4F20105AF4204D14D6924F4804444EAD7
:1027C00085142CF4005747EA063728F4E64646EA13
:1027D0000E265C60DE614E6809691E641F62DF6957
:1027E00047F40067DF61DF6927F48067DF613DE060
:1027F000036840F200481C6A1A6A24F0200422F0A0
:1028000010021A621A46D3F804C052F818EF8F6803
:1028100043F48065C4F20108454544EA071407D132
:10282000CF686FF0400624F0C00406EA0716344370
:10283000D1F80090454506D1D1E905562CF4406702
:102840002E4347EA860C2EF4E64747EA0927C3F8E9
:1028500004C09F614F6809699F631C629F6947F4C8
:1028600000679F619F6927F480679F610902136871
:10287000194311600021BDE8F043002280F83C209C
:10288000084670470121002280F83C200846704726
:10289000002804BF0120704710B5044690F83D00A1
:1028A00028B9002084F83C00204600F01FF80220E0
:1028B00084F83D002068211D03F026FA012084F8E9
:1028C000460084F83E0084F83F0084F8400084F815
:1028D000410084F8420084F8430084F8440084F8FE
:1028E000450084F83D00002010BD000070B582B0A6
:1028F000006840F20041C4F20101884218D0002172
:10290000C4F20101884241D10020019043F6440005
:10291000C4F2020001681A2441F00101016000685C
:10292000192500F0010001900198182612E000BF5F
:102930000020009043F64400C4F2020001682D24F8
:1029400041F00201016000682C2500F002000090B7
:1029500000982B26304600210022FFF70BF9304665
:10296000FFF7F6F8284600210022FFF703F9284672
:10297000FFF7EEF8204600210022FFF7FBF8204683
:1029800002B0BDE87040FFF7E3B800BF02B070BD11
:1029900070470000C1B1042908D0082914BF4122A2
:1029A0004022825C012A05D016E000BF3F22825CF3
:1029B000012A11D10222082910D0042914BF80F85D
:1029C000412080F83F200BE090F83E20012A03D1FF
:1029D000022280F83E2003E00120704780F840206A
:1029E000006801F01F010122036A02FA01F123EAE3
:1029F00001020262026A114341F2FF72C4F2000254
:102A0000904201620CDC40F2FF71C4F20001884286
:102A100014DCB0F1804F37D040F2004116E000BF27
:102A200040F2FF31C4F20101884215DC41F6000199
:102A3000C4F20001884227D0002115E040F60001D1
:102A4000C4F2000188421FD040F60041C4F20001E8
:102A5000884219D01FE000BF44F20001C4F2010116
:102A6000884211D040F20041C4F20101884212D1E3
:102A7000416C40F2004340F48062C4F2010341F42F
:102A800000419A42416406D1816801F0070106299C
:102A900004BF00207047016841F00101016000207F
:102AA00070470000006841F20001C4F20001884252
:102AB00018BF7047B0B542F24460C2F2000001682E
:102AC0000131016002F000FC02F072FD40F21425B9
:102AD000C2F200052878012813D140F2A504C2F201
:102AE00000042046FDF735FD82B242F6F800C2F23E
:102AF00000002146022300F04FFFFEF709FA0020F4
:102B00002870BDE8B04070477047000070B582B0D3
:102B100090F84250202D0BD113460A460146002A58
:102B20004FF0010018BF002B06D102B070BD00BFEE
:102B3000022002B070BD00BF0863002622204E6351
:102B40008A628B854E6481F842000C680D46C86B22
:102B500045F6CD7C46F22D11C0F6000CC0F6000102
:102B6000C0E90FC145F65161C0F60001C0E9131676
:102B7000211DFEF7A1FCE8B310206864202029463F
:102B800085F8420001200A6B012A40F0B380002240
:102B900000920A681368009352680092009A00BF7E
:102BA0000A6852E8032F0B6842F0100243E803263C
:102BB000002EBAD00A6852E8032F0B6842F01002C8
:102BC00043E80326002EB0D00A6852E8032F0B68B2
:102BD00042F0100243E80326002EA6D00A6852E80D
:102BE000032F0B6842F0100243E80326002ED7D1D2
:102BF0009BE700BF01962868294602680192406859
:102C000001900198286928B3086850E8030F0A6802
:102C100040F4807042E80303E3B1086850E8030F12
:102C20000A6840F4807042E803039BB1086850E8EA
:102C3000030F0A6840F4807042E8030353B1086848
:102C400050E8030F0A6840F4807042E80303002B49
:102C5000DAD100BF086850E8050F0A6840F00100AB
:102C600042E80503BBB3086850E8050F0A6840F066
:102C7000010042E8050373B3086850E8050F0A68CD
:102C800040F0010042E805032BB3086850E8050F47
:102C90000A6840F0010042E80503002BDAD11AE08F
:102CA000086850E8050F0A6840F0400042E8050354
:102CB000DBB1086850E8050F0A6840F0400042E8C0
:102CC000050393B1086850E8050F0A6840F040001A
:102CD00042E805034BB1086850E8050F0A6840F068
:102CE000400042E80503002BDAD100200A6B012ADC
:102CF0003FF44DAF012002B070BD0000F0B581B0CF
:102D00000546006841F20007C4F20107B8420C46CC
:102D100006D007F5806188423AD001B0F0BD00BF0F
:102D200040F22020C2F20000012142F61426017078
:102D300042F69010C2F20006C2F200003146402274
:102D4000FDF726FC30464021FDF767FC42F68C106B
:102D5000C2F20000018840220131018042F61020B9
:102D6000C2F20000048042F6F800C2F200003146D0
:102D7000FFF7CCFE42F24C60C2F20000006801682E
:102D800021F008010160286807F580618842C4D1FC
:102D900040F22020C2F20000012142F65425417089
:102DA00042F6D010C2F20005C2F2000029464022CD
:102DB000FDF7EEFB28464021FDF72FFC42F68C1074
:102DC000C2F20000418840220131418042F61020C9
:102DD000C2F20000448042F64010C2F200002946D0
:102DE000FFF794FE42F20C70C2F200000068016826
:102DF00021F00801016001B0F0BD000010B50446EB
:102E00000068416994F84120212A56D111F08001CF
:102E100053D000BF206850E8050F216820F08000E3
:102E200041E80502DAB1206850E8050F216820F07A
:102E3000800041E8050292B1206850E8050F216842
:102E400020F0800041E805024AB1206850E8050FF3
:102E5000216820F0800041E80502002ADAD1A06B49
:102E6000002818BFFEF73AF9206850E8030F2168E0
:102E700020F0C00041E80302DAB1206850E8030FF7
:102E8000216820F0C00041E8030292B1206850E8B8
:102E9000030F216820F0C00041E803024AB1206816
:102EA00050E8030F216820F0C00041E80302002A27
:102EB000DAD1202084F841002068406994F842105B
:102EC000222940F0A78010F0400000F0A38000BF4E
:102ED000206850E8050F216820F0400041E8050215
:102EE000DAB1206850E8050F216820F0400041E881
:102EF000050292B1206850E8050F216820F04000DB
:102F000041E805024AB1206850E8050F216820F029
:102F1000400041E80502002ADAD1E06B002818BF22
:102F2000FEF7DCF8206850E8030F216820F4907069
:102F300041E80302BAB3206850E8030F216820F487
:102F4000907041E8030272B3206850E8030F2168D3
:102F500020F4907041E803022AB3206850E8030F80
:102F6000216820F4907041E80302002ADAD11AE0C7
:102F7000206850E8050F216820F0010041E80502B3
:102F8000DAB1206850E8050F216820F0010041E81F
:102F9000050292B1206850E8050F216820F0010079
:102FA00041E805024AB1206850E8050F216820F089
:102FB000010041E80502002ADAD1206B012824D162
:102FC000206850E8030F216820F0100041E8030258
:102FD000DAB1206850E8030F216820F0100041E8C2
:102FE000030292B1206850E8030F216820F010001E
:102FF00041E803024AB1206850E8030F216820F03D
:10300000100041E80302002ADAD1202084F84200AF
:1030100000202063002010BDB0B582B004460068D7
:1030200041F20005C4F20105A84205D005F5806112
:10303000884234D002B0B0BD42F24860C2F2000013
:103040000188013101802868E96881075ED4410761
:1030500065D401076CD4C00706D000200190286811
:1030600001906868019001982046FFF7C7FE42F67C
:103070001421C2F2000120464022FFF747FD42F230
:103080004C60C2F200000068016821F00801016094
:1030900000206064206805F580618842CAD142F250
:1030A0004861C2F200014A8841F2044001324A807C
:1030B000D5F80014C4F2010082688A0742D44A0796
:1030C0004AD40A0752D4C90707D000210191D5F884
:1030D000001401910068019001982046FFF78EFED0
:1030E00042F65421C2F2000120464022FFF70EFDB5
:1030F00042F20C70C2F200000068016821F0080181
:1031000001600020606402B0B0BD00BF00210191E9
:1031100029680191696801910199410799D50021B8
:10312000019129680191696801910199010792D57E
:103130000021019129680191696801910199C007F5
:103140008BD191E700220192D5F800240192026808
:103150000192019A4A07B4D500220192D5F80024C1
:10316000019202680192019A0A07ACD500220192ED
:10317000D5F80024019202680192019AC907A4D1EE
:10318000ABE70000B0B582B001680A68CC684B6953
:1031900002F02F05202D04F0200505D125B102B045
:1031A000BDE8B04002F0CEBF5FEA027C1EBF03F074
:1031B000010E04F4907313EB0E0341D1036BD5069B
:1031C00018D5012B16D114F0100313D00022019250
:1031D0000A6801924A680192019A496949064BD4EA
:1031E000818DC28DC38D002B18BF914240F00682A5
:1031F00002B0B0BD13062DD514F080032AD090F88C
:103200004120212AF4D18268B2F5805F03D102699E
:10321000002A00F07982026A531C036212784A6025
:10322000C28C013A1304C284E2D1C86820F0800045
:10323000C860C86840F04000C86002B0B0BD00BFC0
:10324000D30718BF14F4807340F0E280530700F1F5
:10325000E580EAE05206CBD514F04002C8D0CA6837
:1032600022F04002CA60202180F8411002B0BDE87F
:10327000B04000F05BBC00BFC26B11684B68858D2D
:1032800099B2002900F0B480A94280F0B180C385D2
:10329000D169B1F5807F00F0A080016851E8031F7B
:1032A000026821F4807142E80313DBB1016851E840
:1032B000031F026821F4807142E8031393B101688F
:1032C00051E8031F026821F4807142E803134BB1F7
:1032D000016851E8031F026821F4807142E803137A
:1032E000002BDAD1016851E8051F026821F00101C5
:1032F00042E80513BBB3016851E8051F026821F0DD
:10330000010142E8051373B3016851E8051F026823
:1033100021F0010142E805132BB3016851E8051FB4
:10332000026821F0010142E80513002BDAD11AE00E
:10333000016851E8051F026821F0400142E80513C9
:10334000DBB1016851E8051F026821F0400142E845
:10335000051393B1016851E8051F026821F040018F
:1033600042E805134BB1016851E8051F026821F0DE
:10337000400142E80513002BDAD1202180F84210E9
:1033800000210163016851E8031F026821F0100168
:1033900042E80313DBB1016851E8031F026821F022
:1033A000100142E8031393B1016851E8031F02685A
:1033B00021F0100142E803134BB1016851E8031FEB
:1033C000026821F0100142E80313002BDAD1C16B2F
:1033D00004460846FDF782FE204602214163818DA6
:1033E000C28D891A89B202B0BDE8B040FFF786BC31
:1033F0008D427FF4FDAED269B2F5807F7FF4F8AEE6
:103400000222426302B0BDE8B040FFF777BC00BFC4
:10341000436C43F001034364530706D5BEF1000F2C
:1034200003D0436C43F002034364930706D5BEF117
:10343000000F03D0436C43F004034364BCF1000F5E
:1034400006D55EEA050303D0436C43F008034364EA
:10345000436C002B3FF4CCAE920605D525B1044653
:1034600002F070FE216820464969426C01F040017B
:1034700002F00802891800F0B98000BF016851E825
:10348000031F026821F4907142E80313BBB3016883
:1034900051E8031F026821F4907142E8031373B3EB
:1034A000016851E8031F026821F4907142E8031398
:1034B0002BB3016851E8031F026821F4907142E8C0
:1034C0000313002BDAD11AE0016851E8051F0268E6
:1034D00021F0010142E80513DBB1016851E8051F45
:1034E000026821F0010142E8051393B1016851E837
:1034F000051F026821F0010142E805134BB1016884
:1035000051E8051F026821F0010142E80513002B74
:10351000DAD1016B012924D1016851E8031F026847
:1035200021F0100142E80313DBB1016851E8031FE9
:10353000026821F0100142E8031393B1016851E8D9
:10354000031F026821F0100142E803134BB1016828
:1035500051E8031F026821F0100142E80313002B19
:10356000DAD1202180F84210002101630168496905
:10357000490640F1C380016851E8051F026821F047
:10358000400142E80513DBB1016851E8051F0268FC
:1035900021F0400142E8051393B1016851E8051F8D
:1035A000026821F0400142E805134BB1016851E87F
:1035B000051F026821F0400142E80513002BDAD113
:1035C000C16B002900F09A8045F64562C0F6000202
:1035D000044608460A65FDF7C9FD00283FF408AE19
:1035E000E06B016D02B0BDE8B04008470446FFF74C
:1035F00013FD0020606402B0B0BD00BF891A00BF97
:10360000026852E8032F036822F4907243E803250E
:10361000BDB3026852E8032F036822F4907243E8B6
:10362000032575B3026852E8032F036822F49072F1
:1036300043E803252DB3026852E8032F036822F400
:10364000907243E80325002DDAD11AE0026852E8AF
:10365000052F036822F0010243E80525DDB1026869
:1036600052E8052F036822F0010243E8052595B1D1
:10367000026852E8052F036822F0010243E805259D
:103680004DB1026852E8052F036822F0010243E8B9
:103690000525002DDAD1202280F842200022026385
:1036A000026852E8032F036822F0100243E8032562
:1036B000DDB1026852E8032F036822F0100243E8EC
:1036C000032595B1026852E8032F036822F0100227
:1036D00043E803254DB1026852E8032F036822F046
:1036E000100243E80325002DDAD1022289B2426399
:1036F00002B0BDE8B040FFF701BB00BF02B0BDE8BB
:10370000B040FFF789BC00BF026A32F8023B6FF39A
:103710005F234B60026283E5002804BF01207047ED
:1037200010B5044690F8410028B9002084F8400004
:10373000204600F021F8242084F841002068C16868
:1037400021F40051C160204602F07CFD206801692F
:1037500021F490410161416921F02A014161C16870
:1037600041F40051C16000202021606484F84110C0
:1037700084F84210606310BD2DE9F04F87B0044615
:10378000006841F20041C4F2010100268842CDE9FF
:103790000566CDE90366029600F0888041F20001DB
:1037A000C4F20101884240F0EF80002743F6300068
:1037B0000197C4F202004169002541F01001416106
:1037C0004169C4F2020501F01001019101990197CC
:1037D000016802AE41F002010160016846F228482A
:1037E00001F0020101910199019701684FF002096E
:1037F00041F00101016000684FF0030A00F0010090
:1038000001900198802002904FF0070B05F5806031
:103810003146C4F20208CDE90397CDF814A0CDF8E3
:1038200018B0FDF7AFFE4FF40070CDE9020904A80F
:1038300080E8800C28463146FDF7A4FE42F24C6534
:1038400008F11800C2F200054FF000664FF48069DD
:1038500085E8C1002846C5E90379C5E90577C5E9CA
:1038600007776F62FDF776FD002818BFFDF7B4FB00
:10387000E563AC6342F2AC6508F19000C2F200056A
:103880004021C5E9000605F1080080E882022846CB
:10389000C5E90577C5E907776F62FDF75BFD00288D
:1038A0004FF0250618BFFDF797FB63E043F63000A5
:1038B0000196C4F20200416946F2284841F0200115
:1038C00041614169C4F2020801F0200101910199AE
:1038D0000196016841F040010160006802A900F012
:1038E0004000019001984FF4844002900220CDE9FD
:1038F000030603200590082006900020C4F2020071
:1039000000F5C050FDF73EFE42F20C75C2F2000514
:103910004FF020674FF480692846C5E90087C5E964
:103920000266C5E90496C5E90666C5E90866FDF7BD
:1039300011FD002818BFFDF74FFBE563AC6342F2B1
:103940006C7508F17800C2F200054021C5E9000756
:1039500005F10800002280E806022846C5E9052294
:10396000C5E907226A62FDF7F5FC4FF0470608B18A
:10397000FDF732FB304600210022A563AC63FEF761
:10398000F9F83046FEF7E4F807B0BDE8F08F000024
:1039900070470000704700002DE9F04381B00446F5
:1039A00090F84100202809D100294FF0010018BFEC
:1039B000002A07D101B0BDE8F08300BF022001B0AA
:1039C000BDE8F0830020606421201D460E4684F887
:1039D00041001746FDF7B2FEA784E784A16881463F
:1039E000B1F5805F02D1206900285DD03746002004
:1039F000E28C2168002A5DD06A1C24D0002D4AD0B8
:103A0000804600BF0868000608D4FDF797FEA0EBCB
:103A10000900A8427AD82168C868F3E717B117F8F7
:103A2000010B04E038F8020B00276FF35F204860B9
:103A3000E08C0138E084E08C0028E3D13AE000BF5C
:103A40000A68120609D40A68120606D40A68120621
:103A50005CBF0A685FEA0262F2D51FB117F8012B5A
:103A600005E000BF30F8022B00276FF35F224A60A9
:103A7000E28C013AE284E28C002AE4D11AE000BF31
:103A800030F8022B00276FF35F224A60E28C013A84
:103A9000E284E28C72B10A68120635D5002FEFD0AD
:103AA00017F8012BF1E700BF00273046E28C2168B0
:103AB000002AA1D1086840061ED42DB3681C14D179
:103AC000086840062AD40868400627D408684006DB
:103AD00024D4086840064FF00000F1D50DE000BF87
:103AE0002068C1680068400618D4FDF727FEA0EBE7
:103AF0000900A842F4D909E00020202184F84110EF
:103B000001B0BDE8F08300BFFDF718FE03202021BF
:103B100084F8411001B0BDE8F08300BF00202021EF
:103B200084F8411001B0BDE8F08300007047000048
:103B3000FEE7000080B542F2CC7045F60001C2F20B
:103B40000000C4F2000148F2A06200234FF4804C50
:103B5000C0F2010280E80E00C0E9033CC0E9053371
:103B6000C0E90733FDF7F0FD002808BF80BDBDE8C0
:103B70008040FDF731BA00002DE9F04383B00446E0
:103B800000680F4601680A9D0B9E41F480719946BA
:103B90009046016020464FF0011100222B4600960E
:103BA00000F0ACF850B120680068C00544BF4FF485
:103BB00000702064032003B0BDE8F083206807F0A4
:103BC000FE0101610221C0F2010120462A4633466E
:103BD00000F07AF920B1012003B0BDE8F08300BF06
:103BE000002002902068324641690291806929468E
:103BF00002900298204600F0D3F958B1206C0428B6
:103C0000E9D12068016841F400710160012003B02E
:103C1000BDE8F0832068B9F1010F0AD04FEA1821FE
:103C2000016120462946324600F0BAF90028E5D164
:103C300020685FFA88F10161002003B0BDE8F083DD
:103C400070B50368044653F8140F400711D40E46AC
:103C5000481C29D086BB00BF1868400527D4FDF753
:103C60006DFD236853F8140F400737D518684007D7
:103C7000F2D5002070BD00BF18684007F9D418685D
:103C8000400514D418684007F3D4186840050ED4D2
:103C900018684007EDD41868400508D41868400734
:103CA0004FF0000048BF70BD18684005E4D56FF4C0
:103CB00080601860042012E0154603E053F8140FEA
:103CC0004007D6D418684005F1D4FDF737FD401BF6
:103CD0002368B042F2D958694007EFD42020002170
:103CE0002022216384F83D2084F83E10226C10438A
:103CF0002064012084F83C1070BD00002DE9F041E3
:103D0000054600681E46144601F47F0201338FB257
:103D100042D0DDF81880B2F5803F40F087804069DE
:103D20003840C01BB0FA80F04009A04240F0C88083
:103D30004EB924E040693840C01BB0FA80F0400919
:103D4000A04240F0BD80FDF7F9FCA0EB0801286817
:103D5000B142EFD941693940C91BB1FA81F1490932
:103D6000A142E7D19BE000BF40693840C01BB0FAD8
:103D700080F04009A0424FF0000040F0A280FDF723
:103D8000DDFC286841693940C91BB1FA81F1490954
:103D9000A142E9D183E000BFB2F5803F24D100BF4A
:103DA00041693940C91BB1FA81F14909A14240F08A
:103DB000878041693940C91BB1FA81F14909A142A3
:103DC00040F07E8041693940C91BB1FA81F149094F
:103DD000A14275D141693940C91BB1FA81F1490944
:103DE000A142DDD06CE000BF81693940C91BB1FA46
:103DF00081F14909A14263D181693940C91BB1FAF6
:103E000081F14909A1425BD181693940C91BB1FAED
:103E100081F14909A14253D181693940C91BB1FAE5
:103E200081F14909A142DFD04AE000BF80693840F2
:103E3000C01BB0FA80F04009A04241D146B923E04E
:103E400080693840C01BB0FA80F04009A04237D1E9
:103E5000FDF774FCA0EB08012868B142F0D9816934
:103E60003940C91BB1FA81F14909A142E8D116E0F4
:103E700080693840C01BB0FA80F04009A0424FF082
:103E8000000018BFBDE8F081FDF758FC2868816983
:103E90003940C91BB1FA81F14909A142E8D100209A
:103EA0002021286385F83D1085F83E00296C41F0FB
:103EB0002001296485F83C000120BDE8F08100BFA5
:103EC0000020BDE8F0810000F0B581B00446006834
:103ED0001D4643698FB203EA0701B94202D10020AF
:103EE00001B0F0BD4169164601323CD0490512D4FB
:103EF0007EB300BFFDF722FC411B2068B14203D90D
:103F000041693940B9422BD141693940B942E6D0C3
:103F100041694905EED5016841F4007101606FF413
:103F200080614161042000212022216384F83D202A
:103F300084F83E10226C1043206484F83C10012069
:103F400001B0F0BD41693940B942C8D04169490565
:103F5000E1D4FDF7F3FB206841693940B942F1D063
:103F60002020E0E741694905D5D441693940B9428B
:103F7000B5D041694905CED441693940B942AED086
:103F800041694905C7D441693940B942A7D041695F
:103F90004905C0D441693940B942E3D19FE70000E7
:103FA00070B50368044653F8140F000611D40E468A
:103FB000481C29D086BB00BF1868400527D4FDF7F0
:103FC000BDFB236853F8140F000637D518680006A8
:103FD000F2D5002070BD00BF18680006F9D418683B
:103FE000400514D418680006F3D4186840050ED4B0
:103FF00018680006EDD41868400508D41868000653
:104000004FF0000048BF70BD18684005E4D56FF45C
:1040100080601860042012E0154603E053F8140F86
:104020000006D6D418684005F1D4FDF787FB401B85
:104030002368B042F2D958690006EFD4202000214D
:104040002022216384F83D2084F83E10226C104326
:104050002064012084F83C1070BD0000B0B5FDF76D
:104060001BFD01F091FCFCF7BBFFFCF77FFF02F0AA
:1040700063F902F085F942F69010C2F20000402187
:10408000FCF7CBFA42F61425C2F20005284640217F
:10409000FCF7C3FA42F64014C2F200042068402242
:1040A000416941F00101416142F6F800C2F20000AD
:1040B0002946FEF72BFD42F24C60C2F20000006878
:1040C000016821F00801016042F6D010C2F2000040
:1040D0004021FCF7A2FA42F65425C2F20005284618
:1040E0004021FCF79AFA204629464022FEF70EFDB1
:1040F00042F20C70C2F200000068016821F0080171
:10410000016001F0A7FC01F071FD01F041FD42F6F4
:104110006800C2F20000FEF73FF942F62004C2F246
:10412000000420460021FEF735FC20460421FEF75E
:1041300031FC20460821FEF72DFC20460C21FEF71D
:1041400029FC42F6B004C2F2000420460021FEF72A
:1041500021FC20460421FEF71DFC20460821FEF725
:1041600019FCFFF7E7FC0220FDF7F8F900F0B8F9B9
:1041700001F070F800F088F801F0B8FB40F2EC10A4
:104180009FED040AC2F2000001F0C6FBBDE8B0409A
:1041900002F024B900000000B0B542F6942040F2CD
:1041A0001424C2F20000C2F200040168A268891A55
:1041B000322938BFB0BD00680121A0600020C4F2E0
:1041C00002000125FDF7AEFAB0FA80F04109E0786F
:1041D000A17031EA000220EA01006071C0B22271D0
:1041E000E17018BF2570012804BF01206070B0BDC8
:1041F00010B540F2801CC2F2000C0CEB80018A6802
:104200001CF8001002EB011E9EF80D30032B33D179
:104210000021B5EE400AB1EE401AF1EE10FAB8BF37
:10422000B0EE410A9FED171AB8BF01218EF80C10AD
:104230001CF8001020EE812ABCEEC22A20EE011AE2
:1042400002EB011112EE103A4FF47A74BCEEC11A6F
:1042500081ED000A634311EE104A1CF80010B3FB15
:10426000F4F302EB01114B601CF8001002EB01119A
:1042700002224A731CF80010013101F07F010CF892
:10428000001010BD000048452DE9F04140F2801CAF
:10429000C2F2000C002140F2242E40F6242841F204
:1042A000242341F62420CCE900114FF60001C2F28C
:1042B000000EC2F20008C2F20003C2F20000CFF604
:1042C000FF710324CCE902E8CCE904300EEB0105D0
:1042D00008EB01065A18471811F5807185F80D484A
:1042E00086F80D4882F80D4887F80D4885F81D4876
:1042F00086F81D4882F81D4887F81D4885F82D4826
:1043000086F82D4882F82D4887F82D4885F83D48D5
:1043100086F83D4882F83D4887F83D4885F84D4885
:1043200086F84D4882F84D4887F84D4885F85D4835
:1043300086F85D4882F85D4887F85D4885F86D48E5
:1043400086F86D4882F86D4887F86D4885F87D4895
:1043500086F87D4882F87D4887F87D4885F88D4845
:1043600086F88D4882F88D4887F88D4885F89D48F5
:1043700086F89D4882F89D4887F89D4885F8AD48A5
:1043800086F8AD4882F8AD4887F8AD4885F8BD4855
:1043900086F8BD4882F8BD4887F8BD4885F8CD4805
:1043A00086F8CD4882F8CD4887F8CD4885F8DD48B5
:1043B00086F8DD4882F8DD4887F8DD4885F8ED4865
:1043C00086F8ED4882F8ED4887F8ED4885F8FD4815
:1043D00086F8FD4882F8FD4887F8FD487FF476AFFF
:1043E00042F2242242F62000C2F20002C2F2000091
:1043F000042302F108070CF1180E00218EE80700D3
:10440000CCE90B3702F110070C2618320CF1380EEC
:10441000CCE90910CCF8341008238EE88900CCE9E7
:104420001110CCE91362CCF85410BDE8F081000003
:10443000FEE70000FEE700002DE9F04F85B042F2F4
:10444000CC7400250A260127C2F200040DF1120BDC
:104450000DF113084FF0000949F0B0008DF810007D
:1044600004A8CDE900072046782100220123029606
:10447000FDF71CFA0DF11100CDE900072046782167
:10448000002201238DF811500296FDF70FFA10203B
:104490008DF812002046782100220123CDE900B7D3
:1044A0000296FDF703FA4FF0000A00BF204678217C
:1044B000402201238DF81350CDE900870296FDF7C5
:1044C000F5F90AF101004FFA80FABAF1FF3FEDDC8D
:1044D000B9F1070F09F10109BED305B0BDE8F08FAE
:1044E0002DE9F04784B042F2CC74AE20C2F2000451
:1044F0008DF80F000A2501260DF10F0720467821BF
:1045000000220123CDE9007602954FF00009FDF766
:10451000CDF94FF0200820467821002201238DF8A4
:104520000F80CDE900760295FDF7C0F94FF0100A33
:1045300020467821002201238DF80FA0CDE90076D6
:104540000295FDF7B3F9B0208DF80F0020467821D1
:1045500000220123CDE900760295FDF7A7F9C820D6
:104560008DF80F002046782100220123CDE9007646
:104570000295FDF79BF920467821002201238DF852
:104580000F90CDE900760295FDF790F9204678214D
:10459000002201238DF80FA0CDE900760295FDF7EA
:1045A00085F940208DF80F00204678210022012354
:1045B000CDE900760295FDF779F981208DF80F009D
:1045C0002046782100220123CDE900760295FDF7EF
:1045D0006DF9FF208DF80F0020467821002201237D
:1045E000CDE900760295FDF761F9A1208DF80F0065
:1045F0002046782100220123CDE900760295FDF7BF
:1046000055F9A6208DF80F002046782100220123BD
:10461000CDE900760295FDF749F9A8208DF80F0045
:104620002046782100220123CDE900760295FDF78E
:104630003DF93F208DF80F0020467821002201230C
:10464000CDE900760295FDF731F9A4208DF80F0031
:104650002046782100220123CDE900760295FDF75E
:1046600025F9D3208DF80F00204678210022012360
:10467000CDE900760295FDF719F920467821002250
:1046800001238DF80F90CDE900760295FDF70EF924
:10469000D5208DF80F002046782100220123CDE996
:1046A00000760295FDF702F9F0208DF80F00204604
:1046B000782100220123CDE900760295FDF7F6F876
:1046C000D9208DF80F002046782100220123CDE962
:1046D00000760295FDF7EAF822208DF80F002046BB
:1046E000782100220123CDE900760295FDF7DEF85E
:1046F000DA208DF80F002046782100220123CDE931
:1047000000760295FDF7D2F812208DF80F002046B2
:10471000782100220123CDE900760295FDF7C6F845
:10472000DB208DF80F002046782100220123CDE9FF
:1047300000760295FDF7BAF8204678210022012381
:104740008DF80F80CDE900760295FDF7AFF88D204A
:104750008DF80F002046782100220123CDE9007654
:104760000295FDF7A3F814208DF80F00204678215C
:1047700000220123CDE900760295FDF797F8AF20DE
:104780008DF80F002046782100220123CDE9007624
:104790000295FDF78BF8FFF74FFE04B0BDE8F087F8
:1047A0002DE9F04F85B042F2442642F2CC74C2F2B9
:1047B00000060A270125C2F200040DF112080DF1CE
:1047C00013094FF0000A00BF4AF0B0008DF8100046
:1047D00004A8CDE900052046782100220123029794
:1047E000FDF764F800208DF811000DF11100CDE9FE
:1047F000000520467821002201230297FDF756F894
:1048000010208DF812002046782100220123CDE9E6
:1048100000850297FDF74AF84FF0FF3B06EB0B00CF
:10482000407878218DF81300204640220123CDE9FD
:1048300000950297FDF73AF80BF1010BBBF17F0FE2
:10484000ECD10AF1010ABAF1080F06F18006BBD1DA
:1048500005B0BDE8F08F00002DE9F04F9FB07F2834
:10486000019200F21B840D463F2900F21784012BB0
:1048700000F0A482022B40F01184019991F800B05D
:10488000BBF1000F00F00A8400230DE0039B019AA6
:104890000133D9B212F801B01E98029DBBF1000F8E
:1048A00000F1080000F0FA83BBF1200FC0F0F6839E
:1048B00001B27829039306DB05F1100005B22F2D14
:1048C00000F3EC830020691C012401F00701AB1CFC
:1048D00004FA01F1199103F00701EF1C04FA01F148
:1048E000189107F0070185F0040604FA01F1179109
:1048F00006F0070105F1050804FA01F1169108F028
:10490000070105F1060E04FA01F115910EF00701F9
:10491000A5F1010C04FA01F114910CF0070105F066
:10492000070204FA01F104FA02F2139114FA85F174
:104930004FF6C0761B9201EA0602C1F3C2011A913A
:10494000022111FA85F11E9201EA0602C1F3C201A9
:10495000129103211D9211FA85F3042203EA060C39
:10496000C3F3C20112FA85F3119103EA0607C3F3F8
:10497000C201052313FA85F404EA0603C4F3C20E48
:10498000062414FA85F404EA0609C4F3C2080724CD
:1049900014FA85F4109104EA0601C4F3C20A47F63A
:1049A0004C14C0F6000442F2442604EB0B1BC5F382
:1049B000C204C2F2000606EBC4121C921A9ACDF889
:1049C00010B006EBC2120B92129A029506EBC212BD
:1049D0000A92119A06EBC2120992109A06EBC212C1
:1049E000089206EBCE12079206EBC812069206EB6F
:1049F000CA1205921B9A1FFA85FED2431A92199A7F
:104A0000ABF50078D2431292189A4FF0000BD243C4
:104A10001192179AD2431092169AD2430F92159A76
:104A2000D2430E92149AD2430D92139AD2430C920F
:104A300006E000BF0BF1010BBBF1080F00F0AA80EC
:104A400000EB0B021FFA82FABAF17F0FF2D8BEF127
:104A5000400F11D31E9A0AB31D9A9AB3BCF1000FEE
:104A600042D0002F51D0002B60D0B9F1000F6FD091
:104A70000029DFD17EE000BF1C9C18F80B5014F811
:104A80000A201B9EED0746EA02061A9D08BF02EAAD
:104A9000050604F80A601E9A002ADDD10C460B991F
:104AA00018F80B5011F80A20199EAD0746EA0206C5
:104AB000129D58BF02EA050601F80A6021461D9AB8
:104AC000002ACBD10A9C18F80B5014F80A20189E23
:104AD0006D0746EA0206119D58BF02EA050604F872
:104AE0000A60BCF1000FBCD1099C18F80B5014F8F7
:104AF0000A20179E2D0746EA0206109D58BF02EABB
:104B0000050604F80A60002FADD1089C18F80B5078
:104B100014F80A20169EED0646EA02060F9D58BFBD
:104B200002EA050604F80A60002B9ED1079C18F8DB
:104B30000B5014F80A20159EAD0646EA02060E9D9B
:104B400058BF02EA050604F80A60B9F1000F8FD1D8
:104B5000069C18F80B5014F80A20149E6D0646EABD
:104B600002060D9D58BF02EA050604F80A600029F6
:104B70007FF460AF059C0C9E14F80A2018F90B50C6
:104B80001640002D139D48BF42EA050604F80A604E
:104B900050E700BF0EF108014FF6C07601EA0604A7
:104BA000C1F3C2050EF109011E90C1F3C2000EF15E
:104BB0000A0301EA06020A9003EA0601C3F3C200EF
:104BC0000EF10B03099003EA060CC3F3C2000EF1C9
:104BD0000C0303EA060AC3F3C20B0EF10D0303EA4A
:104BE0000608C3F3C2070EF10E03089003EA06009D
:104BF000C3F3C2090EF10F031D9003EA0600C3F3CD
:104C0000C20E049B42F24426C2F200061C90A3F599
:104C1000FC7006EBC5130B930A9B06EBC3130A93B8
:104C2000099B06EBC3130993089B06EBC313089378
:104C300006EBCB13079306EBC713069306EBC913DA
:104C4000059306EBCE134FF0000E049306E000BF71
:104C50000EF1010EBEF1080F3FF418AE1E9B03EBE0
:104C60000E071FFA87F9B9F17F0FF1D894B152B34B
:104C7000D1B3BCF1000F49D0BAF1000F58D0B8F150
:104C8000000F67D01D9B002B76D01C9B002BDFD123
:104C900085E000BF83460B981B9E10F809701BF837
:104CA0000E504346D046E24647EA060CEE071A9DF0
:104CB00008BF07EA050C00F809C05846D446C246AA
:104CC0009846002AD4D10A9B10F80E6013F8097098
:104CD000199DB60745EA0705129E58BF07EA060563
:104CE00003F809500029C4D1099B10F80E6013F88D
:104CF0000970189D760745EA0705119E58BF07EA17
:104D0000060503F80950BCF1000FB5D1089B10F857
:104D10000E6013F80970179D360745EA0705109EC7
:104D200058BF07EA060503F80950BAF1000FA6D1EB
:104D3000079B10F80E6013F80970169DF60645EAF9
:104D400007050F9E58BF07EA060503F80950B8F19A
:104D5000000F97D1069B10F80E6013F80970159D8F
:104D6000B60645EA07050E9E58BF07EA060503F892
:104D700009501D9B002B88D1059B10F80E6013F87D
:104D80000970149D760645EA07050D9E58BF07EA8F
:104D9000060503F809501C9B002B7FF459AF049BB8
:104DA0000C9D13F8097010F90E603D40002E139E03
:104DB00048BF47EA060503F8095049E701990A7810
:104DC000002A00F06B8100230BE000BF009B019ADA
:104DD0000133D9B2525C029D002A00F1060000F0B6
:104DE0005D81202AC0F05A8101B27A29009306DB46
:104DF00005F1080005B2372D00F35081002005F0C1
:104E00000701012707FA01F11A91691C1FFA81FCB9
:104E100001F0070107FA01F11991A91C1FFA81F8A5
:104E200001F0070107FA01F11891E91C1FFA81FA54
:104E300001F0070107FA01F11791291D8BB201F06A
:104E4000070107FA01F11691691D1FFA81F901F0B6
:104E5000070107FA01F11591A91D8CB201F00701B4
:104E600007FA01FB47F2247102EB4202C0F600018F
:104E700001EB4202A9B2A2F1C0061B91CA0842F29C
:104E80004421C2F2000101EBC21212924FEADC028D
:104E900001EBC21211924FEAD80201EBC21210923A
:104EA0004FEADA021E9301EBC2120F921E9AEB1D1B
:104EB000D20801EBC2120E924FEAD9021FFA83FE0A
:104EC00003F0070301EBC21207FA03F30D92E208A5
:104ED0004FEADE0701EBC21201EBC7110B911A99E1
:104EE0000C92C9430A9119997246C94309911899BC
:104EF0004FF0000EC943089117990295C9430791D5
:104F00001699CDF87490C943069115991C94C9431C
:104F100005916FEA0B010491D943CDF850B013937A
:104F2000039105E00EF1010EBEF1060F3FF44EAF06
:104F300000EB0E011FFA81F9B9F17F0FF2D81B992E
:104F4000402915D3BCF13F0F2BD9B8F13F0F3AD907
:104F5000BAF13F0F49D91E993F2958D91D993F29C8
:104F600067D91C993F2976D93F2ADBD885E000BF55
:104F7000129F1A9C17F80910E34616F80EC0534604
:104F8000C24641EA04085FEACC750A9C08BF01EA00
:104F90000408DC4607F80980D0469A46BCF13F0F6A
:104FA000D3D8119B16F80E5013F80910199CAD07B1
:104FB00044EA0104099D58BF01EA050403F80940C9
:104FC000B8F13F0FC4D8109B16F80E5013F8091013
:104FD000189C6D0744EA0104089D58BF01EA0504C6
:104FE00003F80940BAF13F0FB5D80F9F179B17F888
:104FF000091016F80E5041EA03042D07079B58BF0D
:1050000001EA030407F809401E993F29A6D80E9F1C
:10501000169B17F8091016F80E5041EA0304ED0626
:10502000069B58BF01EA030407F809401D993F2970
:1050300097D80D9F159B17F8091016F80E5041EAE6
:105040000304AD06059B58BF01EA030407F80940B5
:105050001C993F2988D80C9F149B17F8091016F843
:105060000E5041EA03046D06049B58BF01EA030495
:1050700007F809403F2A3FF655AF0B9F039B17F8EF
:10508000091016F90E5001EA0304002D139B48BFC6
:1050900041EA030407F8094044E700BF1FB0BDE838
:1050A000F08F00002DE9F04383B042F6942742F6DA
:1050B0008810C2F20007C2F2000039680268891A3B
:1050C000FA293CBF03B0BDE8F0833968016040F2C3
:1050D000E010C2F20000D0E9000402F01DFA05461B
:1050E00020460E4602F018FA40F2000441EC100B84
:1050F000C2F200043CA120462A4633468DED000B47
:10510000FBF750F940F29810C2F20000C26804F1B7
:1051100015053AA12846FBF745F9386844F6D351FE
:10512000C1F26201A0FB010242F24460C2F200003F
:10513000006804F15409A0FB010192098B0934A114
:105140004846FBF72FF942F68C10C2F200000288A5
:10515000438804F1690633A13046FBF723F942F294
:105160004860C2F200000288438840F2DA10C2F2BE
:10517000000040F290080788C2F200082FA14046C4
:105180000097FBF70FF90020002122460123FFF7CB
:1051900063FB002009212A460123FFF75DFB04F190
:1051A0002A02002012210123FFF756FB04F13F02DF
:1051B00000201B210123FFF74FFB002024214A463A
:1051C0000123FFF749FB00202D2132460123FFF781
:1051D00043FB0020362142460123FFF73DFB03B08D
:1051E000BDE8F043FFF7DCBA506F696E743A252EC4
:1051F00034662C252E3466200000000053544550A0
:10520000533A256420202020202020202000000068
:1052100074696D653A2564202564202020202020B3
:105220002020000075617274723A25642025642084
:1052300020202020202020200000000064656275CE
:10524000673A2564202564202564202000000000A2
:105250007047000042F2242040F20041C2F20000F8
:10526000C4F202014FF480524FF400530160828077
:1052700000228160838101614FF4004381614FF41A
:1052800080418271827383828275818382777047C5
:1052900010B542F22424C2F200042068A188A27949
:1052A000FCF746FAA068A189A27BFCF741FA2069C5
:1052B000A18AA27DFCF73CFAA069A18BA27FBDE880
:1052C0001040FCF735BA00002DE9F04F81B02DED0C
:1052D000088B82B040F28016C2F200063079B168C5
:1052E00042F6942901EB0014607BC2F20009032806
:1052F00066D0022844D0002840F08D80A068D9F8FC
:10530000001088426AD9207B002800F0FB80012829
:1053100040F03181D6F824A00AF57A7001F085FEBC
:10532000804620680D4602F0F7F89FED950B53EC90
:10533000102B01F005FF9FED940B074653EC102B4B
:105340008B4601F0FDFE42462B4602F01EF9002876
:1053500040F0F980504601F068FE9FED8D0B054648
:10536000884653EC102B3846594601F0E9FE0246B8
:105370000B462846414601F03BFD41EC180BF5E099
:10538000306A6168D9F800209FED861A11440191B6
:10539000019994ED000AA1600021617320EE010AD9
:1053A000217BBCEEC00A012910EE104A02D881719F
:1053B000FFF76EFFD6E906019FED7B0A224628E043
:1053C000D6E906010268E9B1042917D0082914BFFB
:1053D00040233C23D258C2B91DE000BFD9F80010C9
:1053E000884218D8032060730020C4E90000307997
:1053F000013000F07F0030710DE000BF3823D2583B
:105400001AB908E03423D2582AB19FED650A4FF447
:10541000FA6201F001F89FED63AA9FED638A9FEDA8
:10542000609A4FF0000A05274FF00308002510E0AE
:105430002BEE0A0ABCEEC00AD4E90A0110EE102ACB
:10544000B0EE480A00F0E8FF04350C2D07F1010723
:1054500052D07119F05DC96801EB0010417B39B37E
:10546000022906EB85040FD00329EDD1D4E90A0106
:105470000268B9B3082931D0042914BF4023382366
:10548000D2589ABBE0E700BF216B4268D9F80030E0
:105490001A440192019A90ED00BA8260027B80F872
:1054A0000DA0012AC4D88A71FFF7F2FEC0E700BF41
:1054B0008168D9F80020914202D980F80DA0C3E795
:1054C000D9F800209142BFD880F80D80C0E900AA29
:1054D000F05D013000F07F00F055B5E73C23D25875
:1054E00022B9B1E73423D258002AADD04FF4FA6282
:1054F000B0EE490AA6E700BF02B0BDEC088B01B0D0
:10550000BDE8F08F706A01F090FD804620680F467C
:1055100002F002F89FED1A0B53EC102B01F010FE75
:105520009FED190B53EC102B01F00AFE42463B464F
:1055300001F05EFC9FED180B41EC180B53EC102BA7
:1055400002F023F890B1D6E906019FED150A4FF459
:10555000FA6200F061FFB06800214FF4407282816E
:105560000160416081603171317054E751EC180B7A
:1055700001F02EFD7062002060734CE700BF00BF99
:10558000FCA9F1D24D62503F000000000000A9408C
:10559000000000000000A9C00000000000D0D740BB
:1055A0000000000000004845CDCC4C3E000000004B
:1055B000F0B581B042F6942740F2E816C2F2000737
:1055C000C2F2000638683168401A0A285ED338688B
:1055D0003060307D02284BD0012822D196ED030A9D
:1055E0009FED3B1A022080EE010A3075D6E9015486
:1055F00010EE100A01F090FF9FED2D0B53EC102BD5
:1056000001F09EFD9FED2C0B53EC102B01F0F0FBF5
:1056100001F0BCFB00EE100A28462146322200F0C1
:10562000FBFE96F8280002282CD001282ED102205B
:1056300086F82800306AD6E9064501F06DFF9FED37
:10564000200B53EC102B01F07BFD9FED1F0B53EC57
:10565000102B01F0CDFB01F099FB00EE100A204663
:105660002946322201B0BDE8F04000F0D5BE00BFAF
:1056700038683169884224BF0020307596F82800C8
:105680000228D2D13868716A884201D201B0F0BDD7
:10569000D6E906019FED0F0A0023322286F8283052
:1056A00001B0BDE8F04000F0B7BE00BF00BF00BFD2
:1056B0009A9999999999B93F9A9999999999993FEC
:1056C0009A9999999999A9BF333333333333B33FB7
:1056D000000034439A99993D704700000000000093
:1056E000F0B581B02DED028B42F6942140F2D81036
:1056F000C2F20001C2F200000A684368D21A0A2A04
:105700007BD30968416040F22021C2F200010A788F
:10571000012A72D142F69017C2F200077A7800236C
:10572000852A0B704ED0842A34D0832A65D142F664
:105730001021C2F20001B1F800C04188BCF10C0F89
:1057400059D3ACF10C02002493B2002206E000BF52
:1057500001314180013294B2A3424BD33D5D802D93
:10576000F8D13D196E78832EF2D1AE79822EEFD129
:105770000B346445ECD23E5D812EE9D1D5F80210A0
:10578000D5F80720C0E9021201210170BDEC028B9F
:1057900001B0F0BDB878012834D070BB42F6F800F3
:1057A00047F64471C2F20000C0F600010122012355
:1057B000FEF7F2F8F978387900EE101AB8EE408A60
:1057C00034E000BFB87802286AD0012844D0A0B9DC
:1057D00042F6F80047F64471C2F20000C0F600013C
:1057E00001220123FEF7D8F8F87839799FED3E1AA7
:1057F00042E000BF013101314180BDEC028B01B0BC
:10580000F0BD00BF42F6F80047F64671C2F2000054
:10581000C0F6000101220123FEF7BEF8F9783879BD
:1058200000EE101AB8EE400AB1EE408A01F0FDFB1E
:105830009FED290B53EC102B01F082FC01F0A6FA2E
:1058400000EE900A0020B0EE480ABDEC028B01B0D9
:10585000BDE8F040FEF7CCBC42F6F80047F64671D2
:10586000C2F20000C0F6000101220123FEF794F805
:10587000F87839799FED1B1A00EE100A6420B8EE13
:10588000400A414340F2002020EE010AC2F200002B
:10589000BDEC028B01B0BDE8F04000F059B800BF8C
:1058A00042F6F800C2F200000DA101220123FEF72A
:1058B00073F8F87800EE100A40F2EC10B8EE400AE7
:1058C000C2F20000BDEC028B01B0BDE8F04000F078
:1058D00023B800BF00BF00BFB81E85EB51B89E3F84
:1058E00032000000CDCCCCBDCDCCCC3D40F2E81098
:1058F00042F6B001C2F20000C2F20001002204230D
:10590000C0E90112C0E903220275C0E90613C0E92B
:10591000082280F828207047B5EE400AF1EE10FA10
:1059200012DB9FED0A1AB4EE410AF1EE10FAC8BF7D
:1059300070470121017442F6942180ED020AC2F2FF
:10594000000109683231C160704700BF0000344374
:10595000B0EEC01AB7EE002AB4EE421AF1EE10FA19
:105960000EDC027C002A18BF70470122027442F646
:10597000942280ED020AC2F2000212681144C16052
:1059800070470000FCF77AB870B592B006AC2046BC
:105990003021FAF764FE002543F640000595CDE975
:1059A0000355CDE901550095C4F2020001680226B5
:1059B00041F080510160006800F080500090009834
:1059C00047F200000095C4F20000016841F48041F4
:1059D0000160006800F4804000900098012006906B
:1059E0004FF4803007904FF480000D9006200E9009
:1059F000A020CDE90F060420119020460C96FCF75C
:105A000005FA18B172B600BFFEE700BF0F20CDE95E
:105A100001064FF4A05004904FF48050059001A867
:105A200005210395FCF7E2F810B172B6FEE700BF5E
:105A300012B070BD4EF68850CEF20000016841F4FD
:105A4000700101607047000042F62000C2F20000C1
:105A5000FCF7FABC80B592B042F62000002200218B
:105A6000C2F20000C4F201020F2340F2E73C1191A0
:105A7000CDE90F11CDE90D11CDE90B11CDE90911DA
:105A8000CDE90711CDE90511CDE90311CDE90111EA
:105A9000C0E90023C0E9021CC0E904118161FCF7E0
:105AA000F7FE002818BFFBF797FA42F62000C2F273
:105AB000000010A9FCF7C0FB002818BFFBF78CFA08
:105AC000602009900020CDE90A00CDE90C00CDE965
:105AD0000E0042F62000C2F2000009A90022FCF7E5
